:10000000F5C0000023C1000021C100001FC1000095
:100010001DC100001BC1000019C1000017C1000074
:1000200015C1000013C1000011C100000FC1000084
:100030000DC100000BC1000009C1000007C1000094
:1000400005C1000003C1000001C10000FFC00000A5
:10005000FDC00000FBC00000F9C0000024C6000085
:10006000F5C00000EAC50000BFC50000EFC00000F9
:10007000EDC00000EBC00000E9C00000E7C00000D8
:10008000E5C00000E3C00000E1C00000DFC00000E8
:10009000DDC00000DBC00000D9C000004EC600007B
:1000A000D5C00000D3C00000D1C00000CFC0000008
:1000B000CDC00000CBC00000C9C00000C7C0000018
:1000C000C5C00000C3C00000C1C00000BFC0000028
:1000D000BDC00000BBC00000B9C00000B7C0000038
:1000E000B5C0000000000A0B02090C0D0E08070342
:1000F00004010000000000000000000000000000FB
:1001000000000000000000000000000000000000EF
:1001100012111000000000000000000000000000AC
:100120000000000000000000000000002200250088
:1001300028002B002E0031003400020100000501D0
:1001400008010B0100002100240027002A002D00D7
:100150003000330001010000040107010A01050518
:100160000505070508080808020202020A0A08082D
:10017000040404040101010101010101030303035B
:1001800003030303040707070C0C0C0C0C0C0C0CEA
:100190000202020206060606060606060B0B0B0BFB
:1001A0000B0B0B0B01021020200808102040102020
:1001B000408002010201080402010102040810202B
:1001C0004080804020100804020180040201804029
:1001D0002010080402010804020101020408102092
:1001E00040800102040810204080C00711241FBE77
:1001F000CFEFD1E2DEBFCDBF00E00CBF12E0A0E048
:10020000B2E0E8E1F8E100E00BBF02C007900D9218
:10021000AE34B107D9F723E0AEE4B2E001C01D92DD
:10022000AC39B207E1F710E0C6EFD0E000E006C05D
:1002300021970109802FFE010E94020CC53FD107C2
:1002400080E00807A9F7D5D60C940A0CD9CE90E027
:10025000FC01EC55FE4F2491825A9E4FFC01849183
:10026000882399F090E0880F991FFC01EC5BFE4F0A
:10027000A591B491FC01E65DFE4F859194918FB7F5
:10028000F894EC91E22BEC938FBF08950895CF93EF
:10029000DF93AC01E091E902F091EA023097F1F0CE
:1002A0009091E8028091E7029817C0F090E0292F22
:1002B00030E02617370754F4D901A25BBD4F240F55
:1002C000351FE90128812C939F5FF1CF1092E8023E
:1002D0006093E702CB01DF91CF911994DF91CF9129
:1002E0000895AF92BF92CF92DF92EF92FF920F9359
:1002F0001F93CF93DF936C017B018B01040F151FBC
:10030000EB015E01AE18BF08C017D10759F0699123
:10031000D601ED91FC910190F081E02DC601199577
:10032000892B79F7C501DF91CF911F910F91FF9034
:10033000EF90DF90CF90BF90AF900895FC01538D68
:10034000448D252F30E0842F90E0821B930B5417AF
:1003500010F0CF96089501970895FC01918D828D3C
:10036000981761F0A28DAE0FBF2FB11D5D968C91D5
:10037000928D9F5F9F73928F90E008958FEF9FEF14
:100380000895FC01918D828D981731F0828DE80FD0
:10039000F11D858D90E008958FEF9FEF0895FC018A
:1003A000918D228D892F90E0805C9F4F821B910957
:1003B0008F739927089583EF92E0F1DF21E0892B75
:1003C00009F420E0822F0895FC01A48DA80FB92F15
:1003D000B11DA35ABF4F2C91848D90E001968F736D
:1003E0009927848FA689B7892C93A089B1898C918C
:1003F000837080648C93938D848D981306C00288DB
:10040000F389E02D80818F7D80830895EF92FF92A4
:100410000F931F93CF93DF93EC0181E0888F9B8D27
:100420008C8D98131AC0E889F989808185FF15C0E1
:100430009FB7F894EE89FF896083E889F989808104
:100440008370806480839FBF81E090E0DF91CF91D3
:100450001F910F91FF90EF900895F62E0B8D10E0F5
:100460000F5F1F4F0F731127E02E8C8D8E110BC065
:100470000FB607FCFACFE889F989808185FFF5CFAF
:10048000CE01A2DFF2CFEB8DEC0FFD2FF11DE35A71
:10049000FF4FF0829FB7F8940B8FEA89FB89808128
:1004A0008062D0CFCF93DF93EC01888D8823B1F0A9
:1004B000AA89BB89E889F9898C9185FD03C080816F
:1004C00086FD0CC00FB607FCF7CF8C9185FFF2CFED
:1004D000808185FFEDCFCE0177DFEACFDF91CF912D
:1004E000089580E090E0892B21F065DF81110E9462
:1004F000000080E090E0892B49F080E090E0892BBB
:1005000029F00E94000081110E94000080E090E02C
:10051000892B49F080E090E0892B29F00E940000AF
:1005200081110E94000080E090E0892B49F080E07A
:1005300090E0892B29F00E94000081110C940000AA
:100540000895282F30E0F901EC51FF4F9491F90103
:10055000EC55FE4F4491225A3E4FF901249122233B
:1005600009F435C0992311F191509231F8F4E92F33
:10057000F0E08827E154FD4F8F4F0C94020CF002FD
:10058000F402D102E802EC02D602F702FD020103F6
:1005900007030B030F0315031903D6021D032303DF
:1005A0002703809180008F7780938000E22FF0E016
:1005B000EE0FFF1FE65DFE4FA591B4918FB7F89443
:1005C000EC91611148C040954E234C938FBF089524
:1005D000809180008F7DE8CF80918000877FE4CF7D
:1005E00084B58F7784BDE2CF84B58F7DFBCF8091BA
:1005F000B0008F778093B000D9CF8091B0008F7D0D
:10060000F9CF809190008F7780939000CFCF809129
:1006100090008F7DF9CF80919000877FF5CF8091FA
:10062000A0008F778093A000C1CF8091A0008F7D24
:10063000F9CF8091A000877FF5CF809120018F773F
:1006400080932001B3CF809120018F7DF9CF8091DD
:100650002001877FF5CF4E2BB8CF1F93CF93DF9329
:10066000182FEB01F4DD209731F460E0812FDF914A
:10067000CF911F9166CFCF3FD10511F461E0F6CF46
:10068000E12FF0E0EC51FF4FE491E150E23108F04E
:10069000B3C0F0E08827E05BFC4F8F4F0C94020C56
:1006A00062036A036F0379038303FC038D039503DD
:1006B0009D03A703B103BB03CA03D403FC03DE03FA
:1006C000E803F20384B5806884BDC7BDDF91CF9194
:1006D0001F91089584B5806284BDC8BDF7CF809115
:1006E0008000806880938000D0938900C093880048
:1006F000EDCF80918000806280938000D0938B004A
:10070000C0938A00E3CF809180008860809380004E
:10071000D0938D00C0938C00D9CF8091B0008068B9
:100720008093B000C093B300D1CF8091B0008062BD
:100730008093B000C093B400C9CF809190008068CE
:1007400080939000D0939900C0939800BFCF809180
:100750009000806280939000D0939B00C0939A0099
:10076000B5CF80919000886080939000D0939D00D9
:10077000C0939C00ABCF8091A00080688093A000C4
:100780008091A0008F7B8093A000D093A900C0939C
:10079000A8009CCF8091A00080628093A000D0939D
:1007A000AB00C093AA0092CF8091A0008860809394
:1007B000A000D093AD00C093AC0088CF8091200101
:1007C000806880932001D0932901C09328017ECFB7
:1007D00080912001806280932001D0932B01C093EF
:1007E0002A0174CF80912001886080932001D093EA
:1007F0002D01C0932C016ACFC038D1050CF03ECF3B
:1008000034CF3FB7F8948091DA029091DB02A09147
:10081000DC02B091DD0226B5A89B05C02F3F19F080
:100820000196A11DB11D3FBFBA2FA92F982F882770
:10083000BC01CD01620F711D811D911D42E0660F4B
:10084000771F881F991F4A95D1F7089585ED8093EA
:10085000BC008091BC0084FDFCCF1092E40208959E
:1008600020918E02260F3327331F21323105ECF4FD
:100870002091E402FC0190E080E0243069F082E005
:100880000895A0918E022191AC0142595D4FA40FB1
:10089000B52FB11D2C930196861798F380918E0287
:1008A000680F60938E0280E0089581E008950895B6
:1008B000E091E8028091E702E81730F4F0E0E25BB3
:1008C000FD4F808190E008958FEF9FEF0895909104
:1008D000E8028091E7022FEF3FEF981748F4E92FE5
:1008E000F0E0E25BFD4F208130E09F5F9093E802F3
:1008F000C90108958091E7029091E802891B990B44
:100900000895CF93DF93CB01EA01642FA9DFCE01D5
:10091000DF91CF910895CF93DF931F92CDB7DEB7CC
:10092000698361E0CE0101969BDF81E090E00F904A
:10093000DF91CF91089590E080E008958091E702E3
:100940009091E802891B990B029744F080E993E0AB
:10095000BEDF682F83EF92E059DDF0CF80E993E0AE
:10096000B6DF90930102809300020895FC0101908C
:100970000020E9F73197AF01481B590BBC0183EF09
:1009800092E0AFCCCF93DF93F1DFEC0186E292E00F
:10099000EDDF8C0F9D1FDF91CF91089580910002B4
:1009A000909101029C0121503109273C310548F406
:1009B000845691099093F0028093EF021092F10215
:1009C00009C0813E9105D1F781E08093F10289E26F
:1009D00092E0CCDF80910002909101028B3E910564
:1009E000B1F481E08093F20281E392E0CBDF70E02A
:1009F00060E084E032DE70E060E085E02EDE70E0F2
:100A000060E086E02ADE70E060E087E026CE1092AB
:100A1000F20208958F929F92AF92BF92CF92DF928F
:100A2000EF92FF920F931F93CF93DF93CDB7DEB773
:100A3000A1970FB6F894DEBF0FBECDBF6C01990F22
:100A4000EE08FF08F7FE3EC06DE283EF92E0DEDCC9
:100A50008C0122273327A9012C193D094E095F0972
:100A600019A2CE0181967C019AE0892E912CA12CAD
:100A7000B12CCA01B901A5019401A2D6605DF701AC
:100A800062937F01211531054105510591F790E0F1
:100A900080E0309711F0CF0169DF800F911FA196A0
:100AA0000FB6F894DEBF0FBECDBFDF91CF911F917F
:100AB0000F91FF90EF90DF90CF90BF90AF909F90FD
:100AC0008F900895A701960119A28E010F5D1F4F07
:100AD0008AE0C82ED12CE12CF12CCA01B901A70162
:100AE00096016ED6605DF80162938F012115310584
:100AF0004105510591F790E080E0309781F2CF01F8
:100B000035DFCDCF8F929F92AF92BF92CF92DF927F
:100B1000EF92FF920F931F937C01D62EC72E4A01AE
:100B200059018BE392E022DFC70174DF88E492E091
:100B30001DDF8D2D9C2D6EDF88E492E017DFC40150
:100B400069DF88E492E012DFC50164DF88E492E0A7
:100B50000DDFC8015FDF8BE492E014DF21E0E226C5
:100B60006E2D88E0EEDC6E2D89E0EBDC6D2D8AE0E9
:100B7000E8DC6D2D8BE0E5DCB40184E06EDDB401D2
:100B800085E06BDDB50186E068DDB50187E065DDF8
:100B90006801110FEE08FF0834DE4B015C0131DE05
:100BA000681979098A099B09683E73408105910596
:100BB000B0F381E0C81AD108E108F10828EE820EEE
:100BC00023E0921EA11CB11CC114D104E104F10464
:100BD00031F71F910F91FF90EF90DF90CF90BF9072
:100BE000AF909F908F9008951F920F920FB60F9223
:100BF00011240BB60F922F933F934F935F936F93F4
:100C00007F938F939F93AF93BF93EF93FF9383EF64
:100C100092E0DADBFF91EF91BF91AF919F918F91BD
:100C20007F916F915F914F913F912F910F900BBEEC
:100C30000F900FBE0F901F9018951F920F920FB636
:100C40000F9211240BB60F922F938F939F93EF93D4
:100C5000FF93E0910303F09104038081E091090385
:100C6000F0910A0382FD1DC0908180910C038F5F7B
:100C70008F7320910D03821741F0E0910C03F0E097
:100C8000ED50FD4F958F80930C03FF91EF919F9155
:100C90008F912F910F900BBE0F900FBE0F901F9052
:100CA00018958081F2CF1F920F920FB60F921124E8
:100CB0002F933F938F939F93AF93BF938091D602CF
:100CC0009091D702A091D802B091D9023091D5026B
:100CD00023E0230F2D3758F50196A11DB11D209358
:100CE000D5028093D6029093D702A093D802B093F6
:100CF000D9028091DA029091DB02A091DC02B091DE
:100D0000DD020196A11DB11D8093DA029093DB02F2
:100D1000A093DC02B093DD02BF91AF919F918F91C0
:100D20003F912F910F900FBE0F901F90189526E8BE
:100D3000230F0296A11DB11DD2CF1F920F920FB6A5
:100D40000F9211240BB60F922F933F934F935F9303
:100D50006F937F938F939F93AF93BF93EF93FF9383
:100D60008091B900887F803609F44CC008F03FC0FC
:100D7000883209F4A8C028F5803109F49CC0C8F471
:100D8000882309F4FAC0883009F495C0FF91EF91E7
:100D9000BF91AF919F918F917F916F915F914F9193
:100DA0003F912F910F900BBE0F900FBE0F901F9091
:100DB0001895883109F487C0803241F78093B102D9
:100DC00014C0803409F49CC040F48033B9F38833F4
:100DD000E9F68093B10285ECAFC0803509F484C098
:100DE000883509F495C0883489F630DDCFCF88394D
:100DF00009F48CC038F5883729F050F4883611F0A2
:100E0000803721F683E08093E4021092B00257C04D
:100E1000883809F47BC0803919F0803809F0B6CFE2
:100E20008091B002803208F071C0E091B00281E0A0
:100E30008E0F8093B0028091BB00F0E0E057FD4F31
:100E400080833DC0803B39F0E0F4803A09F479C0FA
:100E5000883A09F09BCF84E08093E40210928F02DD
:100E600010928E02E091E002F091E10219958091DA
:100E70008E0281110FC081E080938E0210926E026B
:100E800009C0803C09F4A7CF883C09F4A4CF883B73
:100E900009F07CCFE0918F0281E08E0F80938F026A
:100EA000F0E0E259FD4F80818093BB0090918F026A
:100EB00080918E0229C08091D4028093BB0085EC82
:100EC0008093BC0063CF9091D3028091D202981797
:100ED00058F5E091D30281E08E0F8093D302F0E0C9
:100EE000EE54FD4F8081E9CFE091D30281E08E0F77
:100EF0008093D3028091BB00F0E0EE54FD4F8083DD
:100F00009091D3028091D2029817C8F285E8D8CF89
:100F1000E091D30281E08E0F8093D3028091BB00D9
:100F2000F0E0EE54FD4F80838091E30281115DCFAC
:100F300081E08093E20284EA8093BC001092E40294
:100F400025CF85EC8093BC001092E4028091B00222
:100F5000803230F4E091B002F0E0E057FD4F1082B3
:100F60006091B00270E0E091DE02F091DF0280E972
:100F700092E019951092B00209CF1092B10235CFCC
:100F8000E3EFF2E01382128288EE93E0A0E0B0E09B
:100F900084839583A683B78326E032E03183208360
:100FA00025EC30E03587248724EC30E0378726872E
:100FB00020EC30E0318B208B21EC30E0338B228B26
:100FC00022EC30E0358B248B26EC30E0378B268BFF
:100FD000118E128E138E148EE0E9F3E013821282CA
:100FE00084839583A683B78388E192E0918380838D
:100FF0000895789484B5826084BD84B5816084BD91
:1010000085B5826085BD85B5816085BD80916E00A6
:10101000816080936E0010928100809181008260D7
:101020008093810080918100816080938100809114
:1010300080008160809380008091B1008460809303
:10104000B1008091B00081608093B00080919100E8
:1010500082608093910080919100816080939100E3
:10106000809190008160809390008091A1008260C7
:101070008093A1008091A10081608093A100809164
:10108000A00081608093A000809121018260809304
:1010900021018091210181608093210180912001B3
:1010A00081608093200180917A00846080937A002F
:1010B00080917A00826080937A0080917A008160CA
:1010C00080937A0080917A00806880937A001092F1
:1010D000C1001092E8021092E7021092E60210920C
:1010E000E5021092E40281E08093E3021092E202B2
:1010F00061E084E126DA61E085E123DA8091B900DC
:101100008E7F8093B9008091B9008D7F8093B90064
:1011100088E48093B80085E48093BC0086E491E085
:101120009093E1028093E00287E491E09093DF02E4
:101130008093DE0288E08093BA008EE994E0909379
:10114000EA028093E902E0910303F091040382E054
:101150008083E091FF02F09100031082E09101038F
:10116000F09102038FEC808310920B03E091070350
:10117000F091080386E08083E0910503F091060377
:10118000808180618083E0910503F0910603808176
:1011900088608083E0910503F09106038081806878
:1011A0008083E0910503F091060380818F7D808329
:1011B00084E04DD885E04BD886E049D887E047D811
:1011C00088E045D889E043D88AE041D88BE03FD811
:1011D000EE24EA94F12C9DE2C92ED12CDFDB809124
:1011E000F202811164C1DADBC091EF02D091F0020A
:1011F0001C161D060CF0BCC0BE010D2E000C880B89
:10120000990BEFD14B015C012DEC3CEC4CE45EE31F
:1012100074D220E030E044E352E44CD120E030E0EE
:10122000A90148D1ABD17093EE026093ED022AE997
:1012300039E949E95FE3C501B4015FD29B01AC0123
:1012400060E070E084E392E434D120E030E0A90172
:1012500031D194D17093EC026093EB028091ED0256
:101260009091EE0297FFA7C01092EE021092ED024D
:10127000CD2B41F4D092EE02C092ED02D092EC025E
:10128000C092EB028091EB029091EC0297FF9DC01F
:101290001092EC021092EB0260E088E052D960E01C
:1012A0008AE04FD960E089E04CD960E08BE049D911
:1012B000C091ED02D091EE02D7FF02C0C1E0D0E0B4
:1012C0000091EB021091EC025E01480117FF06C08D
:1012D000AA24A394B12C88248394912CC5019ADB71
:1012E00086E292E043DBBE0184E0B7D9B50185E038
:1012F000B4D9B80186E0B1D9B40187E0AED9809104
:10130000EF029091F00286DB88E492E02FDB80917F
:10131000ED029091EE027EDB88E492E027DB809183
:10132000EB029091EC0276DB8BE492E02BDB809178
:10133000F102882309F453C00CE211E02AE530E001
:101340004AE550E070E060E090E080E0DBDB26DB27
:101350008091F102882309F442C001E010E026E404
:1013600030E046E450E061E070E081E090E0EECFF4
:10137000209709F473CFBE010D2E000C880B990B3A
:1013800030D14B015C012AE939E949E95FE3B5D184
:1013900020E030E044E352E48DD020E030E0A901C9
:1013A00089D0ECD07093EE026093ED022DEC3CEC12
:1013B0004CE45EE340CF8F3F910509F00CF458CF29
:1013C000F092EE02E092ED0253CF8F3F910509F0CB
:1013D0000CF462CFF092EC02E092EB025DCF8091D0
:1013E000EF029091F0028436910559F400E213E087
:1013F0002AE530E04AE550E061E070E090E080E00E
:1014000081DB8091EF029091F0028C399F4F59F46B
:1014100000E213E02AE530E04AE550E070E060E0E9
:1014200081E090E06FDB8091EF029091F002803BD1
:101430009F4FD4F48091F102811116C002E310E0B5
:101440002AE530E04AE550E061E070E081E090E0BC
:1014500059DB0CE211E02AE530E04AE550E070E0AB
:1014600060E081E090E04EDB8091EF029091F0022D
:10147000813591050CF4B3CE8091F1028111AFCE8C
:1014800002E310E02AE530E04AE550E061E070E078
:1014900081E090E037DB0CE211E02AE530E04AE53C
:1014A00050E061E070E090E080E02CDB98CE19D84D
:1014B00095CE5058BB27AA270ED0E5C0D6D030F025
:1014C000DBD020F031F49F3F11F41EF4CBC00EF4BA
:1014D000E095E7FBC1C0E92FE7D080F3BA176207B8
:1014E00073078407950718F071F49EF5FFC00EF49A
:1014F000E0950B2EBA2FA02D0B01B90190010C0124
:10150000CA01A0011124FF27591B99F0593F50F43B
:10151000503E68F11A16F040A22F232F342F442793
:10152000585FF3CF469537952795A795F04053958B
:10153000C9F77EF41F16BA0B620B730B840BBAF05B
:101540009150A1F0FF0FBB1F661F771F881FC2F7C6
:101550000EC0BA0F621F731F841F48F487957795DA
:101560006795B795F7959E3F08F0B3CF9395880F91
:1015700008F09927EE0F97958795089504D0689401
:10158000B111B5C0089598D088F09F5790F0B92F49
:101590009927B751A0F0D1F0660F771F881F991FC8
:1015A0001AF0BA95C9F712C0B13081F09FD0B1E0FE
:1015B00008959CC0672F782F8827B85F39F0B93F0E
:1015C000CCF3869577956795B395D9F73EF49095CA
:1015D0008095709561957F4F8F4F9F4F0895E89448
:1015E00009C097FB3EF490958095709561957F4F6B
:1015F0008F4F9F4F9923A9F0F92F96E9BB27939519
:10160000F695879577956795B795F111F8CFFAF428
:10161000BB0F11F460FF1BC06F5F7F4F8F4F9F4F59
:1016200016C0882311F096E911C0772321F09EE8B7
:10163000872F762F05C0662371F096E8862F70E01D
:1016400060E02AF09A95660F771F881FDAF7880FF7
:101650009695879597F9089597F99F6780E870E0C8
:1016600060E008959FEF80EC089500240A94161618
:10167000170618060906089500240A941216130680
:10168000140605060895092E0394000C11F488230E
:1016900052F0BB0F40F4BF2B11F460FF04C06F5F2A
:1016A0007F4F8F4F9F4F089557FD9058440F551F00
:1016B00059F05F3F71F04795880F97FB991F61F0D4
:1016C0009F3F79F087950895121613061406551F4B
:1016D000F2CF4695F1DF08C0161617061806991FB7
:1016E000F1CF86957105610508940895E894BB27AC
:1016F00066277727CB0197F908950BD0C4CFB5DFC4
:1017000028F0BADF18F0952309F0A6CFABCF11244B
:10171000EECFCADFA0F3959FD1F3950F50E0551F90
:10172000629FF001729FBB27F00DB11D639FAA2736
:10173000F00DB11DAA1F649F6627B00DA11D661F85
:10174000829F2227B00DA11D621F739FB00DA11DA6
:10175000621F839FA00D611D221F749F3327A00D60
:10176000611D231F849F600D211D822F762F6A2FFC
:1017700011249F5750408AF0E1F088234AF0EE0F81
:10178000FF1FBB1F661F771F881F91505040A9F78E
:101790009E3F510570F060CFAACF5F3FECF3983EBB
:1017A000DCF3869577956795B795F795E7959F5FF5
:1017B000C1F7FE2B880F911D9695879597F908958F
:1017C000A1E21A2EAA1BBB1BFD010DC0AA1FBB1F45
:1017D000EE1FFF1FA217B307E407F50720F0A21BB7
:1017E000B30BE40BF50B661F771F881F991F1A9424
:1017F00069F760957095809590959B01AC01BD014E
:10180000CF010895EE0FFF1F881F8BBF0790F69141
:08181000E02D1994F894FFCFBC
:10181800FA0000000000060271019E015202CF0189
:10182800AD01C101000000008B0481049B04570432
:101838007A04670458040D0A006E6F204C696E65BF
:101848000073746F707065642E2E0077726974650A
:0E1858004D6F746F723A20002C20003B000090
:00000001FF
