:100000000C945D000C9485000C9485000C94850084
:100010000C9485000C9485000C9485000C9485004C
:100020000C9485000C9485000C9485000C9485003C
:100030000C9485000C9485000C9485000C9485002C
:100040000C940F050C9485000C94DD040C94B704FB
:100050000C9485000C9485000C9485000C9485000C
:100060000C9459050C948500000000080002010062
:100070000003040700000000000000000000000072
:10008000250028002B0000000000240027002A0083
:10009000040404040404040402020202020203032E
:1000A0000303030301020408102040800102040836
:1000B0001020010204081020780611241FBECFEF83
:1000C000D8E0DEBFCDBF11E0A0E0B1E0E2EBF6E1A9
:1000D00002C005900D92A636B107D9F722E0A6E638
:1000E000B1E001C01D92A83BB207E1F710E0CDE5F9
:1000F000D0E004C02197FE010E94510BCC35D107FE
:10010000C9F70E94B1060C94570B0C94000090E0C4
:10011000FC01EC55FF4F249180579F4FFC018491C7
:10012000882399F090E0880F991FFC01EA57FF4F50
:10013000A591B491FC01E458FF4F859194918FB73C
:10014000F894EC91E22BEC938FBF08950895CF9330
:10015000DF93AC01E0910102F09102023097F1F0DF
:10016000909100028091FF019817C0F090E0292F34
:1001700030E02617370754F4D901AA59BE4F240F8F
:10018000351FE90128812C939F5FF1CF1092000267
:100190006093FF01CB01DF91CF910994DF91CF9163
:1001A0000895AF92BF92CF92DF92EF92FF920F939A
:1001B0001F93CF93DF936C017B018B01040F151FFD
:1001C000EB015E01AE18BF08C017D10759F0699165
:1001D000D601ED91FC910190F081E02DC6010995C9
:1001E000892B79F7C501DF91CF911F910F91FF9076
:1001F000EF90DF90CF90BF90AF900895FC01538DAA
:10020000448D252F30E0842F90E0821B930B5417F0
:1002100010F0CF96089501970895FC01918D828D7D
:10022000981761F0A28DAE0FBF2FB11D5D968C9116
:10023000928D9F5F9F73928F90E008958FEF9FEF55
:100240000895FC01918D828D981731F0828DE80F11
:10025000F11D858D90E008958FEF9FEF0895FC01CB
:10026000918D228D892F90E0805C9F4F821B910998
:100270008F73992708958FE092E00E942F0121E06B
:10028000892B09F420E0822F089580E090E0892BEB
:1002900029F00E943B0181110C9400000895FC019B
:1002A000A48DA80FB92FB11DA35ABF4F2C91848DD7
:1002B00090E001968F739927848FA689B7892C9334
:1002C000A089B1898C91837080648C93938D848D87
:1002D000981306C00288F389E02D80818F7D80838A
:1002E0000895EF92FF920F931F93CF93DF93EC014A
:1002F00081E0888F9B8D8C8D98131AC0E889F989CD
:10030000808185FF15C09FB7F894EE89FF896083CF
:10031000E889F98980818370806480839FBF81E050
:1003200090E0DF91CF911F910F91FF90EF90089592
:10033000F62E0B8D10E00F5F1F4F0F731127E02E6D
:100340008C8D8E110CC00FB607FCFACFE889F989A5
:10035000808185FFF5CFCE010E944F01F1CFEB8D5B
:10036000EC0FFD2FF11DE35AFF4FF0829FB7F89479
:100370000B8FEA89FB8980818062CFCFCF93DF9397
:10038000EC01888D8823B9F0AA89BB89E889F989AD
:100390008C9185FD03C0808186FD0DC00FB607FCE2
:1003A000F7CF8C9185FFF2CF808185FFEDCFCE0115
:1003B0000E944F01E9CFDF91CF91089590E0FC01B9
:1003C000E859FF4F2491FC01EC55FF4F3491FC019B
:1003D000E057FF4FE491EE23C9F0222339F0233098
:1003E00001F1A8F4213019F1223029F1F0E0EE0FEB
:1003F000FF1FE458FF4FA591B4918FB7F894EC918B
:10040000611126C030953E233C938FBF089527305D
:10041000A9F02830C9F0243049F7809180008F7D01
:1004200003C0809180008F7780938000DFCF84B5F8
:100430008F7784BDDBCF84B58F7DFBCF8091B000FB
:100440008F778093B000D2CF8091B0008F7DF9CFAD
:100450003E2BDACF1F93CF93DF93182FEB010E942F
:100460008700209739F460E0812FDF91CF911F91B1
:100470000C94DE01CF3FD10511F461E0F5CFE12FFF
:10048000F0E0E859FF4FE491E33031F140F4E1301E
:10049000B1F0E230E1F0C038D1057CF7E4CFE730CD
:1004A00029F1E83059F1E430B1F7809180008062A1
:1004B00080938000D0938B00C0938A0004C084B5E1
:1004C000806884BDC7BDDF91CF911F91089584B529
:1004D000806284BDC8BDF7CF809180008068809322
:1004E0008000D0938900C0938800EDCF8091B00048
:1004F00080688093B000C093B300E5CF8091B000D6
:1005000080628093B000C093B400DDCF3FB7F89411
:100510008091F2019091F301A091F401B091F50165
:1005200026B5A89B05C02F3F19F00196A11DB11D4E
:100530003FBFBA2FA92F982F8827BC01CD01620F8A
:10054000711D811D911D42E0660F771F881F991F45
:100550004A95D1F7089585ED8093BC008091BC0049
:1005600084FDFCCF1092FC0108952091A601260F76
:100570003327331F21323105ECF42091FC01FC01BB
:1005800090E080E0243069F082E00895A091A60117
:100590002191AC014A575E4FA40FB52FB11D2C938A
:1005A0000196861798F38091A601680F6093A601C3
:1005B00080E0089581E008950895E091000280911F
:1005C000FF01E81730F4F0E0EA59FE4F808190E037
:1005D00008958FEF9FEF0895909100028091FF01A1
:1005E0002FEF3FEF981748F4E92FF0E0EA59FE4F5C
:1005F000208130E09F5F90930002C90108958091AF
:10060000FF0190910002891B990B0895CF93DF930E
:10061000CB01EA01642F0E94B502CE01DF91CF9198
:100620000895CF93DF931F92CDB7DEB7698361E062
:10063000CE0101960E94B50281E090E00F90DF911B
:10064000CF91089590E080E008958091FF0190910E
:100650000002891B990B029754F08CEA92E00E94E9
:10066000EC02682F8FE092E00E947101EECF8CEADD
:1006700092E00E94EC0290930101809300010895A2
:10068000FC0101900020E9F73197AF01481B590B9D
:10069000BC018FE092E00C94D100CF93DF930E94D5
:1006A0004003EC0186E291E00E9440038C0F9D1F05
:1006B000DF91CF91089580910001909101019C01FB
:1006C00021503109273C310548F484569109909313
:1006D00009028093080210920D020AC0813E910522
:1006E000D1F781E080930D0289E291E00E944003FE
:1006F00080910001909101018B3E910541F581E0CF
:1007000080930E0281E391E00E944D0370E060E06F
:1007100084E00E942A0270E060E085E00E942A02E4
:1007200070E060E086E00E942A0270E060E087E00E
:100730000E942A028091000190910101893C91055B
:1007400049F481E080930C02109207020895109200
:100750000E02F0CF10920C028A3C9105A9F781E0BD
:100760008093070208958F929F92AF92BF92CF928B
:10077000DF92EF92FF920F931F93CF93DF93CDB74A
:10078000DEB7A1970FB6F894DEBF0FBECDBF6C01E8
:10079000990FEE08FF08F7FE41C06DE28FE092E08E
:1007A0000E9471018C0122273327A9012C193D09D0
:1007B0004E095F0919A2CE0181967C019AE0892E2B
:1007C000912CA12CB12CCA01B901A50194010E9460
:1007D0002F0B605DF70162937F0121153105410503
:1007E000510589F790E080E0309719F0CF010E9421
:1007F0004003800F911FA1960FB6F894DEBF0FBE85
:10080000CDBFDF91CF911F910F91FF90EF90DF90BF
:10081000CF90BF90AF909F908F900895A7019601C1
:1008200019A28E010F5D1F4F8AE0C82ED12CE12C3A
:10083000F12CCA01B901A70196010E942F0B605D3E
:10084000F80162938F01211531054105510589F7A2
:1008500090E080E0309779F2CF010E944003CBCF47
:100860008F929F92AF92BF92CF92DF92EF92FF92C0
:100870000F931F93982E892ED62EC72E5A017901D9
:100880008BE391E00E944003892D982D0E94B303D1
:1008900088E491E00E9440038D2D9C2D0E94B303BB
:1008A00088E491E00E944003C5010E94B30388E4FC
:1008B00091E00E944003C7010E94B30388E491E0E5
:1008C0000E944003C8010E94B3038BE491E00E94A0
:1008D0004D03692D88E00E94DE01692D89E00E94A8
:1008E000DE016D2D8AE00E94DE016D2D8BE00E94FD
:1008F000DE01B50184E00E942A02B50185E00E9474
:100900002A02B70186E00E942A02B70187E00E940E
:100910002A026801110FEE08FF080E9486024B01AF
:100920005C010E948602681979098A099B09683E60
:10093000734081059105A8F321E0C21AD108E108AE
:10094000F10888EE880E83E0981EA11CB11CC1142A
:10095000D104E104F10429F71F910F91FF90EF906A
:10096000DF90CF90BF90AF909F908F9008951F928F
:100970000F920FB60F9211242F933F934F935F93D3
:100980006F937F938F939F93AF93BF93EF93FF9357
:100990008FE092E00E944F01FF91EF91BF91AF91E4
:1009A0009F918F917F916F915F914F913F912F9187
:1009B0000F900FBE0F901F9018951F920F920FB6B9
:1009C0000F9211242F938F939F93EF93FF93E091B6
:1009D0001F02F09120028081E0912502F091260211
:1009E00082FD1BC09081809128028F5F8F732091C0
:1009F0002902821741F0E0912802F0E0E15FFD4F0B
:100A0000958F80932802FF91EF919F918F912F9165
:100A10000F900FBE0F901F9018958081F4CF1F92FA
:100A20000F920FB60F9211242F933F938F939F93A2
:100A3000AF93BF938091EE019091EF01A091F001EF
:100A4000B091F1013091ED0123E0230F2D3758F5DE
:100A50000196A11DB11D2093ED018093EE019093AD
:100A6000EF01A093F001B093F1018091F201909118
:100A7000F301A091F401B091F5010196A11DB11D02
:100A80008093F2019093F301A093F401B093F501E8
:100A9000BF91AF919F918F913F912F910F900FBE7A
:100AA0000F901F90189526E8230F0296A11DB11DE7
:100AB000D2CF1F920F920FB60F9211242F933F9314
:100AC0004F935F936F937F938F939F93AF93BF9356
:100AD000EF93FF938091B900887F803609F44AC074
:100AE000F0F5883209F4A7C018F5803109F49BC0ED
:100AF000B8F4882309F4F9C0883009F494C0FF9150
:100B0000EF91BF91AF919F918F917F916F915F9185
:100B10004F913F912F910F900FBE0F901F901895FE
:100B2000883109F488C0803251F78093C90114C01C
:100B3000803409F49DC040F48033B9F38833F9F66A
:100B40008093C90185ECB0C0803509F485C0883533
:100B500009F496C0883499F60E94AB02D0CF883948
:100B600009F48CC038F5883729F050F4883611F034
:100B7000803729F683E08093FC011092C80157C0AA
:100B8000883809F47BC0803919F0803809F0B7CF74
:100B90008091C801803208F071C0E091C80181E005
:100BA0008E0F8093C8018091BB00F0E0E855FE4FA6
:100BB00080833DC0803B39F0E0F4803A09F479C08D
:100BC000883A09F09CCF84E08093FC011092A70141
:100BD0001092A601E091F801F091F9010995809138
:100BE000A60181110FC081E08093A60110928601B9
:100BF00009C0803C09F4A6CF883C09F4A3CF883B08
:100C000009F07DCFE091A70181E08E0F8093A701CD
:100C1000F0E0EA57FE4F80818093BB009091A701DE
:100C20008091A60129C08091EC018093BB0085ECE6
:100C30008093BC0064CF9091EB018091EA019817FA
:100C400058F5E091EB0181E08E0F8093EB01F0E02D
:100C5000E653FE4F8081E9CFE091EB0181E08E0FFA
:100C60008093EB018091BB00F0E0E653FE4F808360
:100C70009091EB018091EA019817C8F285E8D8CFEE
:100C8000E091EB0181E08E0F8093EB018091BB003E
:100C9000F0E0E653FE4F80838091FB0181115CCF31
:100CA00081E08093FA0184EA8093BC001092FC01F9
:100CB00026CF85EC8093BC001092FC018091C80186
:100CC000803230F4E091C801F0E0E855FE4F108228
:100CD0006091C80170E0E091F601F091F70188EAB7
:100CE00091E009951092C8010ACF1092C90134CF42
:100CF000EFE0F2E01382128288EE93E0A0E0B0E031
:100D000084839583A683B78326E031E031832083F3
:100D100025EC30E03587248724EC30E037872687C0
:100D200020EC30E0318B208B21EC30E0338B228BB8
:100D300022EC30E0358B248B26EC30E0378B268B91
:100D4000118E128E138E148EECEAF2E01382128250
:100D500084839583A683B78388E191E09183808320
:100D60000895789484B5826084BD84B5816084BD23
:100D700085B5826085BD85B5816085BD80916E0039
:100D8000816080936E00109281008091810082606A
:100D900080938100809181008160809381008091A7
:100DA00080008160809380008091B1008460809396
:100DB000B1008091B00081608093B00080917A0092
:100DC000846080937A0080917A00826080937A00B8
:100DD00080917A00816080937A0080917A008068A7
:100DE00080937A001092C100109200021092FF01CD
:100DF0001092FE011092FD011092FC0181E080939F
:100E0000FB011092FA0161E082E10E94DE0161E0E3
:100E100083E10E94DE018091B9008E7F8093B9004A
:100E20008091B9008D7F8093B90088E48093B800E9
:100E300085E48093BC0086EA90E09093F90180936A
:100E4000F80187EA90E09093F7018093F60188E03B
:100E50008093BA0085E293E09093020280930102AE
:100E6000E0911F02F091200282E08083E0911B025A
:100E7000F0911C021082E0911D02F0911E028FEC95
:100E8000808310922702E0912302F091240286E0F1
:100E90008083E0912102F091220280818061808331
:100EA000E0912102F0912202808188608083E091AC
:100EB0002102F0912202808180688083E0912102EA
:100EC000F091220280818F7D808384E00E948700E0
:100ED00085E00E94870086E00E94870087E00E94EC
:100EE000870088E00E94870089E00E9487008AE0EE
:100EF0000E9487008BE00E94870082E3E82EF12C9D
:100F000090E0A92E90E0B92ECC24CA94D12C0E9456
:100F10005B0380910E028111F8C10E945B03C091B6
:100F20000802D09109021C161D060CF0D7C0BE01A4
:100F30000D2E000C880B990B0E94360A2B013C01E8
:100F40002DEC3CEC4CE45EE30E94C20A20E030E071
:100F500048E452E40E94920920E030E0A9010E9496
:100F600092090E94FE0970930602609305022AE925
:100F700039E949E95FE3C301B2010E94C20A9B015A
:100F8000AC0160E070E088E492E40E94910920E006
:100F900030E0A9010E9492090E94FE0970930402A8
:100FA00060930302809105029091060297FFBEC0F4
:100FB0001092060210920502CD2B41F4F092060227
:100FC000E0920502F0920402E09203028091030293
:100FD0009091040297FFB4C0109204021092030291
:100FE00060E088E00E94DE0160E08AE00E94DE01AD
:100FF00060E089E00E94DE0160E08BE00E94DE019B
:10100000C0910502D0910602D7FF02C0C1E0D0E036
:1010100000910302109104024E01380117FF06C02F
:1010200088248394912C66246394712CC4010E94BB
:10103000B30386E291E00E944003BE0184E00E9477
:101040002A02B40185E00E942A02B80186E00E94CB
:101050002A02B30187E00E942A028091080290913F
:1010600009020E94B30388E491E00E94400380914A
:101070000502909106020E94B30388E491E00E9469
:10108000400380910302909104020E94B3038BE419
:1010900091E00E944D0380910D02882309F45AC00B
:1010A0000CE211E026E430E046E450E070E060E05D
:1010B00090E080E00E9430040E945B0380910D026A
:1010C000882309F447C001E010E026E430E046E45C
:1010D00050E061E070E081E090E0ECCF209709F40F
:1010E00061CFBE010D2E000C880B990B0E94360AB1
:1010F0002B013C012AE939E949E95FE30E94C20A70
:1011000020E030E048E452E40E94920920E030E020
:10111000A9010E9492090E94FE0970930602609341
:1011200005022DEC3CEC4CE45EE325CF8F3F9105AE
:1011300009F00CF441CFD0920602C09205023CCFD8
:101140008F3F910509F00CF44BCFD0920402C0926E
:10115000030246CF80910C02882309F445C0109207
:101160000B0210920A028DE491E00E944D0300E907
:1011700011E026E430E046E450E070E060E090E00A
:1011800080E00E9430048091080290910902823E22
:101190009F4F54F50AE010E026E430E046E450E0CA
:1011A00070E060E081E090E00E9430040E945B0308
:1011B00080910A0290910B02019690930B0280930A
:1011C0000A02CC9704F300ED17E030E020E050E095
:1011D00040E070E060E090E080E00E943004109217
:1011E0000B0210920A02CFCF80910702882309F4E4
:1011F00044C010920B0210920A0289E591E00E940D
:101200004D0300E911E026E430E046E450E070E0F0
:1012100060E090E080E00E943004809108029091AC
:1012200009024F9754F10AE010E026E430E046E46A
:1012300050E061E070E090E080E00E9430040E94A5
:101240005B0380910A0290910B02019690930B022E
:1012500080930A02CC970CF300ED17E030E020E019
:1012600050E040E070E060E090E080E00E943004F8
:1012700010920B0210920A02D0CF80910802909136
:1012800009028A3B9F4FE4F480910D02811118C03E
:1012900002E310E026E430E046E450E061E070E074
:1012A00081E090E00E9430040CE211E026E430E09E
:1012B00046E450E070E060E081E090E00E9430049D
:1012C0008091080290910902873491050CF421CE97
:1012D00080910D0281111DCE02E310E026E430E082
:1012E00046E450E061E070E081E090E00E9430046C
:1012F0000CE211E026E430E046E450E061E070E00A
:1013000090E080E00E94300404CEA114B10409F4FE
:10131000FECD0E943B01882309F4F9CD0E94000014
:10132000F6CD5058BB27AA270E94A9090C94880A19
:101330000E947A0A38F00E94810A20F039F49F3F17
:1013400019F426F40C94770A0EF4E095E7FB0C945C
:10135000710AE92F0E94990A58F3BA1762077307B6
:101360008407950720F079F4A6F50C94BB0A0EF4D7
:10137000E0950B2EBA2FA02D0B01B90190010C01A5
:10138000CA01A0011124FF27591B99F0593F50F4BD
:10139000503E68F11A16F040A22F232F342F442715
:1013A000585FF3CF469537952795A795F04053950D
:1013B000C9F77EF41F16BA0B620B730B840BBAF0DD
:1013C0009150A1F0FF0FBB1F661F771F881FC2F748
:1013D0000EC0BA0F621F731F841F48F4879577955C
:1013E0006795B795F7959E3F08F0B0CF9395880F16
:1013F00008F09927EE0F9795879508950E94050AA2
:101400006894B1110C94BC0A08950E94A10A88F056
:101410009F5798F0B92F9927B751B0F0E1F0660FB8
:10142000771F881F991F1AF0BA95C9F714C0B130F9
:1014300091F00E94BB0AB1E008950C94BB0A672F9B
:10144000782F8827B85F39F0B93FCCF38695779528
:101450006795B395D9F73EF4909580957095619511
:101460007F4F8F4F9F4F0895E89409C097FB3EF43C
:1014700090958095709561957F4F8F4F9F4F9923E1
:10148000A9F0F92F96E9BB279395F695879577955F
:101490006795B795F111F8CFFAF4BB0F11F460FF1F
:1014A0001BC06F5F7F4F8F4F9F4F16C0882311F077
:1014B00096E911C0772321F09EE8872F762F05C08B
:1014C000662371F096E8862F70E060E02AF09A9526
:1014D000660F771F881FDAF7880F9695879597F91B
:1014E000089597F99F6780E870E060E008959FEFA6
:1014F00080EC089500240A941616170618060906AB
:10150000089500240A941216130614060506089579
:10151000092E0394000C11F4882352F0BB0F40F401
:10152000BF2B11F460FF04C06F5F7F4F8F4F9F4F41
:10153000089557FD9058440F551F59F05F3F71F0C3
:101540004795880F97FB991F61F09F3F79F087952A
:101550000895121613061406551FF2CF4695F1DFB3
:1015600008C0161617061806991FF1CF8695710543
:10157000610508940895E894BB2766277727CB0177
:1015800097F908950E94D50A0C94880A0E947A0A55
:1015900038F00E94810A20F0952311F00C94710A12
:1015A0000C94770A11240C94BC0A0E94990A70F3D7
:1015B000959FC1F3950F50E0551F629FF001729FF8
:1015C000BB27F00DB11D639FAA27F00DB11DAA1F07
:1015D000649F6627B00DA11D661F829F2227B00D54
:1015E000A11D621F739FB00DA11D621F839FA00DDF
:1015F000611D221F749F3327A00D611D231F849F2F
:10160000600D211D822F762F6A2F11249F57504085
:101610009AF0F1F088234AF0EE0FFF1FBB1F661F00
:10162000771F881F91505040A9F79E3F510580F0C9
:101630000C94710A0C94BC0A5F3FE4F3983ED4F317
:10164000869577956795B795F795E7959F5FC1F76D
:10165000FE2B880F911D9695879597F90895A1E225
:101660001A2EAA1BBB1BFD010DC0AA1FBB1FEE1F1C
:10167000FF1FA217B307E407F50720F0A21BB30B67
:10168000E40BF50B661F771F881F991F1A9469F7E3
:1016900060957095809590959B01AC01BD01CF013F
:1016A0000895EE0FFF1F0590F491E02D0994F89432
:0216B000FFCF6A
:1016B200FA00000000007101D100FE00BE012F01FE
:1016C2000D01210100000000110306032203DC02C8
:1016D200FF02EC02DD020D0A006E6F204C696E659E
:1016E2000073746F707065642E2E00777269746572
:1016F2004D6F746F723A20002C20003B00636F72B2
:101702006E65724C6566742E00636F726E657252FE
:06171200696768742E00F7
:107E0000112484B714BE81FFF0D085E080938100F7
:107E100082E08093C00088E18093C10086E0809377
:107E2000C20080E18093C4008EE0C9D0259A86E02C
:107E300020E33CEF91E0309385002093840096BBD3
:107E4000B09BFECF1D9AA8958150A9F7CC24DD24C4
:107E500088248394B5E0AB2EA1E19A2EF3E0BF2EE7
:107E6000A2D0813461F49FD0082FAFD0023811F036
:107E7000013811F484E001C083E08DD089C08234E0
:107E800011F484E103C0853419F485E0A6D080C0E4
:107E9000853579F488D0E82EFF2485D0082F10E0AE
:107EA000102F00270E291F29000F111F8ED06801E7
:107EB0006FC0863521F484E090D080E0DECF843638
:107EC00009F040C070D06FD0082F6DD080E0C81688
:107ED00080E7D80618F4F601B7BEE895C0E0D1E017
:107EE00062D089930C17E1F7F0E0CF16F0E7DF06D8
:107EF00018F0F601B7BEE89568D007B600FCFDCFD4
:107F0000A601A0E0B1E02C9130E011968C91119780
:107F100090E0982F8827822B932B1296FA010C0160
:107F200087BEE89511244E5F5F4FF1E0A038BF0790
:107F300051F7F601A7BEE89507B600FCFDCF97BE46
:107F4000E89526C08437B1F42ED02DD0F82E2BD052
:107F50003CD0F601EF2C8F010F5F1F4F84911BD097
:107F6000EA94F801C1F70894C11CD11CFA94CF0C13
:107F7000D11C0EC0853739F428D08EE10CD085E9AC
:107F80000AD08FE07ACF813511F488E018D01DD067
:107F900080E101D065CF982F8091C00085FFFCCF94
:107FA0009093C60008958091C00087FFFCCF809118
:107FB000C00084FD01C0A8958091C6000895E0E648
:107FC000F0E098E1908380830895EDDF803219F02E
:107FD00088E0F5DFFFCF84E1DECF1F93182FE3DFCA
:107FE0001150E9F7F2DF1F91089580E0E8DFEE27F6
:047FF000FF270994CA
:027FFE00040479
:0400000300007E007B
:00000001FF
