:10000000F5C0000023C1000021C100001FC1000095
:100010001DC100001BC1000019C1000017C1000074
:1000200015C1000013C1000011C100000FC1000084
:100030000DC100000BC1000009C1000007C1000094
:1000400005C1000003C1000001C10000FFC00000A5
:10005000FDC00000FBC00000F9C0000012C6000097
:10006000F5C00000D8C50000ADC50000EFC000001D
:10007000EDC00000EBC00000E9C00000E7C00000D8
:10008000E5C00000E3C00000E1C00000DFC00000E8
:10009000DDC00000DBC00000D9C000003CC600008D
:1000A000D5C00000D3C00000D1C00000CFC0000008
:1000B000CDC00000CBC00000C9C00000C7C0000018
:1000C000C5C00000C3C00000C1C00000BFC0000028
:1000D000BDC00000BBC00000B9C00000B7C0000038
:1000E000B5C0000000000A0B02090C0D0E08070342
:1000F00004010000000000000000000000000000FB
:1001000000000000000000000000000000000000EF
:1001100012111000000000000000000000000000AC
:100120000000000000000000000000002200250088
:1001300028002B002E0031003400020100000501D0
:1001400008010B0100002100240027002A002D00D7
:100150003000330001010000040107010A01050518
:100160000505070508080808020202020A0A08082D
:10017000040404040101010101010101030303035B
:1001800003030303040707070C0C0C0C0C0C0C0CEA
:100190000202020206060606060606060B0B0B0BFB
:1001A0000B0B0B0B01021020200808102040102020
:1001B000408002010201080402010102040810202B
:1001C0004080804020100804020180040201804029
:1001D0002010080402010804020101020408102092
:1001E00040800102040810204080AE0711241FBE89
:1001F000CFEFD1E2DEBFCDBF00E00CBF12E0A0E048
:10020000B2E0E2E4F9E100E00BBF02C007900D921A
:10021000A638B107D9F723E0A6E8B2E001C01D92E5
:10022000AA3DB207E1F710E0C6EFD0E000E006C05B
:1002300021970109802FFE010E94970CC53FD1072D
:1002400080E00807A9F7C3D60C949F0CD9CE90E0A4
:10025000FC01EC55FE4F2491825A9E4FFC01849183
:10026000882399F090E0880F991FFC01EC5BFE4F0A
:10027000A591B491FC01E65DFE4F859194918FB7F5
:10028000F894EC91E22BEC938FBF08950895CF93EF
:10029000DF93AC01E0912103F09122033097F1F05C
:1002A0009091200380911F039817C0F090E0292FB0
:1002B00030E02617370754F4D901AA57BD4F240F51
:1002C000351FE90128812C939F5FF1CF1092200305
:1002D00060931F03CB01DF91CF911994DF91CF91F0
:1002E0000895AF92BF92CF92DF92EF92FF920F9359
:1002F0001F93CF93DF936C017B018B01040F151FBC
:10030000EB015E01AE18BF08C017D10759F0699123
:10031000D601ED91FC910190F081E02DC601199577
:10032000892B79F7C501DF91CF911F910F91FF9034
:10033000EF90DF90CF90BF90AF900895FC01538D68
:10034000448D252F30E0842F90E0821B930B5417AF
:1003500010F0CF96089501970895FC01918D828D3C
:10036000981761F0A28DAE0FBF2FB11D5D968C91D5
:10037000928D9F5F9F73928F90E008958FEF9FEF14
:100380000895FC01918D828D981731F0828DE80FD0
:10039000F11D858D90E008958FEF9FEF0895FC018A
:1003A000918D228D892F90E0805C9F4F821B910957
:1003B0008F739927089581E393E0F1DF21E0892B82
:1003C00009F420E0822F0895FC01A48DA80FB92F15
:1003D000B11DA35ABF4F2C91848D90E001968F736D
:1003E0009927848FA689B7892C93A089B1898C918C
:1003F000837080648C93938D848D981306C00288DB
:10040000F389E02D80818F7D80830895EF92FF92A4
:100410000F931F93CF93DF93EC0181E0888F9B8D27
:100420008C8D98131AC0E889F989808185FF15C0E1
:100430009FB7F894EE89FF896083E889F989808104
:100440008370806480839FBF81E090E0DF91CF91D3
:100450001F910F91FF90EF900895F62E0B8D10E0F5
:100460000F5F1F4F0F731127E02E8C8D8E110BC065
:100470000FB607FCFACFE889F989808185FFF5CFAF
:10048000CE01A2DFF2CFEB8DEC0FFD2FF11DE35A71
:10049000FF4FF0829FB7F8940B8FEA89FB89808128
:1004A0008062D0CFCF93DF93EC01888D8823B1F0A9
:1004B000AA89BB89E889F9898C9185FD03C080816F
:1004C00086FD0CC00FB607FCF7CF8C9185FFF2CFED
:1004D000808185FFEDCFCE0177DFEACFDF91CF912D
:1004E000089580E090E0892B21F065DF81110E9462
:1004F000000080E090E0892B49F080E090E0892BBB
:1005000029F00E94000081110E94000080E090E02C
:10051000892B49F080E090E0892B29F00E940000AF
:1005200081110E94000080E090E0892B49F080E07A
:1005300090E0892B29F00E94000081110C940000AA
:100540000895282F30E0F901EC51FF4F9491F90103
:10055000EC55FE4F4491225A3E4FF901249122233B
:1005600009F435C0992311F191509231F8F4E92F33
:10057000F0E08827E154FD4F8F4F0C94970CF00268
:10058000F402D102E802EC02D602F702FD020103F6
:1005900007030B030F0315031903D6021D032303DF
:1005A0002703809180008F7780938000E22FF0E016
:1005B000EE0FFF1FE65DFE4FA591B4918FB7F89443
:1005C000EC91611148C040954E234C938FBF089524
:1005D000809180008F7DE8CF80918000877FE4CF7D
:1005E00084B58F7784BDE2CF84B58F7DFBCF8091BA
:1005F000B0008F778093B000D9CF8091B0008F7D0D
:10060000F9CF809190008F7780939000CFCF809129
:1006100090008F7DF9CF80919000877FF5CF8091FA
:10062000A0008F778093A000C1CF8091A0008F7D24
:10063000F9CF8091A000877FF5CF809120018F773F
:1006400080932001B3CF809120018F7DF9CF8091DD
:100650002001877FF5CF4E2BB8CF1F93CF93DF9329
:10066000182FEB01F4DD209731F460E0812FDF914A
:10067000CF911F9166CFCF3FD10511F461E0F6CF46
:10068000E12FF0E0EC51FF4FE491E150E23108F04E
:10069000B3C0F0E08827E05BFC4F8F4F0C94970CC1
:1006A00062036A036F0379038303FC038D039503DD
:1006B0009D03A703B103BB03CA03D403FC03DE03FA
:1006C000E803F20384B5806884BDC7BDDF91CF9194
:1006D0001F91089584B5806284BDC8BDF7CF809115
:1006E0008000806880938000D0938900C093880048
:1006F000EDCF80918000806280938000D0938B004A
:10070000C0938A00E3CF809180008860809380004E
:10071000D0938D00C0938C00D9CF8091B0008068B9
:100720008093B000C093B300D1CF8091B0008062BD
:100730008093B000C093B400C9CF809190008068CE
:1007400080939000D0939900C0939800BFCF809180
:100750009000806280939000D0939B00C0939A0099
:10076000B5CF80919000886080939000D0939D00D9
:10077000C0939C00ABCF8091A00080688093A000C4
:100780008091A0008F7B8093A000D093A900C0939C
:10079000A8009CCF8091A00080628093A000D0939D
:1007A000AB00C093AA0092CF8091A0008860809394
:1007B000A000D093AD00C093AC0088CF8091200101
:1007C000806880932001D0932901C09328017ECFB7
:1007D00080912001806280932001D0932B01C093EF
:1007E0002A0174CF80912001886080932001D093EA
:1007F0002D01C0932C016ACFC038D1050CF03ECF3B
:1008000034CF3FB7F8948091120390911303A091D5
:100810001403B091150326B5A89B05C02F3F19F00E
:100820000196A11DB11D3FBFBA2FA92F982F882770
:10083000BC01CD01620F711D811D911D42E0660F4B
:10084000771F881F991F4A95D1F7089585ED8093EA
:10085000BC008091BC0084FDFCCF10921C03089565
:100860002091C602260F3327331F21323105ECF4C5
:1008700020911C03FC0190E080E0243069F082E0CC
:100880000895A091C6022191AC014A555D4FA40F75
:10089000B52FB11D2C930196861798F38091C6024F
:1008A000680F6093C60280E0089581E0089508957E
:1008B000E091200380911F03E81730F4F0E0EA573D
:1008C000FD4F808190E008958FEF9FEF0895909104
:1008D000200380911F032FEF3FEF981748F4E92F73
:1008E000F0E0EA57FD4F208130E09F5F90932003B6
:1008F000C901089580911F0390912003891B990BD2
:100900000895CF93DF93CB01EA01642FA9DFCE01D5
:10091000DF91CF910895CF93DF931F92CDB7DEB7CC
:10092000698361E0CE0101969BDF81E090E00F904A
:10093000DF91CF91089590E080E0089580911F03AA
:1009400090912003891B990B029744F08EEC93E061
:10095000BEDF682F81E393E059DDF0CF8EEC93E0AA
:10096000B6DF90930102809300020895FC0101908C
:100970000020E9F73197AF01481B590BBC0181E317
:1009800093E0AFCCCF93DF93F1DFEC0186E292E00E
:10099000EDDF8C0F9D1FDF91CF91089580910002B4
:1009A000909101029C0121503109273C310548F406
:1009B0008456910990932D0380932C031092300359
:1009C00009C0813E9105D1F781E08093300389E22F
:1009D00092E0CCDF80910002909101028B3E910564
:1009E00099F481E392E0CEDF70E060E084E035DEF0
:1009F00070E060E085E031DE70E060E086E02DDEF2
:100A000070E060E087E029DE8091000290910102B1
:100A10008E3C910581F410922F03803D9105A1F049
:100A200010922B03893C910591F481E080932A0375
:100A300010922703089510922F038F3C910559F7C8
:100A400021E020932E03ECCF21E020932B03109282
:100A50002A038A3C910561F781E08093270308957A
:100A6000CF92DF92EF92FF920F931F93CF93DF937A
:100A7000CDB7DEB7A1970FB6F894DEBF0FBECDBFDE
:100A80009C01990F440B550B19A28E010F5D1F4F4E
:100A90008AE0C82ED12CE12CF12CCA01B901A701A2
:100AA000960123D7605DF80162938F01211531050E
:100AB0004105510591F790E080E0309711F0CF01AA
:100AC00055DFA1960FB6F894DEBF0FBECDBFDF9104
:100AD000CF911F910F91FF90EF90DF90CF900895ED
:100AE0008F929F92AF92BF92CF92DF92EF92FF923E
:100AF0000F931F93982E892ED62EC72E5A01790157
:100B00008BE392E033DF892D982DAADF88E492E011
:100B10002DDF8D2D9C2DA4DF88E492E027DFC50119
:100B20009FDF88E492E022DFC7019ADF88E492E049
:100B30001DDFC80195DF8BE492E024DF692D88E09A
:100B400000DD692D89E0FDDC6D2D8AE0FADC6D2D7C
:100B50008BE0F7DCB50184E080DDB50185E07DDD6B
:100B6000B70186E07ADDB70187E077DD6801110F14
:100B7000EE08FF0846DE4B015C0143DE6819790987
:100B80008A099B09683E734081059105B0F321E015
:100B9000C21AD108E108F10888EE880E83E0981E99
:100BA000A11CB11CC114D104E104F10431F71F915F
:100BB0000F91FF90EF90DF90CF90BF90AF909F90FC
:100BC0008F9008951F920F920FB60F9211240BB6BB
:100BD0000F922F933F934F935F936F937F938F93D6
:100BE0009F93AF93BF93EF93FF9381E393E0ECDB8D
:100BF000FF91EF91BF91AF919F918F917F916F91F5
:100C00005F914F913F912F910F900BBE0F900FBEB0
:100C10000F901F9018951F920F920FB60F921124EC
:100C20000BB60F922F938F939F93EF93FF93E091C7
:100C30004103F09142038081E0914703F091480322
:100C400082FD1DC0908180914A038F5F8F73209138
:100C50004B03821741F0E0914A03F0E0EF5CFC4F58
:100C6000958F80934A03FF91EF919F918F912F91E0
:100C70000F900BBE0F900FBE0F901F9018958081A4
:100C8000F2CF1F920F920FB60F9211242F933F9322
:100C90008F939F93AF93BF9380910E0390910F0317
:100CA000A0911003B091110330910D0323E0230FA5
:100CB0002D3758F50196A11DB11D20930D0380938A
:100CC0000E0390930F03A0931003B0931103809130
:100CD000120390911303A0911403B0911503019690
:100CE000A11DB11D8093120390931303A0931403CD
:100CF000B0931503BF91AF919F918F913F912F9129
:100D00000F900FBE0F901F90189526E8230F0296A4
:100D1000A11DB11DD2CF1F920F920FB60F921124B9
:100D20000BB60F922F933F934F935F936F937F93E5
:100D30008F939F93AF93BF93EF93FF938091B900ED
:100D4000887F803609F44CC008F03FC0883209F42F
:100D5000A8C028F5803109F49CC0C8F4882309F4A0
:100D6000FAC0883009F495C0FF91EF91BF91AF911F
:100D70009F918F917F916F915F914F913F912F91B3
:100D80000F900BBE0F900FBE0F901F9018958831DB
:100D900009F487C0803241F78093E90214C080349F
:100DA00009F49CC040F48033B9F38833E9F68093AA
:100DB000E90285ECAFC0803509F484C0883509F4B8
:100DC00095C0883489F642DDCFCF883909F48CC0CC
:100DD00038F5883729F050F4883611F0803721F63D
:100DE00083E080931C031092E80257C0883809F40E
:100DF0007BC0803919F0803809F0B6CF8091E802C5
:100E0000803208F071C0E091E80281E08E0F80939B
:100E1000E8028091BB00F0E0E853FD4F80833DC0C5
:100E2000803B39F0E0F4803A09F479C0883A09F05F
:100E30009BCF84E080931C031092C7021092C602DD
:100E4000E0911803F091190319958091C602811160
:100E50000FC081E08093C6021092A60209C0803CB8
:100E600009F4A7CF883C09F4A4CF883B09F07CCFD4
:100E7000E091C70281E08E0F8093C702F0E0EA554F
:100E8000FD4F80818093BB009091C7028091C60284
:100E900029C080910C038093BB0085EC8093BC003B
:100EA00063CF90910B0380910A03981758F5E09156
:100EB0000B0381E08E0F80930B03F0E0E651FD4FB2
:100EC0008081E9CFE0910B0381E08E0F80930B03CB
:100ED0008091BB00F0E0E651FD4F808390910B03C1
:100EE00080910A039817C8F285E8D8CFE0910B03E8
:100EF00081E08E0F80930B038091BB00F0E0E65100
:100F0000FD4F808380911B0381115DCF81E0809331
:100F10001A0384EA8093BC0010921C0325CF85EC51
:100F20008093BC0010921C038091E802803230F460
:100F3000E091E802F0E0E853FD4F10826091E80292
:100F400070E0E0911603F091170388EC92E0199598
:100F50001092E80209CF1092E90235CFE1E3F3E005
:100F60001382128288EE93E0A0E0B0E08483958340
:100F7000A683B78326E032E03183208325EC30E07E
:100F80003587248724EC30E03787268720EC30E053
:100F9000318B208B21EC30E0338B228B22EC30E044
:100FA000358B248B26EC30E0378B268B118E128EFE
:100FB000138E148EEEECF3E01382128284839583F9
:100FC000A683B78388E192E0918380830895789423
:100FD00084B5826084BD84B5816084BD85B582603E
:100FE00085BD85B5816085BD80916E0081608093EF
:100FF0006E00109281008091810082608093810058
:101000008091810081608093810080918000816067
:10101000809380008091B10084608093B1008091C2
:10102000B00081608093B0008091910082608093D5
:101030009100809191008160809391008091900057
:101040008160809390008091A10082608093A100D4
:101050008091A10081608093A1008091A0008160B7
:101060008093A00080912101826080932101809172
:101070002101816080932101809120018160809312
:10108000200180917A00846080937A0080917A00B8
:10109000826080937A0080917A00816080937A00E8
:1010A00080917A00806880937A001092C10010923B
:1010B000200310921F0310921E0310921D03109222
:1010C0001C0381E080931B0310921A0361E084E10A
:1010D00038DA61E085E135DA8091B9008E7F80935E
:1010E000B9008091B9008D7F8093B90088E4809326
:1010F000B80085E48093BC0086E491E090931903E6
:101100008093180387E491E090931703809316036C
:1011100088E08093BA008EE994E090932203809354
:101120002103E0914103F091420382E08083E0914A
:101130003D03F0913E031082E0913F03F0914003A4
:101140008FEC808310924903E0914503F0914603B0
:1011500086E08083E0914303F091440380818061C5
:101160008083E0914303F091440380818860808311
:10117000E0914303F0914403808180688083E09193
:101180004303F091440380818F7D80838DE492E05E
:10119000F9DB84E05CD885E05AD886E058D887E04F
:1011A00056D888E054D889E052D88AE050D88BE0ED
:1011B0004ED8F4DBEE24EA94F12C92E3C92ED12C24
:1011C000EDDBC0912C03D0912D031C161D060CF0F5
:1011D0009DC0BE010D2E000C880B990B97D24B01C0
:1011E0005C012DEC3CEC4CE45EE31CD320E030E0F1
:1011F00048E452E4F4D120E030E0A901F0D153D228
:1012000070932603609325032AE939E949E95FE3EE
:10121000C501B40107D39B01AC0160E070E088E434
:1012200092E4DCD120E030E0A901D9D13CD2709326
:10123000240360932303809125039091260397FF55
:1012400088C01092260310922503CD2B41F4D09232
:101250002603C0922503D0922403C09223038091D9
:1012600023039091240397FF7EC0109224031092D1
:10127000230360E088E065D960E08AE062D960E03D
:1012800089E05FD960E08BE05CD9609125037091C3
:10129000260377FF02C061E070E0C0912303D09184
:1012A00024035B018E01D7FF05C0AA24A394B12CAF
:1012B00001E010E084E0D1D9B50185E0CED9BE01CE
:1012C00086E0CBD9B80187E0C8D980913003882364
:1012D00009F453C00CE211E026E430E046E450E0AB
:1012E00070E060E090E080E0FBDB58DB8091300351
:1012F000882309F442C001E010E026E430E046E42F
:1013000050E061E070E081E090E0EECF209709F4DA
:1013100092CFBE010D2E000C880B990BF7D14B011B
:101320005C012AE939E949E95FE37CD220E030E059
:1013300048E452E454D120E030E0A90150D1B3D1C7
:1013400070932603609325032DEC3CEC4CE45EE3A4
:101350005FCF8F3F910509F00CF477CFF092260311
:10136000E092250372CF8F3F910509F00CF481CFF5
:10137000F0922403E09223037CCF80912F038823F3
:1013800081F08AE592E0FEDA08EE13E021E030E039
:1013900041E050E070E060E090E080E0A1DB10927E
:1013A0002F0380912E03882309F437C080E692E052
:1013B000E9DA00E911E026E430E046E450E070E0CC
:1013C00060E090E080E08CDB82E692E0DBDA00EB2C
:1013D00014E026E430E046E450E061E070E090E0A4
:1013E00080E07EDB80912C0390912D034F9784F059
:1013F00084E692E0C7DA0AE010E026E430E046E452
:1014000050E061E070E090E080E06ADBC7DAEACFAC
:1014100086E692E0B7DA10922E0380912B038823A0
:1014200081F088E692E0AEDA08EE13E021E030E0E9
:1014300041E050E070E060E090E080E051DB10922D
:101440002B0380912A03882309F440C010922903BA
:10145000109228038DE692E095DA00E911E026E487
:1014600030E046E450E070E060E090E080E038DB9F
:1014700080912C0390912D03823E9F4F3CF50AE012
:1014800010E026E430E046E450E070E060E081E007
:1014900090E026DB83DA809128039091290301965E
:1014A0009093290380932803CC9714F300ED17E061
:1014B00030E020E050E040E070E060E090E080E06C
:1014C0000FDB1092290310922803D2CF80912703BB
:1014D000882309F43FC0109229031092280389E75A
:1014E00092E050DA00E911E026E430E046E450E012
:1014F00070E060E090E080E0F3DA80912C0390915E
:101500002D034F973CF10AE010E026E430E046E47A
:1015100050E061E070E090E080E0E2DA3FDA809154
:10152000280390912903019690932903809328031F
:10153000CC971CF300ED17E030E020E050E040E0F5
:1015400070E060E090E080E0CBDA10922903109226
:101550002803D3CF80912C0390912D038A3B9F4F7A
:10156000D4F480913003811116C002E310E026E428
:1015700030E046E450E061E070E081E090E0B0DA15
:1015800008E111E026E430E046E450E070E060E07D
:1015900081E090E0A5DA80912C0390912D038734AF
:1015A00091050CF40DCE80913003811109CE02E338
:1015B00010E026E430E046E450E061E070E081E0D5
:1015C00090E08EDA08E111E026E430E046E450E0F5
:1015D00061E070E090E080E083DAF2CD5058BB2704
:1015E000AA270ED0E5C0D6D030F0DBD020F031F401
:1015F0009F3F11F41EF4CBC00EF4E095E7FBC1C091
:10160000E92FE7D080F3BA176207730784079507BD
:1016100018F071F49EF5FFC00EF4E0950B2EBA2F72
:10162000A02D0B01B90190010C01CA01A0011124E8
:10163000FF27591B99F0593F50F4503E68F11A1694
:10164000F040A22F232F342F4427585FF3CF469525
:1016500037952795A795F0405395C9F77EF41F1647
:10166000BA0B620B730B840BBAF09150A1F0FF0F11
:10167000BB1F661F771F881FC2F70EC0BA0F621FFD
:10168000731F841F48F4879577956795B795F795ED
:101690009E3F08F0B3CF9395880F08F09927EE0F7F
:1016A00097958795089504D06894B111B5C00895B1
:1016B00098D088F09F5790F0B92F9927B751A0F094
:1016C000D1F0660F771F881F991F1AF0BA95C9F7D6
:1016D00012C0B13081F09FD0B1E008959CC0672F57
:1016E000782F8827B85F39F0B93FCCF38695779586
:1016F0006795B395D9F73EF490958095709561956F
:101700007F4F8F4F9F4F0895E89409C097FB3EF499
:1017100090958095709561957F4F8F4F9F4F99233E
:10172000A9F0F92F96E9BB279395F69587957795BC
:101730006795B795F111F8CFFAF4BB0F11F460FF7C
:101740001BC06F5F7F4F8F4F9F4F16C0882311F0D4
:1017500096E911C0772321F09EE8872F762F05C0E8
:10176000662371F096E8862F70E060E02AF09A9583
:10177000660F771F881FDAF7880F9695879597F978
:10178000089597F99F6780E870E060E008959FEF03
:1017900080EC089500240A94161617061806090608
:1017A000089500240A9412161306140605060895D7
:1017B000092E0394000C11F4882352F0BB0F40F45F
:1017C000BF2B11F460FF04C06F5F7F4F8F4F9F4F9F
:1017D000089557FD9058440F551F59F05F3F71F021
:1017E0004795880F97FB991F61F09F3F79F0879588
:1017F0000895121613061406551FF2CF4695F1DF11
:1018000008C0161617061806991FF1CF86957105A0
:10181000610508940895E894BB2766277727CB01D4
:1018200097F908950BD0C4CFB5DF28F0BADF18F0D0
:10183000952309F0A6CFABCF1124EECFCADFA0F3DA
:10184000959FD1F3950F50E0551F629FF001729F55
:10185000BB27F00DB11D639FAA27F00DB11DAA1F74
:10186000649F6627B00DA11D661F829F2227B00DC1
:10187000A11D621F739FB00DA11D621F839FA00D4C
:10188000611D221F749F3327A00D611D231F849F9C
:10189000600D211D822F762F6A2F11249F575040F3
:1018A0008AF0E1F088234AF0EE0FFF1FBB1F661F8E
:1018B000771F881F91505040A9F79E3F510570F047
:1018C00060CFAACF5F3FECF3983EDCF38695779527
:1018D0006795B795F795E7959F5FC1F7FE2B880F42
:1018E000911D9695879597F90895A1E21A2EAA1B46
:1018F000BB1BFD010DC0AA1FBB1FEE1FFF1FA217C0
:10190000B307E407F50720F0A21BB30BE40BF50BBC
:10191000661F771F881F991F1A9469F76095709545
:10192000809590959B01AC01BD01CF010895EE0F0C
:10193000FF1F881F8BBF0790F691E02D1994F89434
:02194000FFCFD7
:10194200FA0000000000060271019E015202CF015E
:10195200AD01C101000000008B0481049B04570407
:101962007A04670458040D0A006E6F204C696E6594
:101972000073746F707065642E2E007772697465DF
:101982004D6F746F723A20002C20003B0048656C4A
:101992006C6F20576F726C6421006C696E6B730000
:1019A2003100320033003400626F746800636F727A
:1019B2006E65724C6566742E00636F726E6572524C
:0619C200696768742E0045
:00000001FF
