:10000000F5C0000023C1000021C100001FC1000095
:100010001DC100001BC1000019C1000017C1000074
:1000200015C1000013C1000011C100000FC1000084
:100030000DC100000BC1000009C1000007C1000094
:1000400005C1000003C1000001C10000FFC00000A5
:10005000FDC00000FBC00000F9C0000050C6000059
:10006000F5C0000016C60000EBC50000EFC00000A0
:10007000EDC00000EBC00000E9C00000E7C00000D8
:10008000E5C00000E3C00000E1C00000DFC00000E8
:10009000DDC00000DBC00000D9C000007AC600004F
:1000A000D5C00000D3C00000D1C00000CFC0000008
:1000B000CDC00000CBC00000C9C00000C7C0000018
:1000C000C5C00000C3C00000C1C00000BFC0000028
:1000D000BDC00000BBC00000B9C00000B7C0000038
:1000E000B5C0000000000A0B02090C0D0E08070342
:1000F00004010000000000000000000000000000FB
:1001000000000000000000000000000000000000EF
:1001100012111000000000000000000000000000AC
:100120000000000000000000000000002200250088
:1001300028002B002E0031003400020100000501D0
:1001400008010B0100002100240027002A002D00D7
:100150003000330001010000040107010A01050518
:100160000505070508080808020202020A0A08082D
:10017000040404040101010101010101030303035B
:1001800003030303040707070C0C0C0C0C0C0C0CEA
:100190000202020206060606060606060B0B0B0BFB
:1001A0000B0B0B0B01021020200808102040102020
:1001B000408002010201080402010102040810202B
:1001C0004080804020100804020180040201804029
:1001D0002010080402010804020101020408102092
:1001E00040800102040810204080EC0711241FBE4B
:1001F000CFEFD1E2DEBFCDBF00E00CBF12E0A0E048
:10020000B2E0E4EBF9E100E00BBF02C007900D9211
:10021000A837B107D9F723E0A8E7B2E001C01D92E3
:10022000AD3CB207E1F710E0C6EFD0E000E006C059
:1002300021970109802FFE010E94D00CC53FD107F4
:1002400080E00807A9F701D70C94D80CD9CE90E02C
:10025000FC01EC55FE4F2491825A9E4FFC01849183
:10026000882399F090E0880F991FFC01EC5BFE4F0A
:10027000A591B491FC01E65DFE4F859194918FB7F5
:10028000F894EC91E22BEC938FBF08950895CF93EF
:10029000DF93AC01E0911303F09114033097F1F078
:1002A00090911203809111039817C0F090E0292FCC
:1002B00030E02617370754F4D901A858BD4F240F52
:1002C000351FE90128812C939F5FF1CF1092120313
:1002D00060931103CB01DF91CF911994DF91CF91FE
:1002E0000895AF92BF92CF92DF92EF92FF920F9359
:1002F0001F93CF93DF936C017B018B01040F151FBC
:10030000EB015E01AE18BF08C017D10759F0699123
:10031000D601ED91FC910190F081E02DC601199577
:10032000892B79F7C501DF91CF911F910F91FF9034
:10033000EF90DF90CF90BF90AF900895FC01538D68
:10034000448D252F30E0842F90E0821B930B5417AF
:1003500010F0CF96089501970895FC01918D828D3C
:10036000981761F0A28DAE0FBF2FB11D5D968C91D5
:10037000928D9F5F9F73928F90E008958FEF9FEF14
:100380000895FC01918D828D981731F0828DE80FD0
:10039000F11D858D90E008958FEF9FEF0895FC018A
:1003A000918D228D892F90E0805C9F4F821B910957
:1003B0008F739927089584E293E0F1DF21E0892B80
:1003C00009F420E0822F0895FC01A48DA80FB92F15
:1003D000B11DA35ABF4F2C91848D90E001968F736D
:1003E0009927848FA689B7892C93A089B1898C918C
:1003F000837080648C93938D848D981306C00288DB
:10040000F389E02D80818F7D80830895EF92FF92A4
:100410000F931F93CF93DF93EC0181E0888F9B8D27
:100420008C8D98131AC0E889F989808185FF15C0E1
:100430009FB7F894EE89FF896083E889F989808104
:100440008370806480839FBF81E090E0DF91CF91D3
:100450001F910F91FF90EF900895F62E0B8D10E0F5
:100460000F5F1F4F0F731127E02E8C8D8E110BC065
:100470000FB607FCFACFE889F989808185FFF5CFAF
:10048000CE01A2DFF2CFEB8DEC0FFD2FF11DE35A71
:10049000FF4FF0829FB7F8940B8FEA89FB89808128
:1004A0008062D0CFCF93DF93EC01888D8823B1F0A9
:1004B000AA89BB89E889F9898C9185FD03C080816F
:1004C00086FD0CC00FB607FCF7CF8C9185FFF2CFED
:1004D000808185FFEDCFCE0177DFEACFDF91CF912D
:1004E000089580E090E0892B21F065DF81110E9462
:1004F000000080E090E0892B49F080E090E0892BBB
:1005000029F00E94000081110E94000080E090E02C
:10051000892B49F080E090E0892B29F00E940000AF
:1005200081110E94000080E090E0892B49F080E07A
:1005300090E0892B29F00E94000081110C940000AA
:100540000895282F30E0F901EC51FF4F9491F90103
:10055000EC55FE4F4491225A3E4FF901249122233B
:1005600009F435C0992311F191509231F8F4E92F33
:10057000F0E08827E154FD4F8F4F0C94D00CF0022F
:10058000F402D102E802EC02D602F702FD020103F6
:1005900007030B030F0315031903D6021D032303DF
:1005A0002703809180008F7780938000E22FF0E016
:1005B000EE0FFF1FE65DFE4FA591B4918FB7F89443
:1005C000EC91611148C040954E234C938FBF089524
:1005D000809180008F7DE8CF80918000877FE4CF7D
:1005E00084B58F7784BDE2CF84B58F7DFBCF8091BA
:1005F000B0008F778093B000D9CF8091B0008F7D0D
:10060000F9CF809190008F7780939000CFCF809129
:1006100090008F7DF9CF80919000877FF5CF8091FA
:10062000A0008F778093A000C1CF8091A0008F7D24
:10063000F9CF8091A000877FF5CF809120018F773F
:1006400080932001B3CF809120018F7DF9CF8091DD
:100650002001877FF5CF4E2BB8CF1F93CF93DF9329
:10066000182FEB01F4DD209731F460E0812FDF914A
:10067000CF911F9166CFCF3FD10511F461E0F6CF46
:10068000E12FF0E0EC51FF4FE491E150E23108F04E
:10069000B3C0F0E08827E05BFC4F8F4F0C94D00C88
:1006A00062036A036F0379038303FC038D039503DD
:1006B0009D03A703B103BB03CA03D403FC03DE03FA
:1006C000E803F20384B5806884BDC7BDDF91CF9194
:1006D0001F91089584B5806284BDC8BDF7CF809115
:1006E0008000806880938000D0938900C093880048
:1006F000EDCF80918000806280938000D0938B004A
:10070000C0938A00E3CF809180008860809380004E
:10071000D0938D00C0938C00D9CF8091B0008068B9
:100720008093B000C093B300D1CF8091B0008062BD
:100730008093B000C093B400C9CF809190008068CE
:1007400080939000D0939900C0939800BFCF809180
:100750009000806280939000D0939B00C0939A0099
:10076000B5CF80919000886080939000D0939D00D9
:10077000C0939C00ABCF8091A00080688093A000C4
:100780008091A0008F7B8093A000D093A900C0939C
:10079000A8009CCF8091A00080628093A000D0939D
:1007A000AB00C093AA0092CF8091A0008860809394
:1007B000A000D093AD00C093AC0088CF8091200101
:1007C000806880932001D0932901C09328017ECFB7
:1007D00080912001806280932001D0932B01C093EF
:1007E0002A0174CF80912001886080932001D093EA
:1007F0002D01C0932C016ACFC038D1050CF03ECF3B
:1008000034CF3FB7F8948091040390910503A091F1
:100810000603B091070326B5A89B05C02F3F19F02A
:100820000196A11DB11D3FBFBA2FA92F982F882770
:10083000BC01CD01620F711D811D911D42E0660F4B
:10084000771F881F991F4A95D1F7089585ED8093EA
:10085000BC008091BC0084FDFCCF10920E03089573
:100860002091B802260F3327331F21323105ECF4D3
:1008700020910E03FC0190E080E0243069F082E0DA
:100880000895A091B8022191AC0148565D4FA40F84
:10089000B52FB11D2C930196861798F38091B8025D
:1008A000680F6093B80280E0089581E0089508958C
:1008B000E091120380911103E81730F4F0E0E8585A
:1008C000FD4F808190E008958FEF9FEF0895909104
:1008D0001203809111032FEF3FEF981748F4E92F8F
:1008E000F0E0E858FD4F208130E09F5F90931203C5
:1008F000C90108958091110390911203891B990BEE
:100900000895CF93DF93CB01EA01642FA9DFCE01D5
:10091000DF91CF910895CF93DF931F92CDB7DEB7CC
:10092000698361E0CE0101969BDF81E090E00F904A
:10093000DF91CF91089590E080E0089580911103B8
:1009400090911203891B990B029744F081EC93E07C
:10095000BEDF682F84E293E059DDF0CF81EC93E0B5
:10096000B6DF90930102809300020895FC0101908C
:100970000020E9F73197AF01481B590BBC0184E215
:1009800093E0AFCCCF93DF93F1DFEC0186E292E00E
:10099000EDDF8C0F9D1FDF91CF91089580910002B4
:1009A000909101029C0121503109273C310548F406
:1009B0008456910990931B0380931A03109222038B
:1009C00009C0813E9105D1F781E08093220389E23D
:1009D00092E0CCDF80910002909101028B3E910564
:1009E00069F581E08093230381E392E0CBDF70E03F
:1009F00060E084E032DE70E060E085E02EDE70E0F2
:100A000060E086E02ADE70E060E087E026DE80912C
:100A10000002909101028E3C910599F410922103FD
:100A2000803D9105B9F010921F03893C9105A9F40E
:100A300081E080931E0310921903089510922303FE
:100A4000E6CF109221038F3C910541F721E02093DE
:100A50002003E9CF21E020931F0310921E038A3C5C
:100A6000910549F781E08093190308958F929F9231
:100A7000AF92BF92CF92DF92EF92FF920F931F93AC
:100A8000CF93DF93CDB7DEB7A1970FB6F894DEBF53
:100A90000FBECDBF6C01990FEE08FF08F7FE3EC0F8
:100AA0006DE284E293E0B2DC8C0122273327A901B6
:100AB0002C193D094E095F0919A2CE0181967C01CE
:100AC0009AE0892E912CA12CB12CCA01B901A50163
:100AD000940144D7605DF70162937F0121153105D0
:100AE0004105510591F790E080E0309711F0CF017A
:100AF0003DDF800F911FA1960FB6F894DEBF0FBEA9
:100B0000CDBFDF91CF911F910F91FF90EF90DF90BC
:100B1000CF90BF90AF909F908F900895A7019601BE
:100B200019A28E010F5D1F4F8AE0C82ED12CE12C37
:100B3000F12CCA01B901A701960110D7605DF80137
:100B400062938F01211531054105510591F790E020
:100B500080E0309781F2CF0109DFCDCF8F929F9255
:100B6000AF92BF92CF92DF92EF92FF920F931F93BB
:100B7000982E892ED62EC72E5A0179018BE392E04A
:100B8000F5DE892D982D72DF88E492E0EFDE8D2D61
:100B90009C2D6CDF88E492E0E9DEC50167DF88E424
:100BA00092E0E4DEC70162DF88E492E0DFDEC801A4
:100BB0005DDF8BE492E0E6DE692D88E0C2DC692D22
:100BC00089E0BFDC6D2D8AE0BCDC6D2D8BE0B9DCEB
:100BD000B50184E042DDB50185E03FDDB70186E087
:100BE0003CDDB70187E039DD6801110FEE08FF0831
:100BF00008DE4B015C0105DE681979098A099B0949
:100C0000683E734081059105B0F321E0C21AD10816
:100C1000E108F10888EE880E83E0981EA11CB11C43
:100C2000C114D104E104F10431F71F910F91FF9039
:100C3000EF90DF90CF90BF90AF909F908F900895EE
:100C40001F920F920FB60F9211240BB60F922F9393
:100C50003F934F935F936F937F938F939F93AF9344
:100C6000BF93EF93FF9384E293E0AEDBFF91EF91AC
:100C7000BF91AF919F918F917F916F915F914F91B4
:100C80003F912F910F900BBE0F900FBE0F901F90B2
:100C900018951F920F920FB60F9211240BB60F9258
:100CA0002F938F939F93EF93FF93E0913403F091F1
:100CB00035038081E0913A03F0913B0382FD1DC032
:100CC000908180913D038F5F8F7320913E03821747
:100CD00041F0E0913D03F0E0EC5DFC4F958F809397
:100CE0003D03FF91EF919F918F912F910F900BBE3C
:100CF0000F900FBE0F901F9018958081F2CF1F921A
:100D00000F920FB60F9211242F933F938F939F93BF
:100D1000AF93BF938091000390910103A0910203D0
:100D2000B09103033091FF0223E0230F2D3758F5D4
:100D30000196A11DB11D2093FF02809300039093A3
:100D40000103A0930203B0930303809104039091E5
:100D50000503A0910603B09107030196A11DB11DE3
:100D60008093040390930503A0930603B0930703B5
:100D7000BF91AF919F918F913F912F910F900FBE97
:100D80000F901F90189526E8230F0296A11DB11D04
:100D9000D2CF1F920F920FB60F9211240BB60F9263
:100DA0002F933F934F935F936F937F938F939F9373
:100DB000AF93BF93EF93FF938091B900887F803604
:100DC00009F44CC008F03FC0883209F4A8C028F5E7
:100DD000803109F49CC0C8F4882309F4FAC0883033
:100DE00009F495C0FF91EF91BF91AF919F918F91C1
:100DF0007F916F915F914F913F912F910F900BBE1B
:100E00000F900FBE0F901F901895883109F487C07E
:100E1000803241F78093DB0214C0803409F49CC017
:100E200040F48033B9F38833E9F68093DB0285EC34
:100E3000AFC0803509F484C0883509F495C0883482
:100E400089F604DDCFCF883909F48CC038F58837AE
:100E500029F050F4883611F0803721F683E0809332
:100E60000E031092DA0257C0883809F47BC080392B
:100E700019F0803809F0B6CF8091DA02803208F09C
:100E800071C0E091DA0281E08E0F8093DA028091E6
:100E9000BB00F0E0E654FD4F80833DC0803B39F05D
:100EA000E0F4803A09F479C0883A09F09BCF84E0F5
:100EB00080930E031092B9021092B802E0910A03D7
:100EC000F0910B0319958091B80281110FC081E058
:100ED0008093B8021092980209C0803C09F4A7CF11
:100EE000883C09F4A4CF883B09F07CCFE091B9029B
:100EF00081E08E0F8093B902F0E0E856FD4F8081CB
:100F00008093BB009091B9028091B80229C0809172
:100F1000FE028093BB0085EC8093BC0063CF909170
:100F2000FD028091FC02981758F5E091FD0281E0E6
:100F30008E0F8093FD02F0E0E452FD4F8081E9CFF7
:100F4000E091FD0281E08E0F8093FD028091BB0055
:100F5000F0E0E452FD4F80839091FD028091FC020D
:100F60009817C8F285E8D8CFE091FD0281E08E0F96
:100F70008093FD028091BB00F0E0E452FD4F80833E
:100F800080910D0381115DCF81E080930C0384EA91
:100F90008093BC0010920E0325CF85EC8093BC009B
:100FA00010920E038091DA02803230F4E091DA027E
:100FB000F0E0E654FD4F10826091DA0270E0E091BB
:100FC0000803F09109038AEB92E019951092DA0276
:100FD00009CF1092DB0235CFE4E2F3E013821282F4
:100FE00088EE93E0A0E0B0E084839583A683B78386
:100FF00026E032E03183208325EC30E035872487FA
:1010000024EC30E03787268720EC30E0318B208BD2
:1010100021EC30E0338B228B22EC30E0358B248BBB
:1010200026EC30E0378B268B118E128E138E148EA9
:10103000E1ECF3E01382128284839583A683B78365
:1010400088E192E0918380830895789484B58260EA
:1010500084BD84B5816084BD85B5826085BD85B55C
:10106000816085BD80916E00816080936E001092DA
:101070008100809181008260809381008091810055
:1010800081608093810080918000816080938000E6
:101090008091B10084608093B1008091B000816044
:1010A0008093B00080919100826080939100809144
:1010B0009100816080939100809190008160809385
:1010C00090008091A10082608093A1008091A10096
:1010D00081608093A1008091A00081608093A00036
:1010E00080912101826080932101809121018160A2
:1010F0008093210180912001816080932001809163
:101100007A00846080937A0080917A008260809374
:101110007A0080917A00816080937A0080917A00D1
:10112000806880937A001092C1001092120310928E
:1011300011031092100310920F0310920E0381E01E
:1011400080930D0310920C0361E084E1FAD961E011
:1011500085E1F7D98091B9008E7F8093B9008091A5
:10116000B9008D7F8093B90088E48093B80085E44E
:101170008093BC0086E491E090930B0380930A0374
:1011800087E491E0909309038093080388E08093BB
:10119000BA008EE994E09093140380931303E091D6
:1011A0003403F091350382E08083E0913003F091C5
:1011B00031031082E0913203F09133038FEC80838E
:1011C00010923C03E0913803F091390386E080836C
:1011D000E0913603F0913703808180618083E09154
:1011E0003603F0913703808188608083E091360375
:1011F000F0913703808180688083E0913603F0911D
:10120000370380818F7D808384E021D885E01FD8DB
:1012100086E01DD887E01BD888E019D889E017D868
:101220008AE015D88BE013D882E3E82EF12CCC2489
:10123000CA94D12CB3DB80912303811105C2AEDBAC
:10124000C0911A03D0911B031C161D060CF0BCC0E4
:10125000BE010D2E000C880B990B91D24B015C0145
:101260002DEC3CEC4CE45EE316D320E030E048E4A7
:1012700052E4EED120E030E0A901EAD14DD27093E2
:101280001803609317032AE939E949E95FE3C501C7
:10129000B40101D39B01AC0160E070E088E492E40A
:1012A000D6D120E030E0A901D3D136D27093160315
:1012B00060931503809117039091180397FFA7C0BF
:1012C0001092180310921703CD2B41F4F0921803DB
:1012D000E0921703F0921603E09215038091150334
:1012E0009091160397FF9DC010921603109215035C
:1012F00060E088E026D960E08AE023D960E089E0F8
:1013000020D960E08BE01DD9C0911703D09118035C
:10131000D7FF02C0C1E0D0E0009115031091160381
:101320005E01480117FF06C0AA24A394B12C8824AB
:101330008394912CC5019ADB86E292E017DBBE0113
:1013400084E08BD9B50185E088D9B80186E085D9DC
:10135000B40187E082D980911A0390911B0386DB48
:1013600088E492E003DB80911703909118037EDB01
:1013700088E492E0FBDA809115039091160376DB06
:101380008BE492E0FFDA80912203882309F453C0B2
:101390000CE211E026E430E046E450E070E060E06A
:1013A00090E080E0DBDBFADA80912203882309F405
:1013B00042C001E010E026E430E046E450E061E0A5
:1013C00070E081E090E0EECF209709F473CFBE018A
:1013D0000D2E000C880B990BD2D14B015C012AE930
:1013E00039E949E95FE357D220E030E048E452E4CC
:1013F0002FD120E030E0A9012BD18ED170931803BA
:10140000609317032DEC3CEC4CE45EE340CF8F3F40
:10141000910509F00CF458CFD0921803C09217032D
:1014200053CF8F3F910509F00CF462CFD092160391
:10143000C09215035DCF80912103882381F08DE454
:1014400092E0A0DA08EE13E021E030E041E050E065
:1014500070E060E090E080E081DB109221038091F9
:101460002003882381F083E592E08CDA08EE13E014
:1014700021E030E041E050E070E060E090E080E0AA
:101480006DDB1092200380911F03882381F08AE591
:1014900092E078DA08EE13E021E030E041E050E03D
:1014A00070E060E090E080E059DB10921F038091D3
:1014B0001E03882309F440C010921D0310921C03E0
:1014C0008FE592E05FDA00E911E026E430E046E4DF
:1014D00050E070E060E090E080E040DB80911A0333
:1014E00090911B03823E9F4F3CF50AE010E026E4FA
:1014F00030E046E450E070E060E081E090E02EDB18
:101500004DDA80911C0390911D03019690931D0369
:1015100080931C03CC9714F300ED17E030E020E03B
:1015200050E040E070E060E090E080E017DB109277
:101530001D0310921C03D2CF80911903882309F454
:101540003FC010921D0310921C038BE692E01ADA42
:1015500000E911E026E430E046E450E070E060E0AD
:1015600090E080E0FBDA80911A0390911B034F9783
:101570003CF10AE010E026E430E046E450E061E0AF
:1015800070E090E080E0EADA09DA80911C03909143
:101590001D03019690931D0380931C03CC971CF3AD
:1015A00000ED17E030E020E050E040E070E060E067
:1015B00090E080E0D3DA10921D0310921C03D3CF89
:1015C00080911A0390911B038A3B9F4FD4F4809122
:1015D0002203811116C002E310E026E430E046E465
:1015E00050E061E070E081E090E0B8DA0CE211E0F8
:1015F00026E430E046E450E070E060E081E090E016
:10160000ADDA80911A0390911B03873491050CF495
:1016100012CE8091220381110ECE02E310E026E467
:1016200030E046E450E061E070E081E090E096DA7E
:101630000CE211E026E430E046E450E061E070E0C6
:1016400090E080E08BDAF7CD0E947102F3CD505824
:10165000BB27AA270ED0E5C0D6D030F0DBD020F0D3
:1016600031F49F3F11F41EF4CBC00EF4E095E7FB7C
:10167000C1C0E92FE7D080F3BA1762077307840768
:10168000950718F071F49EF5FFC00EF4E0950B2E4F
:10169000BA2FA02D0B01B90190010C01CA01A001C4
:1016A0001124FF27591B99F0593F50F4503E68F11F
:1016B0001A16F040A22F232F342F4427585FF3CF60
:1016C000469537952795A795F0405395C9F77EF431
:1016D0001F16BA0B620B730B840BBAF09150A1F07A
:1016E000FF0FBB1F661F771F881FC2F70EC0BA0F00
:1016F000621F731F841F48F4879577956795B79588
:10170000F7959E3F08F0B3CF9395880F08F099277F
:10171000EE0F97958795089504D06894B111B5C0E0
:10172000089598D088F09F5790F0B92F9927B75116
:10173000A0F0D1F0660F771F881F991F1AF0BA9595
:10174000C9F712C0B13081F09FD0B1E008959CC0BC
:10175000672F782F8827B85F39F0B93FCCF386958B
:1017600077956795B395D9F73EF4909580957095E8
:1017700061957F4F8F4F9F4F0895E89409C097FB65
:101780003EF490958095709561957F4F8F4F9F4F58
:101790009923A9F0F92F96E9BB279395F69587959C
:1017A00077956795B795F111F8CFFAF4BB0F11F45F
:1017B00060FF1BC06F5F7F4F8F4F9F4F16C0882306
:1017C00011F096E911C0772321F09EE8872F762F3C
:1017D00005C0662371F096E8862F70E060E02AF07D
:1017E0009A95660F771F881FDAF7880F9695879569
:1017F00097F9089597F99F6780E870E060E0089591
:101800009FEF80EC089500240A9416161706180618
:101810000906089500240A941216130614060506F4
:101820000895092E0394000C11F4882352F0BB0F85
:1018300040F4BF2B11F460FF04C06F5F7F4F8F4FE8
:101840009F4F089557FD9058440F551F59F05F3F23
:1018500071F04795880F97FB991F61F09F3F79F0D2
:1018600087950895121613061406551FF2CF469554
:10187000F1DF08C0161617061806991FF1CF8695D6
:101880007105610508940895E894BB2766277727BA
:10189000CB0197F908950BD0C4CFB5DF28F0BADF9C
:1018A00018F0952309F0A6CFABCF1124EECFCADFF5
:1018B000A0F3959FD1F3950F50E0551F629FF00163
:1018C000729FBB27F00DB11D639FAA27F00DB11DBC
:1018D000AA1F649F6627B00DA11D661F829F222745
:1018E000B00DA11D621F739FB00DA11D621F839FCC
:1018F000A00D611D221F749F3327A00D611D231FA2
:10190000849F600D211D822F762F6A2F11249F57EF
:1019100050408AF0E1F088234AF0EE0FFF1FBB1F12
:10192000661F771F881F91505040A9F79E3F5105B1
:1019300070F060CFAACF5F3FECF3983EDCF3869562
:1019400077956795B795F795E7959F5FC1F7FE2B5C
:10195000880F911D9695879597F90895A1E21A2E03
:10196000AA1BBB1BFD010DC0AA1FBB1FEE1FFF1F43
:10197000A217B307E407F50720F0A21BB30BE40B93
:10198000F50B661F771F881F991F1A9469F76095DA
:101990007095809590959B01AC01BD01CF01089594
:1019A000EE0FFF1F881F8BBF0790F691E02D199453
:0419B000F894FFCFD9
:1019B400FA0000000000060271019E015202CF01EC
:1019C400AD01C101000000008B0481049B04570495
:1019D4007A04670458040D0A006E6F204C696E6522
:1019E4000073746F707065642E2E0077726974656D
:1019F4004D6F746F723A20002C20003B006C696EAE
:101A04006B730072656368747300626F746800635B
:101A14006F726E65724C6566742E00636F726E65CC
:081A24007252696768742E001C
:020000023000CC
:10E000000D9489F10D94B2F10D94B2F10D94B2F129
:10E010000D94B2F10D94B2F10D94B2F10D94B2F1F0
:10E020000D94B2F10D94B2F10D94B2F10D94B2F1E0
:10E030000D94B2F10D94B2F10D94B2F10D94B2F1D0
:10E040000D94B2F10D94B2F10D94B2F10D94B2F1C0
:10E050000D94B2F10D94B2F10D94B2F10D94B2F1B0
:10E060000D94B2F10D94B2F10D94B2F10D94B2F1A0
:10E070000D94B2F10D94B2F10D94B2F10D94B2F190
:10E080000D94B2F10D94B2F10D94B2F10D94B2F180
:10E090000D94B2F10D94B2F10D94B2F10D94B2F170
:10E0A0000D94B2F10D94B2F10D94B2F10D94B2F160
:10E0B0000D94B2F10D94B2F10D94B2F10D94B2F150
:10E0C0000D94B2F10D94B2F10D94B2F10D94B2F140
:10E0D0000D94B2F10D94B2F10D94B2F10D94B2F130
:10E0E0000D94B2F141546D656761323536300041AF
:10E0F000726475696E6F206578706C6F72657220DE
:10E1000073746B3530305632206279204D4C530099
:10E11000426F6F746C6F616465723E004875683F52
:10E1200000436F6D70696C6564206F6E203D200048
:10E130004350552054797065202020203D20005FF9
:10E140005F4156525F415243485F5F3D2000415658
:10E1500052204C696243205665723D20004743437C
:10E160002056657273696F6E203D20004350552024
:10E1700049442020202020203D20004C6F7720663D
:10E18000757365202020203D20004869676820665F
:10E190007573652020203D200045787420667573D6
:10E1A00065202020203D20004C6F636B2066757336
:10E1B000652020203D20004D617220203720323024
:10E1C000313300312E362E3800342E332E350056A2
:10E1D00023202020414444522020206F7020636F70
:10E1E00064652020202020696E73747275637469E1
:10E1F0006F6E2061646472202020496E74657272B3
:10E20000757074006E6F20766563746F7200726A49
:10E210006D702020006A6D70200057686174207056
:10E220006F72743A00506F7274206E6F7420737541
:10E2300070706F72746564004D7573742062652030
:10E2400061206C6574746572002000577269747483
:10E25000696E672045450052656164696E672045B7
:10E26000450045452065727220636E743D00504F35
:10E27000525400303D5A65726F2061646472003FF1
:10E280003D43505520737461747300403D454550C3
:10E29000524F4D207465737400423D426C696E6B41
:10E2A000204C454400453D44756D70204545505215
:10E2B0004F4D00463D44756D7020464C415348001B
:10E2C000483D48656C70004C3D4C69737420492F83
:10E2D0004F20506F72747300513D51756974005234
:10E2E0003D44756D702052414D00563D73686F7707
:10E2F00020696E7465727275707420566563746FF0
:10E30000727300593D506F727420626C696E6B00BD
:10E310002A0011241FBECFEFD1E2DEBFCDBF01E046
:10E320000CBF12E0A0E0B2E0EEE1FDEF03E00BBFB6
:10E3300002C007900D92A030B107D9F712E0A0E01B
:10E34000B2E001C01D92AE30B107E1F70F9460F367
:10E350000D948DFE01E20EBF0FEF0DBF11241FBE05
:10E360000D9460F30D9400F020E030E040ED57E0B4
:10E3700005C0FA013197F1F72F5F3F4F2817390792
:10E38000C0F308959C01260F311DC901A0E0B0E043
:10E390002F5F3F4FABBFFC018791882361F08093D3
:10E3A000C6008091C00086FFFCCF8091C0008064D1
:10E3B0008093C000EACF08958DE08093C6008091DD
:10E3C000C00086FFFCCF8091C00080648093C000B5
:10E3D0008AE08093C6008091C00086FFFCCF8091C8
:10E3E000C00080648093C00008950F94C2F10F9420
:10E3F000DCF10895FC019081992359F09093C600B7
:10E400008091C00086FFFCCF8091C0008064809323
:10E41000C0003196992379F70895282F982F929567
:10E420009F70892F805D8A3308F0895F8093C600D2
:10E430008091C00086FFFCCF8091C00080648093F3
:10E44000C000822F8F70982F905D9A3308F0995FEB
:10E450009093C6008091C00086FFFCCF8091C000E1
:10E4600080648093C00008959C01FB01853691056E
:10E470001CF46330710594F0C90164E670E00F94F8
:10E480002EFE605D7F4F6093C6008091C00086FFC6
:10E49000FCCF8091C00080648093C0002B30310598
:10E4A00014F43297B4F0C90164E670E00F942EFEC4
:10E4B0006AE070E00F942EFE605D7F4F6093C600AF
:10E4C0008091C00086FFFCCF8091C0008064809363
:10E4D000C000C9016AE070E00F942EFEC0968093E0
:10E4E000C6008091C00086FFFCCF8091C000806490
:10E4F0008093C00008951F93182F8EE692EE60E07F
:10E500000F94C2F11093C6008091C00086FFFCCF2B
:10E510008091C00080648093C0000F94DCF11F9153
:10E5200008952F923F924F925F926F927F928F92B7
:10E530009F92AF92BF92CF92DF92EF92FF920F9392
:10E540001F93DF93CF93CDB7DEB762970FB6F894E2
:10E55000DEBF0FBECDBF382E622ECA01DB015C01CB
:10E560006D01772420E2222E2E010894411C511CBB
:10E570008BC081E0A81680E0B80681E0C80680E084
:10E58000D80628F0C601AA27BB270F940DF2BB2797
:10E59000AD2D9C2D8B2D0F940DF28A2D0F940DF225
:10E5A0002092C6008091C00086FFFCCF8091C00001
:10E5B00080648093C0009DE29093C6008091C0006B
:10E5C00086FFFCCF8091C00080648093C0002092C1
:10E5D000C6008091C00086FFFCCF8091C00080649F
:10E5E0008093C00019828601750188249924A1E0D6
:10E5F0003A1651F03A1620F0B2E03B1661F409C029
:10E600000BBFF701779007C0C7010F9477FE782EF4
:10E6100002C0F7017080872D0F940DF22092C60082
:10E620008091C00086FFFCCF8091C0008064809301
:10E63000C000872D8052F401EF70F0708F3520F408
:10E64000E40DF51D708204C0E40DF51D8EE280839B
:10E650000894E11CF11C011D111D0894811C911CE2
:10E6600090E18916910409F0C2CF80E190E0A0E02A
:10E67000B0E0A80EB91ECA1EDB1E198AC2010F9493
:10E68000FAF10F94DCF16A94662009F072CF629679
:10E690000FB6F894DEBF0FBECDBFCF91DF911F91B3
:10E6A0000F91FF90EF90DF90CF90BF90AF909F9031
:10E6B0008F907F906F905F904F903F902F90089534
:10E6C0002F923F924F925F926F927F928F929F9282
:10E6D000AF92BF92CF92DF92EF92FF920F931F9370
:10E6E000DF93CF93CDB7DEB7CD53D1400FB6F894BB
:10E6F000DEBF0FBECDBF01E20EBF0FEF0DBF94B75F
:10E70000F894A89514BE80916000886180936000A1
:10E7100010926000789493FF05C0E0910002F091A0
:10E7200001021995279A2F9A8091C00082608093E8
:10E73000C00080E18093C40088E18093C1000000A4
:10E74000EE24FF24870144E0A42EB12CCC24DD2448
:10E7500024C0C5010197F1F70894E11CF11C011DCB
:10E76000111D21E2E2162EE4F20620E0020720E06D
:10E77000120718F031E0C32ED12CC801B70127ECE5
:10E780003BE140E050E00F9441FE611571058105C9
:10E79000910519F485B1805885B98091C00087FD35
:10E7A00003C0C114D104A9F2A6014F5F5F4FC25E3E
:10E7B000DE4F59834883CE51D140C25EDE4F8881FF
:10E7C0009981CE51D140019711F00D9410FEC05D9A
:10E7D000DE4F19821882C053D14060E0C15DDE4F28
:10E7E0001882CF52D14088249924C35DDE4F19820C
:10E7F0001882CD52D140C05EDE4F188219821A8233
:10E800001B82C052D140CE5CDE4F188219821A8220
:10E810001B82C253D140EE24FF2487010BBFF701B6
:10E8200007911691C45CDE4F19830883CC53D14005
:10E830000D940BFEC25EDE4F28813981CE51D1404E
:10E840002130310509F52091C600C25EDE4F1982E4
:10E850001882CE51D14022C02F5F3F4F4F4F5F4FA4
:10E86000213082E138078AE7480780E0580780F0C6
:10E87000C45CDE4FE881F981CC53D140EF5FFF4F9C
:10E8800019F0EE27FF27099420E030E040E050E047
:10E890008091C00087FFE0CF2091C600C35DDE4FAE
:10E8A00048815981CD52D1404F5F5F4FC35DDE4FEC
:10E8B00059834883CD52D140213209F063C64A3092
:10E8C000510508F05FC60894811C911C53E0851621
:10E8D000910409F059C600E010E018C081E280936D
:10E8E000C6008091C00086FFFCCF8091C00080648C
:10E8F0008093C0002F5F3F4F2931310579F70F9486
:10E90000DCF10F5F1F4F0530110519F020E030E0FA
:10E91000E5CF10920A0210920B0210920C02109294
:10E920000D02109206021092070210920802109235
:10E930000902109202021092030210920402109235
:10E9400005028FEE90EE60E00F94F5F180E191EE1C
:10E9500060E00F94C2F18091C00087FFFCCF9091DE
:10E96000C600903608F09F759032B8F09093C600BC
:10E970008091C00086FFFCCF8091C00080648093AE
:10E98000C000A0E2A093C6008091C00086FFFCCF2B
:10E990008091C00080648093C000983409F4D7C18E
:10E9A0009934B8F4923409F459C1933458F490333B
:10E9B00019F1903308F4E3C59F33A1F1903409F0C5
:10E9C000DEC5BDC0953409F470C1963409F0D7C5D1
:10E9D00098C1923509F42BC2933538F49C3409F46C
:10E9E000F5C1913509F0CBC518C2963509F445C279
:10E9F000993509F0C4C567C483E792EE62E00F94CD
:10EA0000F5F110920602109207021092080210927D
:10EA1000090210920A0210920B0210920C0210923C
:10EA20000D0213C18FE792EE62E00F94F5F18FEEC5
:10EA300090EE60E00F94F5F181E291EE60E00F94CA
:10EA4000C2F187EB91EE60E00F94F5F180E391EE77
:10EA500060E00F94C2F184EE90EE60E00F94F5F167
:10EA60008FE391EE60E00F94C2F186E090E061E008
:10EA700070E00F9434F20F94DCF18DE591EE60E0DC
:10EA80000F94C2F189EC91EE60E00F94F5F18EE401
:10EA900091EE60E00F94C2F183EC91EE60E00F9490
:10EAA000F5F18CE691EE60E00F94C2F18EE10F94E7
:10EAB0000DF288E90F940DF281E00F940DF20F949E
:10EAC000DCF18BE791EE60E00F94C2F119E0E0E039
:10EAD000F0E010935700E4918E2F0F940DF20F94F5
:10EAE000DCF18AE891EE60E00F94C2F1E3E0F0E03F
:10EAF00010935700E4918E2F0F940DF20F94DCF1D8
:10EB000089E991EE60E00F94C2F1E2E0F0E0109349
:10EB10005700E4918E2F0F940DF20F94DCF188EAE8
:10EB200091EE60E00F94C2F1E1E0F0E01093570045
:10EB30001491812F0F940DF20F94DCF107CF8BE825
:10EB400092EE62E00F94F5F18BE492EE60E00F94A8
:10EB5000F5F10F94DCF100E010E019C0C8016F2D51
:10EB60000F947FFEFF2031F489E492EE60E00F9471
:10EB7000C2F10BC0F092C6008091C00086FFFCCFAE
:10EB80008091C00080648093C0000F5F1F4FC80158
:10EB900081519F41A0E0B0E0ABBFFC01F790BAE229
:10EBA000FB1621F0E2E000301E07C1F60F94DCF105
:10EBB0000F94DCF187E592EE60E00F94F5F10F948D
:10EBC000DCF1CC24DD2400E010E01EC0C8010F946D
:10EBD00077FEF82E882331F489E492EE60E00F94FA
:10EBE000C2F10BC08093C6008091C00086FFFCCFAD
:10EBF0008091C00080648093C000FE1419F00894D6
:10EC0000C11CD11C0F5F1F4FC80181519F41A0E063
:10EC1000B0E0ABBFFC01E790FAE2EF1621F022E092
:10EC20000030120799F60F94DCF10F94DCF182E6C4
:10EC300092EE60E00F94C2F1C60161E070E00F94C3
:10EC400034F20F94DCF10F94DCF110920202109276
:10EC50000302109204021092050278CE89E992EE26
:10EC600062E00F94F5F1279A2F9A16C02F9880E052
:10EC700090E0E0EDF7E03197F1F7019684369105E9
:10EC8000C1F72F9A80E090E0E0EDF7E03197F1F7DF
:10EC9000019684369105C1F78091C00087FFE6CFC9
:10ECA0008091C00087FFFCCF64C485EA92EE62E0E9
:10ECB0000F94F5F140910202509103026091040219
:10ECC0007091050281E020E10F9491F2809102029F
:10ECD00090910302A0910402B091050280509F4FD1
:10ECE000AF4FBF4F8093020290930302A0930402A0
:10ECF000B093050280509041A040B04008F426CE69
:10ED0000A4CF83EB92EE62E00F94F5F140910602FE
:10ED100050910702609108027091090280E020E1A1
:10ED20000F9491F28091060290910702A09108023F
:10ED3000B091090280509F4FAF4FBF4F80930602A2
:10ED400090930702A0930802B0930902FFCD80ECD4
:10ED500092EE62E00F94F5F183E792EE60E00F949B
:10ED6000F5F18FE792EE60E00F94F5F18BE892EE0B
:10ED700060E00F94F5F189E992EE60E00F94F5F10F
:10ED800085EA92EE60E00F94F5F183EB92EE60E09D
:10ED90000F94F5F180EC92EE60E00F94F5F187ECC2
:10EDA00092EE60E00F94F5F188ED92EE60E00F9442
:10EDB000F5F18FED92EE60E00F94F5F18AEE92EEB0
:10EDC00060E00F94F5F183E093EEBDCD87EC92EE19
:10EDD00062E00F94F5F181E40F947BF282E40F94EA
:10EDE0007BF283E40F947BF284E40F947BF285E45E
:10EDF0000F947BF286E40F947BF287E40F947BF20E
:10EE000088E40F947BF28AE40F947BF28BE40F94F6
:10EE10007BF28CE40F947BF299CD88ED92EE62E068
:10EE20000F94F5F1772473948824992409C48FED05
:10EE300092EE62E00F94F5F140910A0250910B02BC
:10EE400060910C0270910D0282E020E10F9491F22A
:10EE500080910A0290910B02A0910C02B0910D02D8
:10EE600080509F4FAF4FBF4F80930A0290930B0289
:10EE7000A0930C02B0930D0269CD8AEE92EE62E08F
:10EE80000F94F5F184EE90EE60E00F94F5F18FECC5
:10EE900091EE60E00F94F5F1662477244301CC5D98
:10EEA000DE4F19821882C452D140D401C301B695F5
:10EEB000A79597958795CA5DDE4F88839983AA8326
:10EEC000BB83C652D140CC5DDE4FA881B981C4520C
:10EED000D1401196CC5DDE4FB983A883C452D14096
:10EEE000CD0162E070E00F9434F2B0E2B093C6005E
:10EEF0008091C00086FFFCCF8091C0008064809329
:10EF0000C000EDE2E093C6008091C00086FFFCCF18
:10EF10008091C00080648093C000F0E2F093C6004E
:10EF20008091C00086FFFCCF8091C00080648093F8
:10EF3000C000CA5DDE4FE880F9800A811B81C6529D
:10EF4000D140BB27A12F902F8F2D0F940DF2CA5DBA
:10EF5000DE4F8881C652D1400F940DF2B0E2FB2EF5
:10EF6000F092C6008091C00086FFFCCF8091C00067
:10EF700080648093C0000DE30093C6008091C000C0
:10EF800086FFFCCF8091C00080648093C00010E2B7
:10EF90001093C6008091C00086FFFCCF8091C00016
:10EFA00080648093C0008BBEF3012791C65DDE4F65
:10EFB0002883CA52D140A22EBB24CC24DD2408943D
:10EFC000611C711C811C911C8BBEF3018791282E42
:10EFD0003324442455240894611C711C811C911C09
:10EFE0008BBEF3013791C55DDE4F3883CB52D140E4
:10EFF0000894611C711C811C911C8BBEF30147910C
:10F00000C45DDE4F4883CC52D140ADEFEA2EAFEF66
:10F01000FA2EAFEF0A2FAFEF1A2F6E0C7F1C801E57
:10F02000911E142D032DF22CEE24EA0CFB1C0C1D5A
:10F030001D1D0F940DF220E22093C6008091C000A8
:10F0400086FFFCCF8091C00080648093C000C65DC5
:10F05000DE4F8881CA52D1400F940DF230E23093D6
:10F06000C6008091C00086FFFCCF8091C000806404
:10F070008093C000C45DDE4F8881CC52D1400F9494
:10F080000DF240E24093C6008091C00086FFFCCFA5
:10F090008091C00080648093C000C55DDE4F888190
:10F0A000CB52D1400F940DF250E25093C6008091A4
:10F0B000C00086FFFCCF8091C00080648093C000B8
:10F0C0008FEFE8168FEFF80680E0080780E018075A
:10F0D00031F484E092EE60E00F94C2F1DFC0D80119
:10F0E000C7018070907CA070B0708050904CA040A0
:10F0F000B040D1F52FEF3FE340E050E0E222F322B1
:10F1000004231523CA5DDE4FA880B980CA80DB8046
:10F11000C652D140AE0CBF1CC01ED11EAA0CBB1CD7
:10F12000CC1CDD1C8EE092EE60E00F94C2F1BB2798
:10F13000A12F902F8F2D0F940DF28E2D0F940DF285
:10F1400030E23093C6008091C00086FFFCCF8091F2
:10F15000C00080648093C0004EE34093C60080915D
:10F16000C00086FFFCCF87C08EE09EEFA0E0B0E03D
:10F17000E822F9220A231B239CE0E91694E9F90608
:10F1800090E0090790E0190709F088C0C45DDE4FE0
:10F19000A881CC52D140EA2EFF2400E010E0102FCD
:10F1A0000F2DFE2CEE24C55DDE4FB881CB52D14031
:10F1B000EB0EF11C011D111DD601C501817090706F
:10F1C000A070B070DC0199278827E80EF91E0A1F8D
:10F1D0001B1F20EF30E040E050E0A222B322C42207
:10F1E000D52241E1AA0CBB1CCC1CDD1C4A95D1F7F1
:10F1F000EA0CFB1C0C1D1D1D81E090E0A0E0B0E0BE
:10F20000282239224A225B2235E1220C331C441C7D
:10F21000551C3A95D1F7E20CF31C041D151D57013E
:10F220006801AA0CBB1CCC1CDD1C85E192EE60E0E1
:10F230000F94C2F1C801AA27BB270F940DF2BB2778
:10F24000A12F902F8F2D0F940DF28E2D0F940DF274
:10F2500090E29093C6008091C00086FFFCCF809121
:10F26000C00080648093C000AEE3A093C60080918C
:10F27000C00086FFFCCF8091C00080648093C000F6
:10F28000C601AA27BB270F940DF2BB27AD2D9C2DDD
:10F290008B2D0F940DF28A2D0F940DF20F94DCF14B
:10F2A000CC5DDE4FE881F981C452D140F99709F471
:10F2B0004DCBF4E0EF2EF12C012D112D6E0C7F1CA7
:10F2C000801E911EF2CD83E093EE62E00F94F5F183
:10F2D0008AE192EE60E00F94C2F18091C00087FF56
:10F2E000FCCF1091C6001F751093C6008091C0001E
:10F2F00086FFFCCF8091C00080648093C0000F9493
:10F30000DCF1812F81548A3108F036C1163409F4BA
:10F3100095C0173490F4133409F44EC0143430F40B
:10F320001134F1F0123409F01DC130C0143409F465
:10F3300059C0153409F016C16BC01A3409F4C4C0A1
:10F340001B3438F4173409F48FC0183409F00AC19B
:10F35000A1C01B3409F4D2C01C3409F003C1E8C0B9
:10F360008FEF81B90DC082B1809582B980E090E0C5
:10F37000E0EDF7E03197F1F70196883C9105C1F790
:10F380008091C00087FFEFCF12B8EFC08FEF84B934
:10F390000DC085B1809585B980E090E0E0EDF7E0A3
:10F3A0003197F1F70196883C9105C1F78091C00033
:10F3B00087FFEFCF15B8D9C08FEF87B90DC088B1DF
:10F3C000809588B980E090E0E0EDF7E03197F1F7C3
:10F3D0000196883C9105C1F78091C00087FFEFCF6F
:10F3E00018B8C3C08FEF8AB90DC08BB180958BB9A7
:10F3F00080E090E0E0EDF7E03197F1F70196883C8E
:10F400009105C1F78091C00087FFEFCF1BB8ADC059
:10F410008FEF8DB90DC08EB180958EB980E090E0F0
:10F42000E0EDF7E03197F1F70196883C9105C1F7DF
:10F430008091C00087FFEFCF1EB897C08FEF80BBD1
:10F440000DC081B3809581BB80E090E0E0EDF7E0F6
:10F450003197F1F70196883C9105C1F78091C00082
:10F4600087FFEFCF11BA81C08FEF83BB0DC084B38C
:10F47000809584BB80E090E0E0EDF7E03197F1F714
:10F480000196883C9105C1F78091C00087FFEFCFBE
:10F4900014BA6BC08FEF809301010FC080910201FD
:10F4A00080958093020180E090E0E0EDF7E03197F5
:10F4B000F1F70196883C9105C1F78091C00087FF64
:10F4C000EDCF1092020151C08FEF809304010FC065
:10F4D0008091050180958093050180E090E0E0ED4A
:10F4E000F7E03197F1F70196883C9105C1F78091DB
:10F4F000C00087FFEDCF1092050137C08FEF8093DA
:10F5000007010FC08091080180958093080180E079
:10F5100090E0E0EDF7E03197F1F70196883C910536
:10F52000C1F78091C00087FFEDCF109208011DC088
:10F530008FEF80930A010FC080910B01809580931B
:10F540000B0180E090E0E0EDF7E03197F1F70196F4
:10F55000883C9105C1F78091C00087FFEDCF1092E4
:10F560000B0103C085E292EEEEC98091C00087FFD7
:10F57000FCCF8091C600EAC988E392EEE4C98CE131
:10F5800091EEE1C988249924933011F1943028F444
:10F59000913089F09230B8F408C0953061F195301F
:10F5A000F0F0963009F048C043C02B3109F042C951
:10F5B00091E06BE13FC96227C15DDE4F2883CF52E6
:10F5C000D14092E037C9B22FA0E0622793E032C960
:10F5D000822F90E0A82BB92B622794E02BC92E3004
:10F5E00009F039C3622795E0C05DDE4F19821882A9
:10F5F000C053D1401FC9E1E0F0E0EC0FFD1FC05D3A
:10F60000DE4F08811981C053D140E00FF11F2083E4
:10F610000F5F1F4FC05DDE4F19830883C053D14079
:10F6200062270A171B0709F005C9D80196E002C92D
:10F63000261709F010C303C0973009F0FBC87724E0
:10F640009981933109F412C19431C8F4963009F4C8
:10F65000D8C0973050F4923009F406C1933009F4C1
:10F660006DC0913009F059C253C0913109F477C08F
:10F67000923108F0BBC0903109F04FC2F5C098310B
:10F6800009F487C0993150F4953109F4EFC09531F0
:10F6900008F4C6C1963109F040C2C2C19A3109F4DA
:10F6A0006CC09A3108F491C09B3109F45BC09D3164
:10F6B00009F033C29D81903359F48F81882311F46E
:10F6C0009EE11CC0813011F091E018C098E916C08D
:10F6D000892F807591F0903539F4E0E0F0E089E011
:10F6E0008093570094910AC0983539F4E3E0F0E034
:10F6F00089E080935700949101C090E01A821B82A8
:10F700008D818C831D829E831F8227E030E009C299
:10F710001A8288E08B8381E48C8386E58D8382E581
:10F720008E8389E48F8383E5888780E589878FE5E9
:10F730008A8782E38B872BE030E0F3C18A818139AD
:10F7400041F0823941F0803911F48FE005C080E04A
:10F7500003C082E001C08AE01A828B8344C0772410
:10F76000739482C08D81882311F48EE12CC0813086
:10F7700011F081E028C088E926C01A82E1E0F0E0BB
:10F7800089E08093570084918B831C8224E030E0D1
:10F79000C8C18B81803589F48C81883039F4E2E0EE
:10F7A000F0E089E08093570084910DC0E0E0F0E044
:10F7B00089E080935700849106C0E3E0F0E089E09F
:10F7C0008093570084911A82DFCF8D81836C99E0FA
:10F7D000E1E0F0E0082E90935700E89507B600FCB2
:10F7E000FDCF1A821B8223E030E09BC180EC8A832C
:10F7F000CE5CDE4F188219821A821B82C253D1401E
:10F800008EC18A8190E0A0E0B0E0582F44273327D2
:10F8100022278B8190E0A0E0B0E0DC0199278827C7
:10F82000282B392B4A2B5B2B8D8190E0A0E0B0E098
:10F83000282B392B4A2B5B2B8C8190E0A0E0B0E089
:10F84000BA2FA92F982F8827282B392B4A2B5B2BCF
:10F85000220F331F441F551FC05EDE4F288339839C
:10F860004A835B83C052D1401A8259C13A81C95C34
:10F87000DE4F3883C753D140CA5CDE4F1882C6536F
:10F88000D1408B81C82EDD24CA5CDE4F488159816E
:10F89000C653D140C42AD52A933109F082C0CE5C28
:10F8A000DE4F88819981AA81BB81C253D1408050AB
:10F8B000904CA340B04030F583E0CE5CDE4FE88052
:10F8C000F9800A811B81C253D140F70100935B008C
:10F8D00080935700E89507B600FCFDCFCE5CDE4F65
:10F8E000088119812A813B81C253D14000501F4FAA
:10F8F0002F4F3F4FCE5CDE4F088319832A833B8313
:10F90000C253D140C05EDE4F488159816A817B81FC
:10F91000C052D140DE011B9631E08C9111962C91A2
:10F9200011971296C75CDE4F2883C953D140C85C3B
:10F93000DE4F1882C853D14090E0C85CDE4FE881AA
:10F94000F981C853D1408E2B9F2B0C01FA01609393
:10F950005B0030935700E89511244E5F5F4F6F4F67
:10F960007F4F0EEFE02E0FEFF02ECE0CDF1CC114F8
:10F97000D10499F685E0C05EDE4F088119812A81A5
:10F980003B81C052D140F80120935B008093570027
:10F99000E89507B600FCFDCF81E180935700E8951C
:10F9A00035C0C05EDE4F88819981AA81BB81C0527B
:10F9B000D140B695A795979587957C018601ABE0D8
:10F9C000AA2EB12CAC0EBD1E0BC0D5016D915D01F0
:10F9D000C7010F947FFE0894E11CF11C01501040F8
:10F9E0000115110591F7A60160E070E0440F551F65
:10F9F000661F771FC05EDE4FE880F9800A811B8199
:10FA0000C052D1404E0D5F1D601F711F1A82C05E33
:10FA1000DE4F488359836A837B83C052D1407FC0C5
:10FA2000FA80C55CDE4FF882CB53D140C65CDE4F16
:10FA30001882CA53D1408B81C82EDD24C65CDE4FAC
:10FA400008811981CA53D140C02AD12A1A828981DA
:10FA5000BE016D5F7F4F843121F59601C05EDE4FA0
:10FA6000E880F9800A811B81C052D1400BBFF701A9
:10FA700087919691DB018C9311969C936E5F7F4FDB
:10FA8000D801C7010296A11DB11DC05EDE4F88835B
:10FA90009983AA83BB83C052D14022503040F1F6F3
:10FAA00036C0C05EDE4F288139814A815B81C052F9
:10FAB000D1400894C108D108760100E010E0089414
:10FAC000C11CD11C0894E11CF11C011D111DE20E8A
:10FAD000F31E041F151F21BDBB27A52F942F832FB5
:10FAE00082BD2F5F3F4F4F4F5F4FF89A80B5DB01CC
:10FAF0008D93BD012E153F054007510761F7C05E8C
:10FB0000DE4F288339834A835B83C052D1409601FC
:10FB10002D5F3F4FFB01108204C080EC8A8322E0FE
:10FB200030E08BE18093C6008091C00086FFFCCF5F
:10FB30008091C00080648093C000C15DDE4FF88179
:10FB4000CF52D140F093C6008091C00086FFFCCF19
:10FB50008091C00080648093C000432F3093C60022
:10FB60008091C00086FFFCCF8091C00080648093AC
:10FB7000C000922F2093C6008091C00086FFFCCF6A
:10FB80008091C00080648093C0008EE08093C600A6
:10FB90008091C00086FFFCCF8091C000806480937C
:10FBA000C00065E1C15DDE4FE880CF52D1406E25D7
:10FBB00069276427FE01319610C090819093C6009A
:10FBC0008091C00086FFFCCF31968091C000806498
:10FBD0008093C0006927215030402115310569F715
:10FBE0006093C6008091C00086FFFCCF8091C0006A
:10FBF00080648093C00085B1805885B9772081F4F6
:10FC0000C15DDE4F0881CF52D1400F5FC15DDE4F35
:10FC10000883CF52D14090E0A0E0B0E00D941AF4F8
:10FC200027982F9880E090E020ED37E0F901319798
:10FC3000F1F7019684369105C9F700008091C00064
:10FC40008D7F8093C00081E180935700E895EE2777
:10FC5000FF270994FFCF90E00D941AF497FB092E2B
:10FC600007260AD077FD04D02ED006D000201AF443
:10FC7000709561957F4F0895F6F7909581959F4F08
:10FC80000895A1E21A2EAA1BBB1BFD010DC0AA1FDD
:10FC9000BB1FEE1FFF1FA217B307E407F50720F0F5
:10FCA000A21BB30BE40BF50B661F771F881F991F70
:10FCB0001A9469F760957095809590959B01AC01B9
:10FCC000BD01CF010895AA1BBB1B51E107C0AA1FAC
:10FCD000BB1FA617B70710F0A61BB70B881F991FED
:10FCE0005A95A9F780959095BC01CD010895F99991
:10FCF000FECF92BD81BDF89A992780B50895262F31
:10FD0000F999FECF1FBA92BD81BD20BD0FB6F89400
:0EFD1000FA9AF99A0FBE01960895F894FFCF63
:040000033000E000E9
:00000001FF
