:10000000F5C0000023C1000021C100001FC1000095
:100010001DC100001BC1000019C1000017C1000074
:1000200015C1000013C1000011C100000FC1000084
:100030000DC100000BC1000009C1000007C1000094
:1000400005C1000003C1000001C10000FFC00000A5
:10005000FDC00000FBC00000F9C000003AC600006F
:10006000F5C0000000C60000D5C50000EFC00000CC
:10007000EDC00000EBC00000E9C00000E7C00000D8
:10008000E5C00000E3C00000E1C00000DFC00000E8
:10009000DDC00000DBC00000D9C0000064C6000065
:1000A000D5C00000D3C00000D1C00000CFC0000008
:1000B000CDC00000CBC00000C9C00000C7C0000018
:1000C000C5C00000C3C00000C1C00000BFC0000028
:1000D000BDC00000BBC00000B9C00000B7C0000038
:1000E000B5C0000000000A0B02090C0D0E08070342
:1000F00004010000000000000000000000000000FB
:1001000000000000000000000000000000000000EF
:1001100012111000000000000000000000000000AC
:100120000000000000000000000000002200250088
:1001300028002B002E0031003400020100000501D0
:1001400008010B0100002100240027002A002D00D7
:100150003000330001010000040107010A01050518
:100160000505070508080808020202020A0A08082D
:10017000040404040101010101010101030303035B
:1001800003030303040707070C0C0C0C0C0C0C0CEA
:100190000202020206060606060606060B0B0B0BFB
:1001A0000B0B0B0B01021020200808102040102020
:1001B000408002010201080402010102040810202B
:1001C0004080804020100804020180040201804029
:1001D0002010080402010804020101020408102092
:1001E00040800102040810204080D60711241FBE61
:1001F000CFEFD1E2DEBFCDBF00E00CBF12E0A0E048
:10020000B2E0E0E1F9E100E00BBF02C007900D921F
:10021000A636B107D9F723E0A6E6B2E001C01D92E9
:10022000A83BB207E1F710E0C6EFD0E000E006C05F
:1002300021970109802FFE010E947E0CC53FD10746
:1002400080E00807A9F7EBD60C94860CD9CE90E095
:10025000FC01EC55FE4F2491825A9E4FFC01849183
:10026000882399F090E0880F991FFC01EC5BFE4F0A
:10027000A591B491FC01E65DFE4F859194918FB7F5
:10028000F894EC91E22BEC938FBF08950895CF93EF
:10029000DF93AC01E0910103F09102033097F1F09C
:1002A000909100038091FF029817C0F090E0292FF1
:1002B00030E02617370754F4D901AA59BD4F240F4F
:1002C000351FE90128812C939F5FF1CF1092000325
:1002D0006093FF02CB01DF91CF911994DF91CF9111
:1002E0000895AF92BF92CF92DF92EF92FF920F9359
:1002F0001F93CF93DF936C017B018B01040F151FBC
:10030000EB015E01AE18BF08C017D10759F0699123
:10031000D601ED91FC910190F081E02DC601199577
:10032000892B79F7C501DF91CF911F910F91FF9034
:10033000EF90DF90CF90BF90AF900895FC01538D68
:10034000448D252F30E0842F90E0821B930B5417AF
:1003500010F0CF96089501970895FC01918D828D3C
:10036000981761F0A28DAE0FBF2FB11D5D968C91D5
:10037000928D9F5F9F73928F90E008958FEF9FEF14
:100380000895FC01918D828D981731F0828DE80FD0
:10039000F11D858D90E008958FEF9FEF0895FC018A
:1003A000918D228D892F90E0805C9F4F821B910957
:1003B0008F73992708958FE093E0F1DF21E0892B77
:1003C00009F420E0822F0895FC01A48DA80FB92F15
:1003D000B11DA35ABF4F2C91848D90E001968F736D
:1003E0009927848FA689B7892C93A089B1898C918C
:1003F000837080648C93938D848D981306C00288DB
:10040000F389E02D80818F7D80830895EF92FF92A4
:100410000F931F93CF93DF93EC0181E0888F9B8D27
:100420008C8D98131AC0E889F989808185FF15C0E1
:100430009FB7F894EE89FF896083E889F989808104
:100440008370806480839FBF81E090E0DF91CF91D3
:100450001F910F91FF90EF900895F62E0B8D10E0F5
:100460000F5F1F4F0F731127E02E8C8D8E110BC065
:100470000FB607FCFACFE889F989808185FFF5CFAF
:10048000CE01A2DFF2CFEB8DEC0FFD2FF11DE35A71
:10049000FF4FF0829FB7F8940B8FEA89FB89808128
:1004A0008062D0CFCF93DF93EC01888D8823B1F0A9
:1004B000AA89BB89E889F9898C9185FD03C080816F
:1004C00086FD0CC00FB607FCF7CF8C9185FFF2CFED
:1004D000808185FFEDCFCE0177DFEACFDF91CF912D
:1004E000089580E090E0892B21F065DF81110E9462
:1004F000000080E090E0892B49F080E090E0892BBB
:1005000029F00E94000081110E94000080E090E02C
:10051000892B49F080E090E0892B29F00E940000AF
:1005200081110E94000080E090E0892B49F080E07A
:1005300090E0892B29F00E94000081110C940000AA
:100540000895282F30E0F901EC51FF4F9491F90103
:10055000EC55FE4F4491225A3E4FF901249122233B
:1005600009F435C0992311F191509231F8F4E92F33
:10057000F0E08827E154FD4F8F4F0C947E0CF00281
:10058000F402D102E802EC02D602F702FD020103F6
:1005900007030B030F0315031903D6021D032303DF
:1005A0002703809180008F7780938000E22FF0E016
:1005B000EE0FFF1FE65DFE4FA591B4918FB7F89443
:1005C000EC91611148C040954E234C938FBF089524
:1005D000809180008F7DE8CF80918000877FE4CF7D
:1005E00084B58F7784BDE2CF84B58F7DFBCF8091BA
:1005F000B0008F778093B000D9CF8091B0008F7D0D
:10060000F9CF809190008F7780939000CFCF809129
:1006100090008F7DF9CF80919000877FF5CF8091FA
:10062000A0008F778093A000C1CF8091A0008F7D24
:10063000F9CF8091A000877FF5CF809120018F773F
:1006400080932001B3CF809120018F7DF9CF8091DD
:100650002001877FF5CF4E2BB8CF1F93CF93DF9329
:10066000182FEB01F4DD209731F460E0812FDF914A
:10067000CF911F9166CFCF3FD10511F461E0F6CF46
:10068000E12FF0E0EC51FF4FE491E150E23108F04E
:10069000B3C0F0E08827E05BFC4F8F4F0C947E0CDA
:1006A00062036A036F0379038303FC038D039503DD
:1006B0009D03A703B103BB03CA03D403FC03DE03FA
:1006C000E803F20384B5806884BDC7BDDF91CF9194
:1006D0001F91089584B5806284BDC8BDF7CF809115
:1006E0008000806880938000D0938900C093880048
:1006F000EDCF80918000806280938000D0938B004A
:10070000C0938A00E3CF809180008860809380004E
:10071000D0938D00C0938C00D9CF8091B0008068B9
:100720008093B000C093B300D1CF8091B0008062BD
:100730008093B000C093B400C9CF809190008068CE
:1007400080939000D0939900C0939800BFCF809180
:100750009000806280939000D0939B00C0939A0099
:10076000B5CF80919000886080939000D0939D00D9
:10077000C0939C00ABCF8091A00080688093A000C4
:100780008091A0008F7B8093A000D093A900C0939C
:10079000A8009CCF8091A00080628093A000D0939D
:1007A000AB00C093AA0092CF8091A0008860809394
:1007B000A000D093AD00C093AC0088CF8091200101
:1007C000806880932001D0932901C09328017ECFB7
:1007D00080912001806280932001D0932B01C093EF
:1007E0002A0174CF80912001886080932001D093EA
:1007F0002D01C0932C016ACFC038D1050CF03ECF3B
:1008000034CF3FB7F8948091F2029091F302A09117
:10081000F402B091F50226B5A89B05C02F3F19F050
:100820000196A11DB11D3FBFBA2FA92F982F882770
:10083000BC01CD01620F711D811D911D42E0660F4B
:10084000771F881F991F4A95D1F7089585ED8093EA
:10085000BC008091BC0084FDFCCF1092FC02089586
:100860002091A602260F3327331F21323105ECF4E5
:100870002091FC02FC0190E080E0243069F082E0ED
:100880000895A091A6022191AC014A575D4FA40F93
:10089000B52FB11D2C930196861798F38091A6026F
:1008A000680F6093A60280E0089581E0089508959E
:1008B000E09100038091FF02E81730F4F0E0EA597C
:1008C000FD4F808190E008958FEF9FEF0895909104
:1008D00000038091FF022FEF3FEF981748F4E92FB4
:1008E000F0E0EA59FD4F208130E09F5F90930003D4
:1008F000C90108958091FF0290910003891B990B13
:100900000895CF93DF93CB01EA01642FA9DFCE01D5
:10091000DF91CF910895CF93DF931F92CDB7DEB7CC
:10092000698361E0CE0101969BDF81E090E00F904A
:10093000DF91CF91089590E080E008958091FF02CB
:1009400090910003891B990B029744F08CEA93E085
:10095000BEDF682F8FE093E059DDF0CF8CEA93E0A3
:10096000B6DF90930102809300020895FC0101908C
:100970000020E9F73197AF01481B590BBC018FE00C
:1009800093E0AFCCCF93DF93F1DFEC0186E292E00E
:10099000EDDF8C0F9D1FDF91CF91089580910002B4
:1009A000909101029C0121503109273C310548F406
:1009B00084569109909309038093080310920D03C4
:1009C00009C0813E9105D1F781E080930D0389E252
:1009D00092E0CCDF80910002909101028B3E910564
:1009E00019F581E080930E0381E392E0CBDF70E0A4
:1009F00060E084E032DE70E060E085E02EDE70E0F2
:100A000060E086E02ADE70E060E087E026DE80912C
:100A1000000290910102893C910549F481E08093A4
:100A20000C0310920703089510920E03F0CF10925A
:100A30000C038A3C9105A9F781E080930703089590
:100A40008F929F92AF92BF92CF92DF92EF92FF92DE
:100A50000F931F93CF93DF93CDB7DEB7A1970FB658
:100A6000F894DEBF0FBECDBF6C01990FEE08FF08F2
:100A7000F7FE3EC06DE28FE093E0C8DC8C012227D8
:100A80003327A9012C193D094E095F0919A2CE018E
:100A900081967C019AE0892E912CA12CB12CCA015F
:100AA000B901A501940108D7605DF70162937F0148
:100AB000211531054105510591F790E080E030970F
:100AC00011F0CF0153DF800F911FA1960FB6F8945C
:100AD000DEBF0FBECDBFDF91CF911F910F91FF9071
:100AE000EF90DF90CF90BF90AF909F908F90089540
:100AF000A701960119A28E010F5D1F4F8AE0C82E33
:100B0000D12CE12CF12CCA01B901A7019601D4D650
:100B1000605DF80162938F01211531054105510592
:100B200091F790E080E0309781F2CF011FDFCDCFC9
:100B30008F929F92AF92BF92CF92DF92EF92FF92ED
:100B40000F931F93982E892ED62EC72E5A01790106
:100B50008BE392E00BDF892D982D72DF88E492E021
:100B600005DF8D2D9C2D6CDF88E492E0FFDEC50152
:100B700067DF88E492E0FADEC70162DF88E492E092
:100B8000F5DEC8015DDF8BE492E0FCDE692D88E0D4
:100B9000D8DC692D89E0D5DC6D2D8AE0D2DC6D2DA5
:100BA0008BE0CFDCB50184E058DDB50185E055DD93
:100BB000B70186E052DDB70187E04FDD6801110F14
:100BC000EE08FF081EDE4B015C011BDE6819790987
:100BD0008A099B09683E734081059105B0F321E0C5
:100BE000C21AD108E108F10888EE880E83E0981E49
:100BF000A11CB11CC114D104E104F10431F71F910F
:100C00000F91FF90EF90DF90CF90BF90AF909F90AB
:100C10008F9008951F920F920FB60F9211240BB66A
:100C20000F922F933F934F935F936F937F938F9385
:100C30009F93AF93BF93EF93FF938FE093E0C4DB59
:100C4000FF91EF91BF91AF919F918F917F916F91A4
:100C50005F914F913F912F910F900BBE0F900FBE60
:100C60000F901F9018951F920F920FB60F9211249C
:100C70000BB60F922F938F939F93EF93FF93E09177
:100C80001F03F09120038081E0912503F09126035A
:100C900082FD1DC09081809128038F5F8F7320910A
:100CA0002903821741F0E0912803F0E0E15FFC4F57
:100CB000958F80932803FF91EF919F918F912F91B2
:100CC0000F900BBE0F900FBE0F901F901895808154
:100CD000F2CF1F920F920FB60F9211242F933F93D2
:100CE0008F939F93AF93BF938091EE029091EF0209
:100CF000A091F002B091F1023091ED0223E0230FB8
:100D00002D3758F50196A11DB11D2093ED0280935A
:100D1000EE029093EF02A093F002B093F102809163
:100D2000F2029091F302A091F402B091F5020196C3
:100D3000A11DB11D8093F2029093F302A093F402DF
:100D4000B093F502BF91AF919F918F913F912F91F9
:100D50000F900FBE0F901F90189526E8230F029654
:100D6000A11DB11DD2CF1F920F920FB60F92112469
:100D70000BB60F922F933F934F935F936F937F9395
:100D80008F939F93AF93BF93EF93FF938091B9009D
:100D9000887F803609F44CC008F03FC0883209F4DF
:100DA000A8C028F5803109F49CC0C8F4882309F450
:100DB000FAC0883009F495C0FF91EF91BF91AF91CF
:100DC0009F918F917F916F915F914F913F912F9163
:100DD0000F900BBE0F900FBE0F901F90189588318B
:100DE00009F487C0803241F78093C90214C080346F
:100DF00009F49CC040F48033B9F38833E9F680935A
:100E0000C90285ECAFC0803509F484C0883509F487
:100E100095C0883489F61ADDCFCF883909F48CC0A3
:100E200038F5883729F050F4883611F0803721F6EC
:100E300083E08093FC021092C80257C0883809F4FE
:100E40007BC0803919F0803809F0B6CF8091C80294
:100E5000803208F071C0E091C80281E08E0F80936B
:100E6000C8028091BB00F0E0E855FD4F80833DC093
:100E7000803B39F0E0F4803A09F479C0883A09F00F
:100E80009BCF84E08093FC021092A7021092A602EE
:100E9000E091F802F091F90219958091A602811172
:100EA0000FC081E08093A6021092860209C0803CA8
:100EB00009F4A7CF883C09F4A4CF883B09F07CCF84
:100EC000E091A70281E08E0F8093A702F0E0EA573D
:100ED000FD4F80818093BB009091A7028091A60274
:100EE00029C08091EC028093BB0085EC8093BC000C
:100EF00063CF9091EB028091EA02981758F5E09148
:100F0000EB0281E08E0F8093EB02F0E0E653FD4FA1
:100F10008081E9CFE091EB0281E08E0F8093EB02BC
:100F20008091BB00F0E0E653FD4F80839091EB028F
:100F30008091EA029817C8F285E8D8CFE091EB02D9
:100F400081E08E0F8093EB028091BB00F0E0E653CE
:100F5000FD4F80838091FB0281115DCF81E0809302
:100F6000FA0284EA8093BC001092FC0225CF85EC43
:100F70008093BC001092FC028091C802803230F451
:100F8000E091C802F0E0E855FD4F10826091C80280
:100F900070E0E091F602F091F70288EA92E019958C
:100FA0001092C80209CF1092C90235CFEFE0F3E0EA
:100FB0001382128288EE93E0A0E0B0E084839583F0
:100FC000A683B78326E032E03183208325EC30E02E
:100FD0003587248724EC30E03787268720EC30E003
:100FE000318B208B21EC30E0338B228B22EC30E0F4
:100FF000358B248B26EC30E0378B268B118E128EAE
:10100000138E148EECEAF3E01382128284839583AC
:10101000A683B78388E192E09183808308957894D2
:1010200084B5826084BD84B5816084BD85B58260ED
:1010300085BD85B5816085BD80916E00816080939E
:101040006E00109281008091810082608093810007
:101050008091810081608093810080918000816017
:10106000809380008091B10084608093B100809172
:10107000B00081608093B000809191008260809385
:101080009100809191008160809391008091900007
:101090008160809390008091A10082608093A10084
:1010A0008091A10081608093A1008091A000816067
:1010B0008093A00080912101826080932101809122
:1010C00021018160809321018091200181608093C2
:1010D000200180917A00846080937A0080917A0068
:1010E000826080937A0080917A00816080937A0098
:1010F00080917A00806880937A001092C1001092EB
:1011000000031092FF021092FE021092FD02109254
:10111000FC0281E08093FB021092FA0261E084E11C
:1011200010DA61E085E10DDA8091B9008E7F80935D
:10113000B9008091B9008D7F8093B90088E48093D5
:10114000B80085E48093BC0086E491E09093F902B6
:101150008093F80287E491E09093F7028093F6027F
:1011600088E08093BA008EE994E090930203809324
:101170000103E0911F03F091200382E08083E0915E
:101180001B03F0911C031082E0911D03F0911E03DC
:101190008FEC808310922703E0912303F0912403C6
:1011A00086E08083E0912103F091220380818061B9
:1011B0008083E0912103F091220380818860808305
:1011C000E0912103F0912203808180688083E09187
:1011D0002103F091220380818F7D808384E037D8C2
:1011E00085E035D886E033D887E031D888E02FD83D
:1011F00089E02DD88AE02BD88BE029D882E3E82E2D
:10120000F12CCC24CA94D12CC9DB80910E0381111E
:10121000C9C1C4DBC0910803D09109031C161D0687
:101220000CF0BCC0BE010D2E000C880B990B55D2E2
:101230004B015C012DEC3CEC4CE45EE3DAD220E0A7
:1012400030E048E452E4B2D120E030E0A901AED170
:1012500011D270930603609305032AE939E949E93D
:101260005FE3C501B401C5D29B01AC0160E070E051
:1012700088E492E49AD120E030E0A90197D1FAD134
:101280007093040360930303809105039091060318
:1012900097FFA7C01092060310920503CD2B41F4CF
:1012A000F0920603E0920503F0920403E092030338
:1012B000809103039091040397FF9DC01092040353
:1012C0001092030360E088E03CD960E08AE039D9FD
:1012D00060E089E036D960E08BE033D9C091050346
:1012E000D0910603D7FF02C0C1E0D0E00091030314
:1012F000109104035E01480117FF06C0AA24A394BD
:10130000B12C88248394912CC5019ADB86E292E06B
:101310002DDBBE0184E0A1D9B50185E09ED9B801DD
:1013200086E09BD9B40187E098D980910803909119
:10133000090386DB88E492E019DB80910503909134
:1013400006037EDB88E492E011DB80910303909139
:10135000040376DB8BE492E015DB80910D03882398
:1013600009F453C00CE211E026E430E046E450E01A
:1013700070E060E090E080E0DBDB10DB80910D034B
:10138000882309F442C001E010E026E430E046E49E
:1013900050E061E070E081E090E0EECF209709F44A
:1013A00073CFBE010D2E000C880B990B96D14B010B
:1013B0005C012AE939E949E95FE31BD220E030E02A
:1013C00048E452E4F3D020E030E0A901EFD052D15C
:1013D00070930603609305032DEC3CEC4CE45EE354
:1013E00040CF8F3F910509F00CF458CFD0920603FF
:1013F000C092050353CF8F3F910509F00CF462CFE3
:10140000D0920403C09203035DCF80910C03882324
:1014100009F440C010920B0310920A038DE492E08D
:10142000B1DA00E911E026E430E046E450E070E093
:1014300060E090E080E07CDB8091080390910903FC
:10144000823E9F4F3CF50AE010E026E430E046E49F
:1014500050E070E060E081E090E06ADB9FDA80912C
:101460000A0390910B03019690930B0380930A0358
:10147000CC9714F300ED17E030E020E050E040E0BE
:1014800070E060E090E080E053DB10920B0310927C
:101490000A03D2CF80910703882309F43FC010923A
:1014A0000B0310920A0389E592E06CDA00E911E07F
:1014B00026E430E046E450E070E060E090E080E058
:1014C00037DB80910803909109034F973CF10AE0C4
:1014D00010E026E430E046E450E061E070E090E0A7
:1014E00080E026DB5BDA80910A0390910B03019682
:1014F00090930B0380930A03CC971CF300ED17E045
:1015000030E020E050E040E070E060E090E080E01B
:101510000FDB10920B0310920A03D3CF80910803C4
:10152000909109038A3B9F4FD4F480910D03811160
:1015300016C002E310E026E430E046E450E061E04B
:1015400070E081E090E0F4DA0CE211E026E430E0B3
:1015500046E450E070E060E081E090E0E9DA8091FC
:10156000080390910903873491050CF44ECE8091C5
:101570000D0381114ACE02E310E026E430E046E498
:1015800050E061E070E081E090E0D2DA0CE211E03E
:1015900026E430E046E450E061E070E090E080E076
:1015A000C7DA33CE0E9471022FCE5058BB27AA272C
:1015B0000ED0E5C0D6D030F0DBD020F031F49F3F24
:1015C00011F41EF4CBC00EF4E095E7FBC1C0E92F87
:1015D000E7D080F3BA17620773078407950718F0FE
:1015E00071F49EF5FFC00EF4E0950B2EBA2FA02DDE
:1015F0000B01B90190010C01CA01A0011124FF27C0
:10160000591B99F0593F50F4503E68F11A16F040BA
:10161000A22F232F342F4427585FF3CF46953795B9
:101620002795A795F0405395C9F77EF41F16BA0B7E
:10163000620B730B840BBAF09150A1F0FF0FBB1F2C
:10164000661F771F881FC2F70EC0BA0F621F731F75
:10165000841F48F4879577956795B795F7959E3FD2
:1016600008F0B3CF9395880F08F09927EE0F979560
:101670008795089504D06894B111B5C0089598D0A5
:1016800088F09F5790F0B92F9927B751A0F0D1F06B
:10169000660F771F881F991F1AF0BA95C9F712C0F5
:1016A000B13081F09FD0B1E008959CC0672F782FB2
:1016B0008827B85F39F0B93FCCF386957795679561
:1016C000B395D9F73EF490958095709561957F4FCD
:1016D0008F4F9F4F0895E89409C097FB3EF4909573
:1016E0008095709561957F4F8F4F9F4F9923A9F0FB
:1016F000F92F96E9BB279395F6958795779567958A
:10170000B795F111F8CFFAF4BB0F11F460FF1BC0CD
:101710006F5F7F4F8F4F9F4F16C0882311F096E960
:1017200011C0772321F09EE8872F762F05C066230E
:1017300071F096E8862F70E060E02AF09A95660FC7
:10174000771F881FDAF7880F9695879597F9089580
:1017500097F99F6780E870E060E008959FEF80EC64
:10176000089500240A941616170618060906089507
:1017700000240A9412161306140605060895092E6D
:101780000394000C11F4882352F0BB0F40F4BF2BDC
:1017900011F460FF04C06F5F7F4F8F4F9F4F08951C
:1017A00057FD9058440F551F59F05F3F71F0479512
:1017B000880F97FB991F61F09F3F79F087950895F7
:1017C000121613061406551FF2CF4695F1DF08C016
:1017D000161617061806991FF1CF86957105610533
:1017E00008940895E894BB2766277727CB0197F9DB
:1017F00008950BD0C4CFB5DF28F0BADF18F09523D9
:1018000009F0A6CFABCF1124EECFCADFA0F3959F8E
:10181000D1F3950F50E0551F629FF001729FBB27D7
:10182000F00DB11D639FAA27F00DB11DAA1F649F83
:101830006627B00DA11D661F829F2227B00DA11D36
:10184000621F739FB00DA11D621F839FA00D611DBC
:10185000221F749F3327A00D611D231F849F600DDD
:10186000211D822F762F6A2F11249F5750408AF016
:10187000E1F088234AF0EE0FFF1FBB1F661F771FA2
:10188000881F91505040A9F79E3F510570F060CFDE
:10189000AACF5F3FECF3983EDCF38695779567958A
:1018A000B795F795E7959F5FC1F7FE2B880F911DC0
:1018B0009695879597F90895A1E21A2EAA1BBB1B4E
:1018C000FD010DC0AA1FBB1FEE1FFF1FA217B3070C
:1018D000E407F50720F0A21BB30BE40BF50B661F22
:1018E000771F881F991F1A9469F7609570958095E6
:1018F00090959B01AC01BD01CF010895EE0FFF1F34
:10190000881F8BBF0790F691E02D1994F894FFCFB4
:10191000FA0000000000060271019E015202CF0190
:10192000AD01C101000000008B0481049B04570439
:101930007A04670458040D0A006E6F204C696E65C6
:101940000073746F707065642E2E00777269746511
:101950004D6F746F723A20002C20003B00636F7251
:101960006E65724C6566742E00636F726E6572529E
:06197000696768742E0097
:00000001FF
