:10000000F5C0000023C1000021C100001FC1000095
:100010001DC100001BC1000019C1000017C1000074
:1000200015C1000013C1000011C100000FC1000084
:100030000DC100000BC1000009C1000007C1000094
:1000400005C1000003C1000001C10000FFC00000A5
:10005000FDC00000FBC00000F9C0000050C6000059
:10006000F5C0000016C60000EBC50000EFC00000A0
:10007000EDC00000EBC00000E9C00000E7C00000D8
:10008000E5C00000E3C00000E1C00000DFC00000E8
:10009000DDC00000DBC00000D9C000007AC600004F
:1000A000D5C00000D3C00000D1C00000CFC0000008
:1000B000CDC00000CBC00000C9C00000C7C0000018
:1000C000C5C00000C3C00000C1C00000BFC0000028
:1000D000BDC00000BBC00000B9C00000B7C0000038
:1000E000B5C0000000000A0B02090C0D0E08070342
:1000F00004010000000000000000000000000000FB
:1001000000000000000000000000000000000000EF
:1001100012111000000000000000000000000000AC
:100120000000000000000000000000002200250088
:1001300028002B002E0031003400020100000501D0
:1001400008010B0100002100240027002A002D00D7
:100150003000330001010000040107010A01050518
:100160000505070508080808020202020A0A08082D
:10017000040404040101010101010101030303035B
:1001800003030303040707070C0C0C0C0C0C0C0CEA
:100190000202020206060606060606060B0B0B0BFB
:1001A0000B0B0B0B01021020200808102040102020
:1001B000408002010201080402010102040810202B
:1001C0004080804020100804020180040201804029
:1001D0002010080402010804020101020408102092
:1001E00040800102040810204080EC0711241FBE4B
:1001F000CFEFD1E2DEBFCDBF00E00CBF12E0A0E048
:10020000B2E0E4EBF9E100E00BBF02C007900D9211
:10021000A837B107D9F723E0A8E7B2E001C01D92E3
:10022000AD3CB207E1F710E0C6EFD0E000E006C059
:1002300021970109802FFE010E94D00CC53FD107F4
:1002400080E00807A9F701D70C94D80CD9CE90E02C
:10025000FC01EC55FE4F2491825A9E4FFC01849183
:10026000882399F090E0880F991FFC01EC5BFE4F0A
:10027000A591B491FC01E65DFE4F859194918FB7F5
:10028000F894EC91E22BEC938FBF08950895CF93EF
:10029000DF93AC01E0911303F09114033097F1F078
:1002A00090911203809111039817C0F090E0292FCC
:1002B00030E02617370754F4D901A858BD4F240F52
:1002C000351FE90128812C939F5FF1CF1092120313
:1002D00060931103CB01DF91CF911994DF91CF91FE
:1002E0000895AF92BF92CF92DF92EF92FF920F9359
:1002F0001F93CF93DF936C017B018B01040F151FBC
:10030000EB015E01AE18BF08C017D10759F0699123
:10031000D601ED91FC910190F081E02DC601199577
:10032000892B79F7C501DF91CF911F910F91FF9034
:10033000EF90DF90CF90BF90AF900895FC01538D68
:10034000448D252F30E0842F90E0821B930B5417AF
:1003500010F0CF96089501970895FC01918D828D3C
:10036000981761F0A28DAE0FBF2FB11D5D968C91D5
:10037000928D9F5F9F73928F90E008958FEF9FEF14
:100380000895FC01918D828D981731F0828DE80FD0
:10039000F11D858D90E008958FEF9FEF0895FC018A
:1003A000918D228D892F90E0805C9F4F821B910957
:1003B0008F739927089584E293E0F1DF21E0892B80
:1003C00009F420E0822F0895FC01A48DA80FB92F15
:1003D000B11DA35ABF4F2C91848D90E001968F736D
:1003E0009927848FA689B7892C93A089B1898C918C
:1003F000837080648C93938D848D981306C00288DB
:10040000F389E02D80818F7D80830895EF92FF92A4
:100410000F931F93CF93DF93EC0181E0888F9B8D27
:100420008C8D98131AC0E889F989808185FF15C0E1
:100430009FB7F894EE89FF896083E889F989808104
:100440008370806480839FBF81E090E0DF91CF91D3
:100450001F910F91FF90EF900895F62E0B8D10E0F5
:100460000F5F1F4F0F731127E02E8C8D8E110BC065
:100470000FB607FCFACFE889F989808185FFF5CFAF
:10048000CE01A2DFF2CFEB8DEC0FFD2FF11DE35A71
:10049000FF4FF0829FB7F8940B8FEA89FB89808128
:1004A0008062D0CFCF93DF93EC01888D8823B1F0A9
:1004B000AA89BB89E889F9898C9185FD03C080816F
:1004C00086FD0CC00FB607FCF7CF8C9185FFF2CFED
:1004D000808185FFEDCFCE0177DFEACFDF91CF912D
:1004E000089580E090E0892B21F065DF81110E9462
:1004F000000080E090E0892B49F080E090E0892BBB
:1005000029F00E94000081110E94000080E090E02C
:10051000892B49F080E090E0892B29F00E940000AF
:1005200081110E94000080E090E0892B49F080E07A
:1005300090E0892B29F00E94000081110C940000AA
:100540000895282F30E0F901EC51FF4F9491F90103
:10055000EC55FE4F4491225A3E4FF901249122233B
:1005600009F435C0992311F191509231F8F4E92F33
:10057000F0E08827E154FD4F8F4F0C94D00CF0022F
:10058000F402D102E802EC02D602F702FD020103F6
:1005900007030B030F0315031903D6021D032303DF
:1005A0002703809180008F7780938000E22FF0E016
:1005B000EE0FFF1FE65DFE4FA591B4918FB7F89443
:1005C000EC91611148C040954E234C938FBF089524
:1005D000809180008F7DE8CF80918000877FE4CF7D
:1005E00084B58F7784BDE2CF84B58F7DFBCF8091BA
:1005F000B0008F778093B000D9CF8091B0008F7D0D
:10060000F9CF809190008F7780939000CFCF809129
:1006100090008F7DF9CF80919000877FF5CF8091FA
:10062000A0008F778093A000C1CF8091A0008F7D24
:10063000F9CF8091A000877FF5CF809120018F773F
:1006400080932001B3CF809120018F7DF9CF8091DD
:100650002001877FF5CF4E2BB8CF1F93CF93DF9329
:10066000182FEB01F4DD209731F460E0812FDF914A
:10067000CF911F9166CFCF3FD10511F461E0F6CF46
:10068000E12FF0E0EC51FF4FE491E150E23108F04E
:10069000B3C0F0E08827E05BFC4F8F4F0C94D00C88
:1006A00062036A036F0379038303FC038D039503DD
:1006B0009D03A703B103BB03CA03D403FC03DE03FA
:1006C000E803F20384B5806884BDC7BDDF91CF9194
:1006D0001F91089584B5806284BDC8BDF7CF809115
:1006E0008000806880938000D0938900C093880048
:1006F000EDCF80918000806280938000D0938B004A
:10070000C0938A00E3CF809180008860809380004E
:10071000D0938D00C0938C00D9CF8091B0008068B9
:100720008093B000C093B300D1CF8091B0008062BD
:100730008093B000C093B400C9CF809190008068CE
:1007400080939000D0939900C0939800BFCF809180
:100750009000806280939000D0939B00C0939A0099
:10076000B5CF80919000886080939000D0939D00D9
:10077000C0939C00ABCF8091A00080688093A000C4
:100780008091A0008F7B8093A000D093A900C0939C
:10079000A8009CCF8091A00080628093A000D0939D
:1007A000AB00C093AA0092CF8091A0008860809394
:1007B000A000D093AD00C093AC0088CF8091200101
:1007C000806880932001D0932901C09328017ECFB7
:1007D00080912001806280932001D0932B01C093EF
:1007E0002A0174CF80912001886080932001D093EA
:1007F0002D01C0932C016ACFC038D1050CF03ECF3B
:1008000034CF3FB7F8948091040390910503A091F1
:100810000603B091070326B5A89B05C02F3F19F02A
:100820000196A11DB11D3FBFBA2FA92F982F882770
:10083000BC01CD01620F711D811D911D42E0660F4B
:10084000771F881F991F4A95D1F7089585ED8093EA
:10085000BC008091BC0084FDFCCF10920E03089573
:100860002091B802260F3327331F21323105ECF4D3
:1008700020910E03FC0190E080E0243069F082E0DA
:100880000895A091B8022191AC0148565D4FA40F84
:10089000B52FB11D2C930196861798F38091B8025D
:1008A000680F6093B80280E0089581E0089508958C
:1008B000E091120380911103E81730F4F0E0E8585A
:1008C000FD4F808190E008958FEF9FEF0895909104
:1008D0001203809111032FEF3FEF981748F4E92F8F
:1008E000F0E0E858FD4F208130E09F5F90931203C5
:1008F000C90108958091110390911203891B990BEE
:100900000895CF93DF93CB01EA01642FA9DFCE01D5
:10091000DF91CF910895CF93DF931F92CDB7DEB7CC
:10092000698361E0CE0101969BDF81E090E00F904A
:10093000DF91CF91089590E080E0089580911103B8
:1009400090911203891B990B029744F081EC93E07C
:10095000BEDF682F84E293E059DDF0CF81EC93E0B5
:10096000B6DF90930102809300020895FC0101908C
:100970000020E9F73197AF01481B590BBC0184E215
:1009800093E0AFCCCF93DF93F1DFEC0186E292E00E
:10099000EDDF8C0F9D1FDF91CF91089580910002B4
:1009A000909101029C0121503109273C310548F406
:1009B0008456910990931B0380931A03109222038B
:1009C00009C0813E9105D1F781E08093220389E23D
:1009D00092E0CCDF80910002909101028B3E910564
:1009E00069F581E08093230381E392E0CBDF70E03F
:1009F00060E084E032DE70E060E085E02EDE70E0F2
:100A000060E086E02ADE70E060E087E026DE80912C
:100A10000002909101028E3C910599F410922103FD
:100A2000803D9105B9F010921F03893C9105A9F40E
:100A300081E080931E0310921903089510922303FE
:100A4000E6CF109221038F3C910541F721E02093DE
:100A50002003E9CF21E020931F0310921E038A3C5C
:100A6000910549F781E08093190308958F929F9231
:100A7000AF92BF92CF92DF92EF92FF920F931F93AC
:100A8000CF93DF93CDB7DEB7A1970FB6F894DEBF53
:100A90000FBECDBF6C01990FEE08FF08F7FE3EC0F8
:100AA0006DE284E293E0B2DC8C0122273327A901B6
:100AB0002C193D094E095F0919A2CE0181967C01CE
:100AC0009AE0892E912CA12CB12CCA01B901A50163
:100AD000940144D7605DF70162937F0121153105D0
:100AE0004105510591F790E080E0309711F0CF017A
:100AF0003DDF800F911FA1960FB6F894DEBF0FBEA9
:100B0000CDBFDF91CF911F910F91FF90EF90DF90BC
:100B1000CF90BF90AF909F908F900895A7019601BE
:100B200019A28E010F5D1F4F8AE0C82ED12CE12C37
:100B3000F12CCA01B901A701960110D7605DF80137
:100B400062938F01211531054105510591F790E020
:100B500080E0309781F2CF0109DFCDCF8F929F9255
:100B6000AF92BF92CF92DF92EF92FF920F931F93BB
:100B7000982E892ED62EC72E5A0179018BE392E04A
:100B8000F5DE892D982D72DF88E492E0EFDE8D2D61
:100B90009C2D6CDF88E492E0E9DEC50167DF88E424
:100BA00092E0E4DEC70162DF88E492E0DFDEC801A4
:100BB0005DDF8BE492E0E6DE692D88E0C2DC692D22
:100BC00089E0BFDC6D2D8AE0BCDC6D2D8BE0B9DCEB
:100BD000B50184E042DDB50185E03FDDB70186E087
:100BE0003CDDB70187E039DD6801110FEE08FF0831
:100BF00008DE4B015C0105DE681979098A099B0949
:100C0000683E734081059105B0F321E0C21AD10816
:100C1000E108F10888EE880E83E0981EA11CB11C43
:100C2000C114D104E104F10431F71F910F91FF9039
:100C3000EF90DF90CF90BF90AF909F908F900895EE
:100C40001F920F920FB60F9211240BB60F922F9393
:100C50003F934F935F936F937F938F939F93AF9344
:100C6000BF93EF93FF9384E293E0AEDBFF91EF91AC
:100C7000BF91AF919F918F917F916F915F914F91B4
:100C80003F912F910F900BBE0F900FBE0F901F90B2
:100C900018951F920F920FB60F9211240BB60F9258
:100CA0002F938F939F93EF93FF93E0913403F091F1
:100CB00035038081E0913A03F0913B0382FD1DC032
:100CC000908180913D038F5F8F7320913E03821747
:100CD00041F0E0913D03F0E0EC5DFC4F958F809397
:100CE0003D03FF91EF919F918F912F910F900BBE3C
:100CF0000F900FBE0F901F9018958081F2CF1F921A
:100D00000F920FB60F9211242F933F938F939F93BF
:100D1000AF93BF938091000390910103A0910203D0
:100D2000B09103033091FF0223E0230F2D3758F5D4
:100D30000196A11DB11D2093FF02809300039093A3
:100D40000103A0930203B0930303809104039091E5
:100D50000503A0910603B09107030196A11DB11DE3
:100D60008093040390930503A0930603B0930703B5
:100D7000BF91AF919F918F913F912F910F900FBE97
:100D80000F901F90189526E8230F0296A11DB11D04
:100D9000D2CF1F920F920FB60F9211240BB60F9263
:100DA0002F933F934F935F936F937F938F939F9373
:100DB000AF93BF93EF93FF938091B900887F803604
:100DC00009F44CC008F03FC0883209F4A8C028F5E7
:100DD000803109F49CC0C8F4882309F4FAC0883033
:100DE00009F495C0FF91EF91BF91AF919F918F91C1
:100DF0007F916F915F914F913F912F910F900BBE1B
:100E00000F900FBE0F901F901895883109F487C07E
:100E1000803241F78093DB0214C0803409F49CC017
:100E200040F48033B9F38833E9F68093DB0285EC34
:100E3000AFC0803509F484C0883509F495C0883482
:100E400089F604DDCFCF883909F48CC038F58837AE
:100E500029F050F4883611F0803721F683E0809332
:100E60000E031092DA0257C0883809F47BC080392B
:100E700019F0803809F0B6CF8091DA02803208F09C
:100E800071C0E091DA0281E08E0F8093DA028091E6
:100E9000BB00F0E0E654FD4F80833DC0803B39F05D
:100EA000E0F4803A09F479C0883A09F09BCF84E0F5
:100EB00080930E031092B9021092B802E0910A03D7
:100EC000F0910B0319958091B80281110FC081E058
:100ED0008093B8021092980209C0803C09F4A7CF11
:100EE000883C09F4A4CF883B09F07CCFE091B9029B
:100EF00081E08E0F8093B902F0E0E856FD4F8081CB
:100F00008093BB009091B9028091B80229C0809172
:100F1000FE028093BB0085EC8093BC0063CF909170
:100F2000FD028091FC02981758F5E091FD0281E0E6
:100F30008E0F8093FD02F0E0E452FD4F8081E9CFF7
:100F4000E091FD0281E08E0F8093FD028091BB0055
:100F5000F0E0E452FD4F80839091FD028091FC020D
:100F60009817C8F285E8D8CFE091FD0281E08E0F96
:100F70008093FD028091BB00F0E0E452FD4F80833E
:100F800080910D0381115DCF81E080930C0384EA91
:100F90008093BC0010920E0325CF85EC8093BC009B
:100FA00010920E038091DA02803230F4E091DA027E
:100FB000F0E0E654FD4F10826091DA0270E0E091BB
:100FC0000803F09109038AEB92E019951092DA0276
:100FD00009CF1092DB0235CFE4E2F3E013821282F4
:100FE00088EE93E0A0E0B0E084839583A683B78386
:100FF00026E032E03183208325EC30E035872487FA
:1010000024EC30E03787268720EC30E0318B208BD2
:1010100021EC30E0338B228B22EC30E0358B248BBB
:1010200026EC30E0378B268B118E128E138E148EA9
:10103000E1ECF3E01382128284839583A683B78365
:1010400088E192E0918380830895789484B58260EA
:1010500084BD84B5816084BD85B5826085BD85B55C
:10106000816085BD80916E00816080936E001092DA
:101070008100809181008260809381008091810055
:1010800081608093810080918000816080938000E6
:101090008091B10084608093B1008091B000816044
:1010A0008093B00080919100826080939100809144
:1010B0009100816080939100809190008160809385
:1010C00090008091A10082608093A1008091A10096
:1010D00081608093A1008091A00081608093A00036
:1010E00080912101826080932101809121018160A2
:1010F0008093210180912001816080932001809163
:101100007A00846080937A0080917A008260809374
:101110007A0080917A00816080937A0080917A00D1
:10112000806880937A001092C1001092120310928E
:1011300011031092100310920F0310920E0381E01E
:1011400080930D0310920C0361E084E1FAD961E011
:1011500085E1F7D98091B9008E7F8093B9008091A5
:10116000B9008D7F8093B90088E48093B80085E44E
:101170008093BC0086E491E090930B0380930A0374
:1011800087E491E0909309038093080388E08093BB
:10119000BA008EE994E09093140380931303E091D6
:1011A0003403F091350382E08083E0913003F091C5
:1011B00031031082E0913203F09133038FEC80838E
:1011C00010923C03E0913803F091390386E080836C
:1011D000E0913603F0913703808180618083E09154
:1011E0003603F0913703808188608083E091360375
:1011F000F0913703808180688083E0913603F0911D
:10120000370380818F7D808384E021D885E01FD8DB
:1012100086E01DD887E01BD888E019D889E017D868
:101220008AE015D88BE013D882E3E82EF12CCC2489
:10123000CA94D12CB3DB80912303811105C2AEDBAC
:10124000C0911A03D0911B031C161D060CF0BCC0E4
:10125000BE010D2E000C880B990B91D24B015C0145
:101260002DEC3CEC4CE45EE316D320E030E048E4A7
:1012700052E4EED120E030E0A901EAD14DD27093E2
:101280001803609317032AE939E949E95FE3C501C7
:10129000B40101D39B01AC0160E070E088E492E40A
:1012A000D6D120E030E0A901D3D136D27093160315
:1012B00060931503809117039091180397FFA7C0BF
:1012C0001092180310921703CD2B41F4F0921803DB
:1012D000E0921703F0921603E09215038091150334
:1012E0009091160397FF9DC010921603109215035C
:1012F00060E088E026D960E08AE023D960E089E0F8
:1013000020D960E08BE01DD9C0911703D09118035C
:10131000D7FF02C0C1E0D0E0009115031091160381
:101320005E01480117FF06C0AA24A394B12C8824AB
:101330008394912CC5019ADB86E292E017DBBE0113
:1013400084E08BD9B50185E088D9B80186E085D9DC
:10135000B40187E082D980911A0390911B0386DB48
:1013600088E492E003DB80911703909118037EDB01
:1013700088E492E0FBDA809115039091160376DB06
:101380008BE492E0FFDA80912203882309F453C0B2
:101390000CE211E026E430E046E450E070E060E06A
:1013A00090E080E0DBDBFADA80912203882309F405
:1013B00042C001E010E026E430E046E450E061E0A5
:1013C00070E081E090E0EECF209709F473CFBE018A
:1013D0000D2E000C880B990BD2D14B015C012AE930
:1013E00039E949E95FE357D220E030E048E452E4CC
:1013F0002FD120E030E0A9012BD18ED170931803BA
:10140000609317032DEC3CEC4CE45EE340CF8F3F40
:10141000910509F00CF458CFD0921803C09217032D
:1014200053CF8F3F910509F00CF462CFD092160391
:10143000C09215035DCF80912103882381F08DE454
:1014400092E0A0DA08EE13E021E030E041E050E065
:1014500070E060E090E080E081DB109221038091F9
:101460002003882381F083E592E08CDA08EE13E014
:1014700021E030E041E050E070E060E090E080E0AA
:101480006DDB1092200380911F03882381F08AE591
:1014900092E078DA08EE13E021E030E041E050E03D
:1014A00070E060E090E080E059DB10921F038091D3
:1014B0001E03882309F440C010921D0310921C03E0
:1014C0008FE592E05FDA00E911E026E430E046E4DF
:1014D00050E070E060E090E080E040DB80911A0333
:1014E00090911B03823E9F4F3CF50AE010E026E4FA
:1014F00030E046E450E070E060E081E090E02EDB18
:101500004DDA80911C0390911D03019690931D0369
:1015100080931C03CC9714F300ED17E030E020E03B
:1015200050E040E070E060E090E080E017DB109277
:101530001D0310921C03D2CF80911903882309F454
:101540003FC010921D0310921C038BE692E01ADA42
:1015500000E911E026E430E046E450E070E060E0AD
:1015600090E080E0FBDA80911A0390911B034F9783
:101570003CF10AE010E026E430E046E450E061E0AF
:1015800070E090E080E0EADA09DA80911C03909143
:101590001D03019690931D0380931C03CC971CF3AD
:1015A00000ED17E030E020E050E040E070E060E067
:1015B00090E080E0D3DA10921D0310921C03D3CF89
:1015C00080911A0390911B038A3B9F4FD4F4809122
:1015D0002203811116C002E310E026E430E046E465
:1015E00050E061E070E081E090E0B8DA0CE211E0F8
:1015F00026E430E046E450E070E060E081E090E016
:10160000ADDA80911A0390911B03873491050CF495
:1016100012CE8091220381110ECE02E310E026E467
:1016200030E046E450E061E070E081E090E096DA7E
:101630000CE211E026E430E046E450E061E070E0C6
:1016400090E080E08BDAF7CD0E947102F3CD505824
:10165000BB27AA270ED0E5C0D6D030F0DBD020F0D3
:1016600031F49F3F11F41EF4CBC00EF4E095E7FB7C
:10167000C1C0E92FE7D080F3BA1762077307840768
:10168000950718F071F49EF5FFC00EF4E0950B2E4F
:10169000BA2FA02D0B01B90190010C01CA01A001C4
:1016A0001124FF27591B99F0593F50F4503E68F11F
:1016B0001A16F040A22F232F342F4427585FF3CF60
:1016C000469537952795A795F0405395C9F77EF431
:1016D0001F16BA0B620B730B840BBAF09150A1F07A
:1016E000FF0FBB1F661F771F881FC2F70EC0BA0F00
:1016F000621F731F841F48F4879577956795B79588
:10170000F7959E3F08F0B3CF9395880F08F099277F
:10171000EE0F97958795089504D06894B111B5C0E0
:10172000089598D088F09F5790F0B92F9927B75116
:10173000A0F0D1F0660F771F881F991F1AF0BA9595
:10174000C9F712C0B13081F09FD0B1E008959CC0BC
:10175000672F782F8827B85F39F0B93FCCF386958B
:1017600077956795B395D9F73EF4909580957095E8
:1017700061957F4F8F4F9F4F0895E89409C097FB65
:101780003EF490958095709561957F4F8F4F9F4F58
:101790009923A9F0F92F96E9BB279395F69587959C
:1017A00077956795B795F111F8CFFAF4BB0F11F45F
:1017B00060FF1BC06F5F7F4F8F4F9F4F16C0882306
:1017C00011F096E911C0772321F09EE8872F762F3C
:1017D00005C0662371F096E8862F70E060E02AF07D
:1017E0009A95660F771F881FDAF7880F9695879569
:1017F00097F9089597F99F6780E870E060E0089591
:101800009FEF80EC089500240A9416161706180618
:101810000906089500240A941216130614060506F4
:101820000895092E0394000C11F4882352F0BB0F85
:1018300040F4BF2B11F460FF04C06F5F7F4F8F4FE8
:101840009F4F089557FD9058440F551F59F05F3F23
:1018500071F04795880F97FB991F61F09F3F79F0D2
:1018600087950895121613061406551FF2CF469554
:10187000F1DF08C0161617061806991FF1CF8695D6
:101880007105610508940895E894BB2766277727BA
:10189000CB0197F908950BD0C4CFB5DF28F0BADF9C
:1018A00018F0952309F0A6CFABCF1124EECFCADFF5
:1018B000A0F3959FD1F3950F50E0551F629FF00163
:1018C000729FBB27F00DB11D639FAA27F00DB11DBC
:1018D000AA1F649F6627B00DA11D661F829F222745
:1018E000B00DA11D621F739FB00DA11D621F839FCC
:1018F000A00D611D221F749F3327A00D611D231FA2
:10190000849F600D211D822F762F6A2F11249F57EF
:1019100050408AF0E1F088234AF0EE0FFF1FBB1F12
:10192000661F771F881F91505040A9F79E3F5105B1
:1019300070F060CFAACF5F3FECF3983EDCF3869562
:1019400077956795B795F795E7959F5FC1F7FE2B5C
:10195000880F911D9695879597F90895A1E21A2E03
:10196000AA1BBB1BFD010DC0AA1FBB1FEE1FFF1F43
:10197000A217B307E407F50720F0A21BB30BE40B93
:10198000F50B661F771F881F991F1A9469F76095DA
:101990007095809590959B01AC01BD01CF01089594
:1019A000EE0FFF1F881F8BBF0790F691E02D199453
:0419B000F894FFCFD9
:1019B400FA0000000000060271019E015202CF01EC
:1019C400AD01C101000000008B0481049B04570495
:1019D4007A04670458040D0A006E6F204C696E6522
:1019E4000073746F707065642E2E0077726974656D
:1019F4004D6F746F723A20002C20003B006C696EAE
:101A04006B730072656368747300626F746800635B
:101A14006F726E65724C6566742E00636F726E65CC
:081A24007252696768742E001C
:00000001FF
