:100000000C945E010C948F010C948F010C948F0161
:100010000C948F010C948F010C948F010C948F0120
:100020000C948F010C948F010C948F010C948F0110
:100030000C948F010C948F010C948F010C948F0100
:100040000C948F010C948F010C948F010C948F01F0
:100050000C948F010C948F010C948F010C947C07ED
:100060000C948F010C9446070C941C070C948F0180
:100070000C948F010C948F010C948F010C948F01C0
:100080000C948F010C948F010C948F010C948F01B0
:100090000C948F010C948F010C948F010C94C60763
:1000A0000C948F010C948F010C948F010C948F0190
:1000B0000C948F010C948F010C948F010C948F0180
:1000C0000C948F010C948F010C948F010C948F0170
:1000D0000C948F010C948F010C948F010C948F0160
:1000E0000C948F010C943F030C9405050C9465034C
:1000F0000C940D040C94DB040C94F3030C9458043E
:100100000C94EA080C9483030C94B1010C946B03D7
:100110000C945E030C943A040C946C040C948B03C2
:100120000C942B040C944E040C9408020C942B0297
:100130000C9439020C9487030C9421040C9444040D
:100140000C94BE020C94E9030C946F030C94FE040F
:100150000C9421050C9462030C9410050C94170464
:100160000C9471020C94EB040C94D2030C940504CF
:100170000C94DC040C9491030C94FD030C947D030B
:100180000C9495030C9456030C94DF030C947903A0
:100190000C94A5060C9462040C945A030C947503F9
:1001A0000C9444030C94DA030C9417020C94B001E1
:1001B0000C94DB0100000A0B02090C0D0E0807036A
:1001C000040100000000000000000000000000002A
:1001D000000000000000000000000000000000001F
:1001E00012111000000000000000000000000000DC
:1001F00000000000000000000000000022002500B8
:1002000028002B002E0031003400020100000501FF
:1002100008010B0100002100240027002A002D0006
:100220003000330001010000040107010A01050547
:100230000505070508080808020202020A0A08085C
:10024000040404040101010101010101030303038A
:1002500003030303040707070C0C0C0C0C0C0C0C19
:100260000202020206060606060606060B0B0B0B2A
:100270000B0B0B0B0102102020080810204010204F
:10028000408002010201080402010102040810205A
:100290004080804020100804020180040201804058
:1002A00020100804020108040201010204081020C1
:1002B00040800102040810204080EA0811241FBE7B
:1002C000CFEFD1E2DEBFCDBF00E00CBF12E0A0E077
:1002D000B2E0EAEDFCE100E00BBF02C007900D9236
:1002E000AC38B107D9F723E0ACE8B2E001C01D9209
:1002F000A63EB207E1F711E0CEE5D1E000E006C08E
:1003000021970109802FFE010E94630ECD35D10790
:1003100080E00807A9F70E9423090C946B0E0C9447
:10032000000090E0FC01EC58FD4F2491825D9D4F50
:10033000FC018491882399F090E0880F991FFC01BB
:10034000EC5EFD4FA591B491FC01E650FE4F859106
:1003500094918FB7F894EC91E22BEC938FBF0895B2
:100360000895CF93DF93AC01E0912D03F0912E031C
:100370003097F1F090912C0380912B039817C0F0E7
:1003800090E0292F30E02617370754F4D901A457FD
:10039000BD4F240F351FE90128812C939F5FF1CFBA
:1003A00010922C0360932B03CB01DF91CF91199412
:1003B000DF91CF910895AF92BF92CF92DF92EF92EB
:1003C000FF920F931F93CF93DF936C017B018B01FF
:1003D000040F151FEB015E01AE18BF08C017D1074F
:1003E00059F06991D601ED91FC910190F081E02DD9
:1003F000C6011995892B79F7C501DF91CF911F911E
:100400000F91FF90EF90DF90CF90BF90AF90089545
:10041000FC01538D448D252F30E0842F90E0821B0A
:10042000930B541710F0CF96089501970895FC018F
:10043000918D828D981761F0A28DAE0FBF2FB11DE7
:100440005D968C91928D9F5F9F73928F90E008953F
:100450008FEF9FEF0895FC01918D828D981731F0F9
:10046000828DE80FF11D858D90E008958FEF9FEF4D
:100470000895FC01918D228D892F90E0805C9F4F23
:10048000821B91098F73992708958DE393E00E9451
:10049000390221E0892B09F420E0822F0895FC0124
:1004A000A48DA80FB92FB11DA35ABF4F2C91848DD5
:1004B00090E001968F739927848FA689B7892C9332
:1004C000A089B1898C91837080648C93938D848D85
:1004D000981306C00288F389E02D80818F7D808388
:1004E0000895EF92FF920F931F93CF93DF93EC0148
:1004F00081E0888F9B8D8C8D98131AC0E889F989CB
:10050000808185FF15C09FB7F894EE89FF896083CD
:10051000E889F98980818370806480839FBF81E04E
:1005200090E0DF91CF911F910F91FF90EF90089590
:10053000F62E0B8D10E00F5F1F4F0F731127E02E6B
:100540008C8D8E110CC00FB607FCFACFE889F989A3
:10055000808185FFF5CFCE010E944F02F1CFEB8D58
:10056000EC0FFD2FF11DE35AFF4FF0829FB7F89477
:100570000B8FEA89FB8980818062CFCFCF93DF9395
:10058000EC01888D8823B9F0AA89BB89E889F989AB
:100590008C9185FD03C0808186FD0DC00FB607FCE0
:1005A000F7CF8C9185FFF2CF808185FFEDCFCE0113
:1005B0000E944F02E9CFDF91CF91089580E090E053
:1005C000892B29F00E94450281110E94000080E0E1
:1005D00090E0892B49F080E090E0892B29F00E947F
:1005E000000081110E94000080E090E0892B49F01A
:1005F00080E090E0892B29F00E94000081110E9488
:10060000000080E090E0892B49F080E090E0892BA9
:1006100029F00E94000081110C9400000895282FF9
:1006200030E0F901EC54FE4F9491F901EC58FD4F84
:100630004491225D3D4FF9012491222309F435C0F4
:10064000992311F191509231F8F4E92FF0E08827C5
:10065000E35DFC4F8F4F0C94630E5E0362033F0318
:1006600056035A03440365036B036F037503790351
:100670007D038303870344038B03910395038091D8
:1006800080008F7780938000E22FF0E0EE0FFF1F55
:10069000E650FE4FA591B4918FB7F894EC9161119B
:1006A00048C040954E234C938FBF089580918000A1
:1006B0008F7DE8CF80918000877FE4CF84B58F77EE
:1006C00084BDE2CF84B58F7DFBCF8091B0008F7762
:1006D0008093B000D9CF8091B0008F7DF9CF809109
:1006E00090008F7780939000CFCF809190008F7D86
:1006F000F9CF80919000877FF5CF8091A0008F7710
:100700008093A000C1CF8091A0008F7DF9CF809110
:10071000A000877FF5CF809120018F778093200103
:10072000B3CF809120018F7DF9CF80912001877F09
:10073000F5CF4E2BB8CF1F93CF93DF93182FEB013C
:100740000E949101209739F460E0812FDF91CF91D1
:100750001F910C940F03CF3FD10511F461E0F5CF49
:10076000E12FF0E0EC54FE4FE491E150E23108F06B
:10077000B3C0F0E08827E054FC4F8F4F0C94630E19
:10078000D203DA03DF03E903F3036C04FD0305047A
:100790000D04170421042B043A0444046C044E0491
:1007A0005804620484B5806884BDC7BDDF91CF91D1
:1007B0001F91089584B5806284BDC8BDF7CF809134
:1007C0008000806880938000D0938900C093880067
:1007D000EDCF80918000806280938000D0938B0069
:1007E000C0938A00E3CF809180008860809380006E
:1007F000D0938D00C0938C00D9CF8091B0008068D9
:100800008093B000C093B300D1CF8091B0008062DC
:100810008093B000C093B400C9CF809190008068ED
:1008200080939000D0939900C0939800BFCF80919F
:100830009000806280939000D0939B00C0939A00B8
:10084000B5CF80919000886080939000D0939D00F8
:10085000C0939C00ABCF8091A00080688093A000E3
:100860008091A0008F7B8093A000D093A900C093BB
:10087000A8009CCF8091A00080628093A000D093BC
:10088000AB00C093AA0092CF8091A00088608093B3
:10089000A000D093AD00C093AC0088CF8091200120
:1008A000806880932001D0932901C09328017ECFD6
:1008B00080912001806280932001D0932B01C0930E
:1008C0002A0174CF80912001886080932001D09309
:1008D0002D01C0932C016ACFC038D1050CF03ECF5A
:1008E00033CF3FB7F8948091210390912203A091D8
:1008F0002303B091240326B5A89B05C02F3F19F010
:100900000196A11DB11D3FBFBA2FA92F982F88278F
:10091000BC01CD01620F711D811D911D42E0660F6A
:10092000771F881F991F4A95D1F708952091D20209
:10093000260F3327331F21323105ECF42091F602C4
:10094000FC0190E080E0243069F082E00895A091FD
:10095000D2022191AC014E545D4FA40FB52FB11DB1
:100960002C930196861798F38091D202680F6093BA
:10097000D20280E0089581E008951092F60281E0AD
:100980008093F8021092F70261E084E10E940F0365
:1009900061E085E10E940F03E9EBF0E080818E7F4A
:1009A000808380818D7F808388E48093B80085E494
:1009B0008093BC0008950895E0912C0380912B034F
:1009C000E81730F4F0E0E457FD4F808190E008959F
:1009D0008FEF9FEF089590912C0380912B032FEFC1
:1009E0003FEF981748F4E92FF0E0E457FD4F2081DE
:1009F00030E09F5F90932C03C901089580912B03F1
:100A000090912C03891B990B0895CF93DF93CB0111
:100A1000EA01642F0E949604CE01DF91CF910895E0
:100A2000CF93DF931F92CDB7DEB7698361E0CE012C
:100A300001960E94960481E090E00F90DF91CF91A3
:100A4000089590E080E00895FC0101900020E9F70E
:100A50003197AF01481B590BBC018DE393E00C9417
:100A6000DB01CF93DF930E942405EC0186E292E044
:100A70000E9424058C0F9D1FDF91CF910895CF9385
:100A8000DF9380910002909101029C012150310975
:100A9000273C310548F48456910990933A0380939A
:100AA000390310923B030AC0813E9105D1F781E0E2
:100AB00080933B0389E292E00E942405C0910002EA
:100AC000D0910102C73DD10541F581E080933C03FF
:100AD00070E060E084E00E949B0370E060E085E0ED
:100AE0000E949B0370E060E086E00E949B0370E040
:100AF00060E087E00E949B03CF3CD10589F481E050
:100B00008093380310923703C93CD10579F481E012
:100B1000809336031092330311C010923C03ECCF44
:100B2000C03DD10579F781E08093370310923603F9
:100B3000CA3CD10579F781E080933303DF91CF91EF
:100B400008958F929F92AF92BF92CF92DF92EF92D1
:100B5000FF920F931F93CF93DF93CDB7DEB7A1978B
:100B60000FB6F894DEBF0FBECDBF6C01990FEE0833
:100B7000FF08F7FE41C06DE28DE393E00E94710231
:100B80008C0122273327A9012C193D094E095F0941
:100B900019A2CE0181967C019AE0892E912CA12C7C
:100BA000B12CCA01B901A50194010E94410E605DFA
:100BB000F70162937F01211531054105510589F740
:100BC00090E080E0309719F0CF010E942405800F5B
:100BD000911FA1960FB6F894DEBF0FBECDBFDF9177
:100BE000CF911F910F91FF90EF90DF90CF90BF902A
:100BF000AF909F908F900895A701960119A28E0142
:100C00000F5D1F4F8AE0C82ED12CE12CF12CCA01B8
:100C1000B901A70196010E94410E605DF80162933F
:100C20008F01211531054105510589F790E080E0DC
:100C3000309779F2CF010E942405CBCF8F929F92FB
:100C4000AF92BF92CF92DF92EF92FF920F931F93DA
:100C5000982E892ED62EC72E5A01790181E392E073
:100C60000E942405892D982D0E94A1058EE392E013
:100C70000E9424058D2D9C2D0E94A1058EE392E0FB
:100C80000E942405C5010E94A1058EE392E00E9406
:100C90002405C7010E94A1058EE392E00E9424056D
:100CA000C8010E94A10581E492E00E943105692DEE
:100CB00088E00E940F03692D89E00E940F036D2DCB
:100CC0008AE00E940F036D2D8BE00E940F03B50197
:100CD00084E00E949B03B50185E00E949B03B7015D
:100CE00086E00E949B03B70187E00E949B03680196
:100CF000110FEE08FF080E9471044B015C010E9475
:100D00007104681979098A099B09683E7340810555
:100D10009105A8F321E0C21AD108E108F10888EE94
:100D2000880E83E0981EA11CB11CC114D104E104FB
:100D3000F10429F71F910F91FF90EF90DF90CF9072
:100D4000BF90AF909F908F90089580912B039091CA
:100D50002C03891B990B029754F08AED93E00E94B3
:100D6000EB04682F8DE393E00E947102EECF8AEDD1
:100D700093E00E94EB0490930102809300020E9492
:100D8000A10586E292E00C942405CF93DF9385EDD4
:100D90008093BC008091AE029091AF02A091B0020E
:100DA000B091B1020796A11DB11D23E0B695A7959C
:100DB000979587952A95D1F72091BC0024FD03C013
:100DC0001092F60236C04091AE025091AF0260918F
:100DD000B0027091B102452B462B472B69F3009767
:100DE000A105B10541F025E32A95F1F7000001972F
:100DF000A109B109E1CF8091AD0291E09093AC02DD
:100E00008823B9F0C091B800D091BA008091BC009D
:100E10008A7B8093BC0060E084E10E940F0360E065
:100E200085E10E940F030E94BD04D093BA00C093D5
:100E3000B800DF91CF9108951F920F920FB60F92D5
:100E400011240BB60F922F933F934F935F936F93A1
:100E50007F938F939F93AF93BF93EF93FF938DE314
:100E600093E00E944F02FF91EF91BF91AF919F914C
:100E70008F917F916F915F914F913F912F910F9043
:100E80000BBE0F900FBE0F901F9018951F920F92E0
:100E90000FB60F9211240BB60F922F938F939F933F
:100EA000EF93FF93E0914D03F0914E038081E09129
:100EB0005303F091540382FD1DC09081809156032D
:100EC0008F5F8F7320915703821741F0E091560393
:100ED000F0E0E35CFC4F958F80935603FF91EF9118
:100EE0009F918F912F910F900BBE0F900FBE0F907F
:100EF0001F9018958081F2CF1F920F920FB60F921C
:100F000011242F933F938F939F93AF93BF9380911F
:100F10001D0390911E03A0911F03B09120033091F7
:100F20001C0323E0230F2D3758F50196A11DB11D99
:100F300020931C0380931D0390931E03A0931F0313
:100F4000B09320038091210390912203A091230369
:100F5000B09124030196A11DB11D809321039093AC
:100F60002203A0932303B0932403BF91AF919F91D9
:100F70008F913F912F910F900FBE0F901F9018955A
:100F800026E8230F0296A11DB11DD2CF1F920F920A
:100F90000FB60F9211240BB60F922F933F934F93DE
:100FA0005F936F937F938F939F93AF93BF93EF93D1
:100FB000FF938091B900887F803609F44DC008F016
:100FC00040C0883209F4A9C028F5803109F49DC0D9
:100FD000C8F4882309F4FBC0883009F496C0FF9157
:100FE000EF91BF91AF919F918F917F916F915F91A1
:100FF0004F913F912F910F900BBE0F900FBE0F900E
:101000001F901895883109F488C0803241F7809389
:10101000F50214C0803409F49DC040F48033B9F364
:101020008833E9F68093F50285ECB0C0803509F489
:1010300085C0883509F496C0883489F60E94C506B3
:10104000CECF883909F48CC038F5883729F050F4B0
:10105000883611F0803719F683E08093F6021092FB
:10106000F40257C0883809F47BC0803919F0803801
:1010700009F0B5CF8091F402803208F071C0E091A0
:10108000F40281E08E0F8093F4028091BB00F0E0C7
:10109000EC52FD4F80833DC0803B39F0E0F4803A54
:1010A00009F479C0883A09F09ACF84E08093F60277
:1010B0001092D3021092D202E0912703F0912803FC
:1010C00019958091D20281110FC081E08093D202E4
:1010D0001092B20209C0803C09F4A6CF883C09F402
:1010E000A3CF883B09F07BCFE091D30281E08E0F44
:1010F0008093D302F0E0EE54FD4F80818093BB00DB
:101100009091D3028091D20229C080911B038093D9
:10111000BB0085EC8093BC0062CF90911A03809154
:101120001903981758F5E0911A0381E08E0F809308
:101130001A03F0E0E750FD4F8081E9CFE0911A03F8
:1011400081E08E0F80931A038091BB00F0E0E7509E
:10115000FD4F808390911A03809119039817C8F26C
:1011600085E8D8CFE0911A0381E08E0F80931A03AF
:101170008091BB00F0E0E750FD4F80838091F80242
:1011800081115CCF81E08093F70284EA8093BC00F8
:101190001092F60224CF85EC8093BC001092F602E8
:1011A0008091F402803230F4E091F402F0E0EC52ED
:1011B000FD4F10826091F40270E0E0912503F09100
:1011C000260384ED92E019951092F40208CF109254
:1011D000F50234CFEDE3F3E01382128288EE93E060
:1011E000A0E0B0E084839583A683B78326E032E055
:1011F0003183208325EC30E03587248724EC30E0F0
:101200003787268720EC30E0318B208B21EC30E0D3
:10121000338B228B22EC30E0358B248B26EC30E0B4
:10122000378B268B118E128E138E148EEAEDF3E01F
:101230001382128284839583A683B78388E192E028
:10124000918380830895789484B5826084BD84B549
:10125000816084BD85B5826085BD85B5816085BDB1
:1012600080916E00816080936E0010928100809169
:1012700081008260809381008091810081608093F1
:101280008100809180008160809380008091B10016
:1012900084608093B1008091B00081608093B00041
:1012A0008091910082608093910080919100816093
:1012B0008093910080919000816080939000809154
:1012C000A10082608093A1008091A1008160809341
:1012D000A1008091A00081608093A00080912101F5
:1012E000826080932101809121018160809321019E
:1012F0008091200181608093200180917A00846038
:1013000080937A0080917A00826080937A00809145
:101310007A00816080937A0080917A00806880935F
:101320007A001092C10010922C0310922B0310929D
:101330002A03109229030E94BD0480EB91E0909350
:1013400028038093270381EB91E0909326038093F9
:10135000250388E08093BA0085EA96E090932E03F7
:1013600080932D03E0914D03F0914E0382E0808342
:10137000E0914903F0914A031082E0914B03F09110
:101380004C038FEC808310925503E0915103F09150
:10139000520386E08083E0914F03F09150038081F7
:1013A00080618083E0914F03F091500380818860D9
:1013B0008083E0914F03F0915003808180688083A7
:1013C000E0914F03F091500380818F7D808383E40F
:1013D00092E00E94310584E00E94910185E00E9424
:1013E000910186E00E94910187E00E94910188E0CE
:1013F0000E94910189E00E9491018AE00E9491017E
:101400008BE00E94910182E3E82EF12CCC24CA9457
:10141000D12C0E943F0580913C03811191C20E9412
:101420003F05C0913903D0913A031C161D060CF0FC
:10143000B0C0BE010D2E000C880B990B0E94480D08
:101440004B015C012DEC3CEC4CE45EE30E94D40DBE
:1014500020E030E048E452E40E94A40C20E030E0B8
:10146000A9010E94A40C0E94100D70933203609396
:1014700031032AE939E949E95FE3C501B4010E9472
:10148000D40D9B01AC0160E070E088E492E40E941E
:10149000A30C20E030E0A9010E94A40C0E94100DD2
:1014A0007093300360932F03809131039091320346
:1014B00097FF97C01092320310923103CD2B41F465
:1014C000F0923203E0923103F0923003E0922F0366
:1014D00080912F039091300397FF8DC010923003BD
:1014E00010922F0360E088E00E940F0360E08AE022
:1014F0000E940F0360E089E00E940F0360E08BE030
:101500000E940F03609131037091320377FF02C094
:1015100061E070E0C0912F03D09130035B018E0138
:10152000D7FF05C0AA24A394B12C01E010E084E009
:101530000E949B03B50185E00E949B03BE0186E0EB
:101540000E949B03B80187E00E949B0380913B03AC
:10155000882309F45AC00CE211E026E430E046E4A6
:1015600050E070E060E090E080E00E941E060E9483
:101570003F0580913B03882309F447C001E010E058
:1015800026E430E046E450E061E070E081E090E085
:10159000ECCF209709F488CFBE010D2E000C880BEC
:1015A000990B0E94480D4B015C012AE939E949E990
:1015B0005FE30E94D40D20E030E048E452E40E9452
:1015C000A40C20E030E0A9010E94A40C0E94100DA0
:1015D00070933203609331032DEC3CEC4CE45EE3FA
:1015E0004CCF8F3F910509F00CF468CFD0923203B5
:1015F000C092310363CF8F3F910509F00CF472CF95
:10160000D0923003C0922F036DCF80910002909151
:1016100001028E3C910509F042C080E592E00E94F3
:10162000310585E692E00E94310500E911E026E4EB
:1016300030E046E450E070E060E090E080E00E943E
:101640001E0687E692E00E94310500EB14E026E4D6
:1016500030E046E450E070E060E081E090E00E941D
:101660001E068091390390913A03823E9F4F9CF46D
:1016700089E692E00E9431050AE010E026E430E0BD
:1016800046E450E070E060E081E090E00E941E06D9
:101690000E943F05E6CF8BE692E00E9431058091E3
:1016A0003803882309F443C080E592E00E943105A5
:1016B00085E692E00E94310500E911E026E430E081
:1016C00046E450E070E060E090E080E00E941E069A
:1016D00087E692E00E94310500EB14E026E430E05A
:1016E00046E450E061E070E090E080E00E941E0679
:1016F0008091390390913A034F979CF089E692E0EC
:101700000E9431050AE010E026E430E046E450E0B3
:1017100061E070E090E080E00E941E060E943F05BC
:10172000E7CF8BE692E00E9431051092380380915A
:101730003703882391F08DE692E00E94310508EE90
:1017400013E021E030E041E050E070E060E090E044
:1017500080E00E941E061092370380913603882392
:1017600009F451C0109235031092340382E792E0DD
:101770000E94310500E911E026E430E046E450E043
:1017800070E060E090E080E00E941E0600EB14E054
:1017900026E430E046E450E070E060E081E090E074
:1017A0000E941E068091390390913A03823E9F4F1A
:1017B00054F50AE010E026E430E046E450E070E042
:1017C00060E081E090E00E941E060E943F0580914B
:1017D000340390913503019690933503809334033D
:1017E000CC9704F300ED17E030E020E050E040E05B
:1017F00070E060E090E080E00E941E0610923503E9
:1018000010923403CFCF80913303882309F450C062
:1018100010923503109234038EE792E00E94310556
:1018200000E911E026E430E046E450E070E060E0DA
:1018300090E080E00E941E0600EB14E026E430E019
:1018400046E450E061E070E090E080E00E941E0617
:101850008091390390913A034F9754F10AE010E0D8
:1018600026E430E046E450E061E070E090E080E0A3
:101870000E941E060E943F0580913403909135031B
:1018800001969093350380933403CC970CF300EDCD
:1018900017E030E020E050E040E070E060E090E0F1
:1018A00080E00E941E061092350310923403D0CFC0
:1018B0008091390390913A038A3B9F4FE4F48091E1
:1018C0003B03811118C002E310E026E430E046E457
:1018D00050E061E070E081E090E00E941E0608E1C7
:1018E00011E026E430E046E450E070E060E081E0A2
:1018F00090E00E941E068091390390913A0387344C
:1019000091050CF488CD80913B03811184CD02E3D5
:1019100010E026E430E046E450E061E070E081E071
:1019200090E00E941E0608E111E026E430E046E463
:1019300050E061E070E090E080E00E941E066BCD18
:101940000E94DE0266CD5058BB27AA270E94BB0C1E
:101950000C949A0D0E948C0D38F00E94930D20F08B
:1019600039F49F3F19F426F40C94890D0EF4E09598
:10197000E7FB0C94830DE92F0E94AB0D58F3BA17C7
:10198000620773078407950720F079F4A6F50C9495
:10199000CD0D0EF4E0950B2EBA2FA02D0B01B90141
:1019A00090010C01CA01A0011124FF27591B99F0D5
:1019B000593F50F4503E68F11A16F040A22F232FE1
:1019C000342F4427585FF3CF469537952795A79531
:1019D000F0405395C9F77EF41F16BA0B620B730BD8
:1019E000840BBAF09150A1F0FF0FBB1F661F771F49
:1019F000881FC2F70EC0BA0F621F731F841F48F4FE
:101A0000879577956795B795F7959E3F08F0B0CF86
:101A10009395880F08F09927EE0F9795879508956D
:101A20000E94170D6894B1110C94CE0D08950E9478
:101A3000B30D88F09F5798F0B92F9927B751B0F0A0
:101A4000E1F0660F771F881F991F1AF0BA95C9F742
:101A500014C0B13091F00E94CD0DB1E008950C9406
:101A6000CD0D672F782F8827B85F39F0B93FCCF3B9
:101A7000869577956795B395D9F73EF490958095BF
:101A8000709561957F4F8F4F9F4F0895E89409C0DF
:101A900097FB3EF490958095709561957F4F8F4FA1
:101AA0009F4F9923A9F0F92F96E9BB279395F695B7
:101AB000879577956795B795F111F8CFFAF4BB0F35
:101AC00011F460FF1BC06F5F7F4F8F4F9F4F16C099
:101AD000882311F096E911C0772321F09EE8872F23
:101AE000762F05C0662371F096E8862F70E060E0DF
:101AF0002AF09A95660F771F881FDAF7880F969558
:101B0000879597F9089597F99F6780E870E060E0FE
:101B100008959FEF80EC089500240A941616170686
:101B200018060906089500240A94121613061406CE
:101B300005060895092E0394000C11F4882352F031
:101B4000BB0F40F4BF2B11F460FF04C06F5F7F4FE9
:101B50008F4F9F4F089557FD9058440F551F59F0D0
:101B60005F3F71F04795880F97FB991F61F09F3F8A
:101B700079F087950895121613061406551FF2CFB3
:101B80004695F1DF08C0161617061806991FF1CF03
:101B900086957105610508940895E894BB2766272A
:101BA0007727CB0197F908950E94E70D0C949A0DC1
:101BB0000E948C0D38F00E94930D20F0952311F0B7
:101BC0000C94830D0C94890D11240C94CE0D0E945D
:101BD000AB0D70F3959FC1F3950F50E0551F629FB9
:101BE000F001729FBB27F00DB11D639FAA27F00D76
:101BF000B11DAA1F649F6627B00DA11D661F829F9D
:101C00002227B00DA11D621F739FB00DA11D621F81
:101C1000839FA00D611D221F749F3327A00D611D9E
:101C2000231F849F600D211D822F762F6A2F112480
:101C30009F5750409AF0F1F088234AF0EE0FFF1FB3
:101C4000BB1F661F771F881F91505040A9F79E3F0A
:101C5000510580F00C94830D0C94CE0D5F3FE4F39E
:101C6000983ED4F3869577956795B795F795E79560
:101C70009F5FC1F7FE2B880F911D9695879597F969
:101C80000895A1E21A2EAA1BBB1BFD010DC0AA1FBD
:101C9000BB1FEE1FFF1FA217B307E407F50720F0D5
:101CA000A21BB30BE40BF50B661F771F881F991F50
:101CB0001A9469F760957095809590959B01AC0199
:101CC000BD01CF010895EE0FFF1F881F8BBF079046
:0A1CD000F691E02D1994F894FFCF6F
:101CDA00FA00000000007102DB010802BE023902AC
:101CEA0017022B0200000000100505052105DB0480
:101CFA00FE04EB04DC040D0A006E6F204C696E656D
:101D0A000077726974654D6F746F723A20002C20E7
:101D1A00003B0048656C6C6F20576F726C64210041
:101D2A004772C3BC6E65722050756E6B7420726503
:101D3A0063687473003100320033003400626F74D8
:101D4A006800636F726E65724C6566742E00636F0D
:0C1D5A00726E657252696768742E00009A
:00000001FF
