:100000000C945E010C948F010C948F010C948F0161
:100010000C948F010C948F010C948F010C948F0120
:100020000C948F010C948F010C948F010C948F0110
:100030000C948F010C948F010C948F010C948F0100
:100040000C948F010C948F010C948F010C948F01F0
:100050000C948F010C948F010C948F010C94440725
:100060000C948F010C940E070C94E4060C948F01F1
:100070000C948F010C948F010C948F010C948F01C0
:100080000C948F010C948F010C948F010C948F01B0
:100090000C948F010C948F010C948F010C948E079B
:1000A0000C948F010C948F010C948F010C948F0190
:1000B0000C948F010C948F010C948F010C948F0180
:1000C0000C948F010C948F010C948F010C948F0170
:1000D0000C948F010C948F010C948F010C948F0160
:1000E0000C948F010C943F030C9405050C9465034C
:1000F0000C940D040C94DB040C94F3030C9458043E
:100100000C94B2080C9483030C94B1010C946B030F
:100110000C945E030C943A040C946C040C948B03C2
:100120000C942B040C944E040C9408020C942B0297
:100130000C9439020C9487030C9421040C9444040D
:100140000C94BE020C94E9030C946F030C94FE040F
:100150000C9421050C9462030C9410050C94170464
:100160000C9471020C94EB040C9424050C94D203AF
:100170000C9405040C94DC040C9491030C94FD0382
:100180000C947D030C9495030C9456030C94DF039C
:100190000C9479030C9462040C945A030C94750328
:1001A0000C9444030C94DA030C9417020C94B001E1
:1001B0000C94DB0100000A0B02090C0D0E0807036A
:1001C000040100000000000000000000000000002A
:1001D000000000000000000000000000000000001F
:1001E00012111000000000000000000000000000DC
:1001F00000000000000000000000000022002500B8
:1002000028002B002E0031003400020100000501FF
:1002100008010B0100002100240027002A002D0006
:100220003000330001010000040107010A01050547
:100230000505070508080808020202020A0A08085C
:10024000040404040101010101010101030303038A
:1002500003030303040707070C0C0C0C0C0C0C0C19
:100260000202020206060606060606060B0B0B0B2A
:100270000B0B0B0B0102102020080810204010204F
:10028000408002010201080402010102040810205A
:100290004080804020100804020180040201804058
:1002A00020100804020108040201010204081020C1
:1002B00040800102040810204080B20811241FBEB3
:1002C000CFEFD1E2DEBFCDBF00E00CBF12E0A0E077
:1002D000B2E0EAEFFBE100E00BBF02C007900D9235
:1002E000AC37B107D9F723E0ACE7B2E001C01D920B
:1002F000A73DB207E1F711E0CEE5D1E000E006C08E
:1003000021970109802FFE010E94F30DCD35D10701
:1003100080E00807A9F70E94EB080C94FB0D0C94F1
:10032000000090E0FC01EC58FD4F2491825D9D4F50
:10033000FC018491882399F090E0880F991FFC01BB
:10034000EC5EFD4FA591B491FC01E650FE4F859106
:1003500094918FB7F894EC91E22BEC938FBF0895B2
:100360000895CF93DF93AC01E0911D03F0911E033C
:100370003097F1F090911C0380911B039817C0F007
:1003800090E0292F30E02617370754F4D901A458FC
:10039000BD4F240F351FE90128812C939F5FF1CFBA
:1003A00010921C0360931B03CB01DF91CF91199432
:1003B000DF91CF910895AF92BF92CF92DF92EF92EB
:1003C000FF920F931F93CF93DF936C017B018B01FF
:1003D000040F151FEB015E01AE18BF08C017D1074F
:1003E00059F06991D601ED91FC910190F081E02DD9
:1003F000C6011995892B79F7C501DF91CF911F911E
:100400000F91FF90EF90DF90CF90BF90AF90089545
:10041000FC01538D448D252F30E0842F90E0821B0A
:10042000930B541710F0CF96089501970895FC018F
:10043000918D828D981761F0A28DAE0FBF2FB11DE7
:100440005D968C91928D9F5F9F73928F90E008953F
:100450008FEF9FEF0895FC01918D828D981731F0F9
:10046000828DE80FF11D858D90E008958FEF9FEF4D
:100470000895FC01918D228D892F90E0805C9F4F23
:10048000821B91098F73992708958EE293E00E9451
:10049000390221E0892B09F420E0822F0895FC0124
:1004A000A48DA80FB92FB11DA35ABF4F2C91848DD5
:1004B00090E001968F739927848FA689B7892C9332
:1004C000A089B1898C91837080648C93938D848D85
:1004D000981306C00288F389E02D80818F7D808388
:1004E0000895EF92FF920F931F93CF93DF93EC0148
:1004F00081E0888F9B8D8C8D98131AC0E889F989CB
:10050000808185FF15C09FB7F894EE89FF896083CD
:10051000E889F98980818370806480839FBF81E04E
:1005200090E0DF91CF911F910F91FF90EF90089590
:10053000F62E0B8D10E00F5F1F4F0F731127E02E6B
:100540008C8D8E110CC00FB607FCFACFE889F989A3
:10055000808185FFF5CFCE010E944F02F1CFEB8D58
:10056000EC0FFD2FF11DE35AFF4FF0829FB7F89477
:100570000B8FEA89FB8980818062CFCFCF93DF9395
:10058000EC01888D8823B9F0AA89BB89E889F989AB
:100590008C9185FD03C0808186FD0DC00FB607FCE0
:1005A000F7CF8C9185FFF2CF808185FFEDCFCE0113
:1005B0000E944F02E9CFDF91CF91089580E090E053
:1005C000892B29F00E94450281110E94000080E0E1
:1005D00090E0892B49F080E090E0892B29F00E947F
:1005E000000081110E94000080E090E0892B49F01A
:1005F00080E090E0892B29F00E94000081110E9488
:10060000000080E090E0892B49F080E090E0892BA9
:1006100029F00E94000081110C9400000895282FF9
:1006200030E0F901EC54FE4F9491F901EC58FD4F84
:100630004491225D3D4FF9012491222309F435C0F4
:10064000992311F191509231F8F4E92FF0E08827C5
:10065000E35DFC4F8F4F0C94F30D5E0362033F0389
:1006600056035A03440365036B036F037503790351
:100670007D038303870344038B03910395038091D8
:1006800080008F7780938000E22FF0E0EE0FFF1F55
:10069000E650FE4FA591B4918FB7F894EC9161119B
:1006A00048C040954E234C938FBF089580918000A1
:1006B0008F7DE8CF80918000877FE4CF84B58F77EE
:1006C00084BDE2CF84B58F7DFBCF8091B0008F7762
:1006D0008093B000D9CF8091B0008F7DF9CF809109
:1006E00090008F7780939000CFCF809190008F7D86
:1006F000F9CF80919000877FF5CF8091A0008F7710
:100700008093A000C1CF8091A0008F7DF9CF809110
:10071000A000877FF5CF809120018F778093200103
:10072000B3CF809120018F7DF9CF80912001877F09
:10073000F5CF4E2BB8CF1F93CF93DF93182FEB013C
:100740000E949101209739F460E0812FDF91CF91D1
:100750001F910C940F03CF3FD10511F461E0F5CF49
:10076000E12FF0E0EC54FE4FE491E150E23108F06B
:10077000B3C0F0E08827E054FC4F8F4F0C94F30D8A
:10078000D203DA03DF03E903F3036C04FD0305047A
:100790000D04170421042B043A0444046C044E0491
:1007A0005804620484B5806884BDC7BDDF91CF91D1
:1007B0001F91089584B5806284BDC8BDF7CF809134
:1007C0008000806880938000D0938900C093880067
:1007D000EDCF80918000806280938000D0938B0069
:1007E000C0938A00E3CF809180008860809380006E
:1007F000D0938D00C0938C00D9CF8091B0008068D9
:100800008093B000C093B300D1CF8091B0008062DC
:100810008093B000C093B400C9CF809190008068ED
:1008200080939000D0939900C0939800BFCF80919F
:100830009000806280939000D0939B00C0939A00B8
:10084000B5CF80919000886080939000D0939D00F8
:10085000C0939C00ABCF8091A00080688093A000E3
:100860008091A0008F7B8093A000D093A900C093BB
:10087000A8009CCF8091A00080628093A000D093BC
:10088000AB00C093AA0092CF8091A00088608093B3
:10089000A000D093AD00C093AC0088CF8091200120
:1008A000806880932001D0932901C09328017ECFD6
:1008B00080912001806280932001D0932B01C0930E
:1008C0002A0174CF80912001886080932001D09309
:1008D0002D01C0932C016ACFC038D1050CF03ECF5A
:1008E00033CF3FB7F8948091110390911203A091F8
:1008F0001303B091140326B5A89B05C02F3F19F030
:100900000196A11DB11D3FBFBA2FA92F982F88278F
:10091000BC01CD01620F711D811D911D42E0660F6A
:10092000771F881F991F4A95D1F708952091C20219
:10093000260F3327331F21323105ECF42091E602D4
:10094000FC0190E080E0243069F082E00895A091FD
:10095000C2022191AC014E555D4FA40FB52FB11DC0
:100960002C930196861798F38091C202680F6093CA
:10097000C20280E0089581E008951092E60281E0CD
:100980008093E8021092E70261E084E10E940F0385
:1009900061E085E10E940F03E9EBF0E080818E7F4A
:1009A000808380818D7F808388E48093B80085E494
:1009B0008093BC0008950895E0911C0380911B036F
:1009C000E81730F4F0E0E458FD4F808190E008959E
:1009D0008FEF9FEF089590911C0380911B032FEFE1
:1009E0003FEF981748F4E92FF0E0E458FD4F2081DD
:1009F00030E09F5F90931C03C901089580911B0311
:100A000090911C03891B990B0895CF93DF93CB0121
:100A1000EA01642F0E949604CE01DF91CF910895E0
:100A2000CF93DF931F92CDB7DEB7698361E0CE012C
:100A300001960E94960481E090E00F90DF91CF91A3
:100A4000089590E080E0089580911B0390911C032D
:100A5000891B990B029754F08BEC93E00E94EB04F6
:100A6000682F8EE293E00E947102EECF8BEC93E050
:100A70000E94EB0490930102809300020895FC0110
:100A800001900020E9F73197AF01481B590BBC01D9
:100A90008EE293E00C94DB01CF93DF930E943F053D
:100AA000EC0186E292E00E943F058C0F9D1FDF91D2
:100AB000CF910895CF93DF9380910002909101022E
:100AC0009C0121503109273C310548F48456910995
:100AD000909329038093280310922C030AC0813E2F
:100AE0009105D1F781E080932C0389E292E00E9486
:100AF0003F05C0910002D0910102C73DD10551F5DB
:100B000081E080932D0370E060E084E00E949B030D
:100B100070E060E085E00E949B0370E060E086E0AA
:100B20000E949B0370E060E087E00E949B03CE3C44
:100B3000D10599F410922B03C03DD105B9F0109264
:100B40002703C93CD105A9F481E0809326031092C4
:100B5000230317C010922D03EACF10922B03CF3C32
:100B6000D10541F781E080932A03E9CF81E08093AA
:100B7000270310922603CA3CD10549F781E08093F0
:100B80002303DF91CF910895CF92DF92EF92FF92EE
:100B90000F931F93CF93DF93CDB7DEB7A1970FB617
:100BA000F894DEBF0FBECDBF9C01990F440B550BCF
:100BB00019A28E010F5D1F4F8AE0C82ED12CE12CA7
:100BC000F12CCA01B901A70196010E94D10D605D07
:100BD000F80162938F01211531054105510589F70F
:100BE00090E080E0309719F0CF010E943F05A19678
:100BF0000FB6F894DEBF0FBECDBFDF91CF911F912E
:100C00000F91FF90EF90DF90CF9008958F929F9279
:100C1000AF92BF92CF92DF92EF92FF920F931F930A
:100C2000982E892ED62EC72E5A01790181E392E0A3
:100C30000E943F05892D982D0E94C4058EE392E005
:100C40000E943F058D2D9C2D0E94C4058EE392E0ED
:100C50000E943F05C5010E94C4058EE392E00E94F8
:100C60003F05C7010E94C4058EE392E00E943F0544
:100C7000C8010E94C40581E492E00E944C05692DE0
:100C800088E00E940F03692D89E00E940F036D2DFB
:100C90008AE00E940F036D2D8BE00E940F03B501C7
:100CA00084E00E949B03B50185E00E949B03B7018D
:100CB00086E00E949B03B70187E00E949B036801C6
:100CC000110FEE08FF080E9471044B015C010E94A5
:100CD0007104681979098A099B09683E7340810586
:100CE0009105A8F321E0C21AD108E108F10888EEC5
:100CF000880E83E0981EA11CB11CC114D104E1042C
:100D0000F10429F71F910F91FF90EF90DF90CF90A2
:100D1000BF90AF909F908F900895CF93DF9385ED14
:100D20008093BC0080919E0290919F02A091A002AE
:100D3000B091A1020796A11DB11D23E0B695A7951C
:100D4000979587952A95D1F72091BC0024FD03C083
:100D50001092E60236C040919E0250919F0260912F
:100D6000A0027091A102452B462B472B69F30097F7
:100D7000A105B10541F025E32A95F1F7000001979F
:100D8000A109B109E1CF80919D0291E090939C026D
:100D90008823B9F0C091B800D091BA008091BC000E
:100DA0008A7B8093BC0060E084E10E940F0360E0D6
:100DB00085E10E940F030E94BD04D093BA00C09346
:100DC000B800DF91CF9108951F920F920FB60F9246
:100DD00011240BB60F922F933F934F935F936F9312
:100DE0007F938F939F93AF93BF93EF93FF938EE285
:100DF00093E00E944F02FF91EF91BF91AF919F91BD
:100E00008F917F916F915F914F913F912F910F90B3
:100E10000BBE0F900FBE0F901F9018951F920F9250
:100E20000FB60F9211240BB60F922F938F939F93AF
:100E3000EF93FF93E0913E03F0913F038081E091B7
:100E40004403F091450382FD1DC0908180914703CA
:100E50008F5F8F7320914803821741F0E091470321
:100E6000F0E0E25DFC4F958F80934703FF91EF9197
:100E70009F918F912F910F900BBE0F900FBE0F90EF
:100E80001F9018958081F2CF1F920F920FB60F928C
:100E900011242F933F938F939F93AF93BF93809190
:100EA0000D0390910E03A0910F03B09110033091A8
:100EB0000C0323E0230F2D3758F50196A11DB11D1A
:100EC00020930C0380930D0390930E03A0930F03C4
:100ED000B09310038091110390911203A09113031A
:100EE000B09114030196A11DB11D8093110390933D
:100EF0001203A0931303B0931403BF91AF919F917A
:100F00008F913F912F910F900FBE0F901F901895CA
:100F100026E8230F0296A11DB11DD2CF1F920F927A
:100F20000FB60F9211240BB60F922F933F934F934E
:100F30005F936F937F938F939F93AF93BF93EF9341
:100F4000FF938091B900887F803609F44DC008F086
:100F500040C0883209F4A9C028F5803109F49DC049
:100F6000C8F4882309F4FBC0883009F496C0FF91C7
:100F7000EF91BF91AF919F918F917F916F915F9111
:100F80004F913F912F910F900BBE0F900FBE0F907E
:100F90001F901895883109F488C0803241F78093FA
:100FA000E50214C0803409F49DC040F48033B9F3E5
:100FB0008833E9F68093E50285ECB0C0803509F40A
:100FC00085C0883509F496C0883489F60E948D065C
:100FD000CECF883909F48CC038F5883729F050F421
:100FE000883611F0803719F683E08093E60210927C
:100FF000E40257C0883809F47BC0803919F0803882
:1010000009F0B5CF8091E402803208F071C0E09120
:10101000E40281E08E0F8093E4028091BB00F0E057
:10102000EC53FD4F80833DC0803B39F0E0F4803AC3
:1010300009F479C0883A09F09ACF84E08093E602F7
:101040001092C3021092C202E0911703F0911803AC
:1010500019958091C20281110FC081E08093C20274
:101060001092A20209C0803C09F4A6CF883C09F482
:10107000A3CF883B09F07BCFE091C30281E08E0FC4
:101080008093C302F0E0EE55FD4F80818093BB005A
:101090009091C3028091C20229C080910B0380937A
:1010A000BB0085EC8093BC0062CF90910A038091D5
:1010B0000903981758F5E0910A0381E08E0F809399
:1010C0000A03F0E0E751FD4F8081E9CFE0910A0388
:1010D00081E08E0F80930A038091BB00F0E0E7511E
:1010E000FD4F808390910A03809109039817C8F2FD
:1010F00085E8D8CFE0910A0381E08E0F80930A0340
:101100008091BB00F0E0E751FD4F80838091E802C1
:1011100081115CCF81E08093E70284EA8093BC0078
:101120001092E60224CF85EC8093BC001092E60278
:101130008091E402803230F4E091E402F0E0EC537C
:10114000FD4F10826091E40270E0E0911503F09190
:10115000160384EC92E019951092E40208CF1092E5
:10116000E50234CFEEE2F3E01382128288EE93E0E0
:10117000A0E0B0E084839583A683B78326E032E0C5
:101180003183208325EC30E03587248724EC30E060
:101190003787268720EC30E0318B208B21EC30E044
:1011A000338B228B22EC30E0358B248B26EC30E025
:1011B000378B268B118E128E138E148EEBECF3E090
:1011C0001382128284839583A683B78388E192E099
:1011D000918380830895789484B5826084BD84B5BA
:1011E000816084BD85B5826085BD85B5816085BD22
:1011F00080916E00816080936E00109281008091DA
:101200008100826080938100809181008160809361
:101210008100809180008160809380008091B10086
:1012200084608093B1008091B00081608093B000B1
:101230008091910082608093910080919100816003
:1012400080939100809190008160809390008091C4
:10125000A10082608093A1008091A10081608093B1
:10126000A1008091A00081608093A0008091210165
:10127000826080932101809121018160809321010E
:101280008091200181608093200180917A008460A8
:1012900080937A0080917A00826080937A008091B6
:1012A0007A00816080937A0080917A0080688093D0
:1012B0007A001092C10010921C0310921B0310922E
:1012C0001A03109219030E94BD0480EB91E09093E1
:1012D00018038093170381EB91E09093160380939A
:1012E000150388E08093BA0084E295E090931E0392
:1012F00080931D03E0913E03F0913F0382E08083E1
:10130000E0913A03F0913B031082E0913C03F091AD
:101310003D038FEC808310924603E0914203F091ED
:10132000430386E08083E0914003F0914103808194
:1013300080618083E0914003F09141038081886067
:101340008083E0914003F091410380818068808335
:10135000E0914003F091410380818F7D808383E49D
:1013600092E00E944C0584E00E94910185E00E9479
:10137000910186E00E94910187E00E94910188E03E
:101380000E94910189E00E9491018AE00E949101EE
:101390008BE00E94910182E3E82EF12CCC24CA94C8
:1013A000D12C0E945A0580912D03811159C20E94AF
:1013B0005A05C0912803D09129031C161D060CF074
:1013C000B0C0BE010D2E000C880B990B0E94D80CEA
:1013D0004B015C012DEC3CEC4CE45EE30E94640D9F
:1013E00020E030E048E452E40E94340C20E030E099
:1013F000A9010E94340C0E94A00C709322036093F8
:1014000021032AE939E949E95FE3C501B4010E94F2
:10141000640D9B01AC0160E070E088E492E40E94FE
:10142000330C20E030E0A9010E94340C0E94A00C93
:101430007093200360931F038091210390912203F6
:1014400097FF97C01092220310922103CD2B41F4F5
:10145000F0922203E0922103F0922003E0921F0316
:1014600080911F039091200397FF8DC0109220035D
:1014700010921F0360E088E00E940F0360E08AE0A2
:101480000E940F0360E089E00E940F0360E08BE0A0
:101490000E940F03609121037091220377FF02C025
:1014A00061E070E0C0911F03D09120035B018E01C9
:1014B000D7FF05C0AA24A394B12C01E010E084E07A
:1014C0000E949B03B50185E00E949B03BE0186E05C
:1014D0000E949B03B80187E00E949B0380912C032C
:1014E000882309F45AC00CE211E026E430E046E417
:1014F00050E070E060E090E080E00E9406060E940C
:101500005A0580912C03882309F447C001E010E0BC
:1015100026E430E046E450E061E070E081E090E0F5
:10152000ECCF209709F488CFBE010D2E000C880B5C
:10153000990B0E94D80C4B015C012AE939E949E971
:101540005FE30E94640D20E030E048E452E40E9432
:10155000340C20E030E0A9010E94340C0E94A00C61
:1015600070932203609321032DEC3CEC4CE45EE38A
:101570004CCF8F3F910509F00CF468CFD092220335
:10158000C092210363CF8F3F910509F00CF472CF15
:10159000D0922003C0921F036DCF80912B0388232C
:1015A00091F080E592E00E944C0508EE13E021E006
:1015B00030E041E050E070E060E090E080E00E94C8
:1015C000060610922B0380912A03882309F43FC05A
:1015D00086E592E00E944C0500E911E026E430E047
:1015E00046E450E070E060E090E080E00E94060693
:1015F00088E592E00E944C0500EB14E026E430E020
:1016000046E450E061E070E090E080E00E94060671
:1016100080912803909129034F979CF08AE592E0EE
:101620000E944C050AE010E026E430E046E450E079
:1016300061E070E090E080E00E9406060E945A059A
:10164000E7CF8CE592E00E944C0510922A0380912E
:101650002703882391F08EE592E00E944C0508EE66
:1016600013E021E030E041E050E070E060E090E025
:1016700080E00E94060610922703809126038823AB
:1016800009F451C0109225031092240383E692E0DE
:101690000E944C0500E911E026E430E046E450E009
:1016A00070E060E090E080E00E94060600EB14E04D
:1016B00026E430E046E450E070E060E081E090E055
:1016C0000E9406068091280390912903823E9F4F35
:1016D00054F50AE010E026E430E046E450E070E023
:1016E00060E081E090E00E9406060E945A05809129
:1016F000240390912503019690932503809324035E
:10170000CC9704F300ED17E030E020E050E040E03B
:1017100070E060E090E080E00E94060610922503F1
:1017200010922403CFCF80912303882309F450C063
:1017300010922503109224038FE692E00E944C053C
:1017400000E911E026E430E046E450E070E060E0BB
:1017500090E080E00E94060600EB14E026E430E012
:1017600046E450E061E070E090E080E00E94060610
:1017700080912803909129034F9754F10AE010E0DB
:1017800026E430E046E450E061E070E090E080E084
:101790000E9406060E945A05809124039091250319
:1017A00001969093250380932403CC970CF300EDCE
:1017B00017E030E020E050E040E070E060E090E0D2
:1017C00080E00E9406061092250310922403D0CFD9
:1017D00080912803909129038A3B9F4FE4F48091E4
:1017E0002C03811118C002E310E026E430E046E447
:1017F00050E061E070E081E090E00E94060608E1C0
:1018000011E026E430E046E450E070E060E081E082
:1018100090E00E9406068091280390912903873466
:1018200091050CF4C0CD80912C038111BCCD02E355
:1018300010E026E430E046E450E061E070E081E052
:1018400090E00E94060608E111E026E430E046E45C
:1018500050E061E070E090E080E00E940606A3CDD9
:101860000E94DE029ECD5058BB27AA270E944B0C37
:101870000C942A0D0E941C0D38F00E94230D20F0BC
:1018800039F49F3F19F426F40C94190D0EF4E095E9
:10189000E7FB0C94130DE92F0E943B0D58F3BA1788
:1018A000620773078407950720F079F4A6F50C9476
:1018B0005D0D0EF4E0950B2EBA2FA02D0B01B90192
:1018C00090010C01CA01A0011124FF27591B99F0B6
:1018D000593F50F4503E68F11A16F040A22F232FC2
:1018E000342F4427585FF3CF469537952795A79512
:1018F000F0405395C9F77EF41F16BA0B620B730BB9
:10190000840BBAF09150A1F0FF0FBB1F661F771F29
:10191000881FC2F70EC0BA0F621F731F841F48F4DE
:10192000879577956795B795F7959E3F08F0B0CF67
:101930009395880F08F09927EE0F9795879508954E
:101940000E94A70C6894B1110C945E0D08950E943A
:10195000430D88F09F5798F0B92F9927B751B0F0F1
:10196000E1F0660F771F881F991F1AF0BA95C9F723
:1019700014C0B13091F00E945D0DB1E008950C9457
:101980005D0D672F782F8827B85F39F0B93FCCF30A
:10199000869577956795B395D9F73EF490958095A0
:1019A000709561957F4F8F4F9F4F0895E89409C0C0
:1019B00097FB3EF490958095709561957F4F8F4F82
:1019C0009F4F9923A9F0F92F96E9BB279395F69598
:1019D000879577956795B795F111F8CFFAF4BB0F16
:1019E00011F460FF1BC06F5F7F4F8F4F9F4F16C07A
:1019F000882311F096E911C0772321F09EE8872F04
:101A0000762F05C0662371F096E8862F70E060E0BF
:101A10002AF09A95660F771F881FDAF7880F969538
:101A2000879597F9089597F99F6780E870E060E0DF
:101A300008959FEF80EC089500240A941616170667
:101A400018060906089500240A94121613061406AF
:101A500005060895092E0394000C11F4882352F012
:101A6000BB0F40F4BF2B11F460FF04C06F5F7F4FCA
:101A70008F4F9F4F089557FD9058440F551F59F0B1
:101A80005F3F71F04795880F97FB991F61F09F3F6B
:101A900079F087950895121613061406551FF2CF94
:101AA0004695F1DF08C0161617061806991FF1CFE4
:101AB00086957105610508940895E894BB2766270B
:101AC0007727CB0197F908950E94770D0C942A0D82
:101AD0000E941C0D38F00E94230D20F0952311F078
:101AE0000C94130D0C94190D11240C945E0D0E948E
:101AF0003B0D70F3959FC1F3950F50E0551F629F0A
:101B0000F001729FBB27F00DB11D639FAA27F00D56
:101B1000B11DAA1F649F6627B00DA11D661F829F7D
:101B20002227B00DA11D621F739FB00DA11D621F62
:101B3000839FA00D611D221F749F3327A00D611D7F
:101B4000231F849F600D211D822F762F6A2F112461
:101B50009F5750409AF0F1F088234AF0EE0FFF1F94
:101B6000BB1F661F771F881F91505040A9F79E3FEB
:101B7000510580F00C94130D0C945E0D5F3FE4F35F
:101B8000983ED4F3869577956795B795F795E79541
:101B90009F5FC1F7FE2B880F911D9695879597F94A
:101BA0000895A1E21A2EAA1BBB1BFD010DC0AA1F9E
:101BB000BB1FEE1FFF1FA217B307E407F50720F0B6
:101BC000A21BB30BE40BF50B661F771F881F991F31
:101BD0001A9469F760957095809590959B01AC017A
:101BE000BD01CF010895EE0FFF1F881F8BBF079027
:0A1BF000F691E02D1994F894FFCF50
:101BFA00FA00000000007102DB010802BE0239028D
:101C0A0017022B0200000000100505052105DB0460
:101C1A00FE04EB04DC040D0A006E6F204C696E654D
:101C2A000077726974654D6F746F723A20002C20C8
:101C3A00003B0048656C6C6F20576F726C64210022
:101C4A006C696E6B73003100320033003400626FCE
:101C5A00746800636F726E65724C6566742E0063F9
:0C1C6A006F726E657252696768742E001C
:00000001FF
