:020000040000FA
:100000000C945E010C948F010C948F010C948F0161
:100010000C948F010C948F010C948F010C948F0120
:100020000C948F010C948F010C948F010C948F0110
:100030000C948F010C948F010C948F010C948F0100
:100040000C948F010C948F010C948F010C948F01F0
:100050000C948F010C948F010C948F010C947C07ED
:100060000C948F010C9446070C941C070C948F0180
:100070000C948F010C948F010C948F010C948F01C0
:100080000C948F010C948F010C948F010C948F01B0
:100090000C948F010C948F010C948F010C94C60763
:1000A0000C948F010C948F010C948F010C948F0190
:1000B0000C948F010C948F010C948F010C948F0180
:1000C0000C948F010C948F010C948F010C948F0170
:1000D0000C948F010C948F010C948F010C948F0160
:1000E0000C948F010C943F030C9405050C9465034C
:1000F0000C940D040C94DB040C94F3030C9458043E
:100100000C94EA080C9483030C94B1010C946B03D7
:100110000C945E030C943A040C946C040C948B03C2
:100120000C942B040C944E040C9408020C942B0297
:100130000C9439020C9487030C9421040C9444040D
:100140000C94BE020C94E9030C946F030C94FE040F
:100150000C9421050C9462030C9410050C94170464
:100160000C9471020C94EB040C94D2030C940504CF
:100170000C94DC040C9491030C94FD030C947D030B
:100180000C9495030C9456030C94DF030C947903A0
:100190000C94A5060C9462040C945A030C947503F9
:1001A0000C9444030C94DA030C9417020C94B001E1
:1001B0000C94DB0100000A0B02090C0D0E0807036A
:1001C000040100000000000000000000000000002A
:1001D000000000000000000000000000000000001F
:1001E00012111000000000000000000000000000DC
:1001F00000000000000000000000000022002500B8
:1002000028002B002E0031003400020100000501FF
:1002100008010B0100002100240027002A002D0006
:100220003000330001010000040107010A01050547
:100230000505070508080808020202020A0A08085C
:10024000040404040101010101010101030303038A
:1002500003030303040707070C0C0C0C0C0C0C0C19
:100260000202020206060606060606060B0B0B0B2A
:100270000B0B0B0B0102102020080810204010204F
:10028000408002010201080402010102040810205A
:100290004080804020100804020180040201804058
:1002A00020100804020108040201010204081020C1
:1002B00040800102040810204080EA0811241FBE7B
:1002C000CFEFD1E2DEBFCDBF00E00CBF12E0A0E077
:1002D000B2E0EAEDFCE100E00BBF02C007900D9236
:1002E000AC38B107D9F723E0ACE8B2E001C01D9209
:1002F000A63EB207E1F711E0CEE5D1E000E006C08E
:1003000021970109802FFE010E94630ECD35D10790
:1003100080E00807A9F70E9423090C946B0E0C9447
:10032000000090E0FC01EC58FD4F2491825D9D4F50
:10033000FC018491882399F090E0880F991FFC01BB
:10034000EC5EFD4FA591B491FC01E650FE4F859106
:1003500094918FB7F894EC91E22BEC938FBF0895B2
:100360000895CF93DF93AC01E0912D03F0912E031C
:100370003097F1F090912C0380912B039817C0F0E7
:1003800090E0292F30E02617370754F4D901A457FD
:10039000BD4F240F351FE90128812C939F5FF1CFBA
:1003A00010922C0360932B03CB01DF91CF91199412
:1003B000DF91CF910895AF92BF92CF92DF92EF92EB
:1003C000FF920F931F93CF93DF936C017B018B01FF
:1003D000040F151FEB015E01AE18BF08C017D1074F
:1003E00059F06991D601ED91FC910190F081E02DD9
:1003F000C6011995892B79F7C501DF91CF911F911E
:100400000F91FF90EF90DF90CF90BF90AF90089545
:10041000FC01538D448D252F30E0842F90E0821B0A
:10042000930B541710F0CF96089501970895FC018F
:10043000918D828D981761F0A28DAE0FBF2FB11DE7
:100440005D968C91928D9F5F9F73928F90E008953F
:100450008FEF9FEF0895FC01918D828D981731F0F9
:10046000828DE80FF11D858D90E008958FEF9FEF4D
:100470000895FC01918D228D892F90E0805C9F4F23
:10048000821B91098F73992708958DE393E00E9451
:10049000390221E0892B09F420E0822F0895FC0124
:1004A000A48DA80FB92FB11DA35ABF4F2C91848DD5
:1004B00090E001968F739927848FA689B7892C9332
:1004C000A089B1898C91837080648C93938D848D85
:1004D000981306C00288F389E02D80818F7D808388
:1004E0000895EF92FF920F931F93CF93DF93EC0148
:1004F00081E0888F9B8D8C8D98131AC0E889F989CB
:10050000808185FF15C09FB7F894EE89FF896083CD
:10051000E889F98980818370806480839FBF81E04E
:1005200090E0DF91CF911F910F91FF90EF90089590
:10053000F62E0B8D10E00F5F1F4F0F731127E02E6B
:100540008C8D8E110CC00FB607FCFACFE889F989A3
:10055000808185FFF5CFCE010E944F02F1CFEB8D58
:10056000EC0FFD2FF11DE35AFF4FF0829FB7F89477
:100570000B8FEA89FB8980818062CFCFCF93DF9395
:10058000EC01888D8823B9F0AA89BB89E889F989AB
:100590008C9185FD03C0808186FD0DC00FB607FCE0
:1005A000F7CF8C9185FFF2CF808185FFEDCFCE0113
:1005B0000E944F02E9CFDF91CF91089580E090E053
:1005C000892B29F00E94450281110E94000080E0E1
:1005D00090E0892B49F080E090E0892B29F00E947F
:1005E000000081110E94000080E090E0892B49F01A
:1005F00080E090E0892B29F00E94000081110E9488
:10060000000080E090E0892B49F080E090E0892BA9
:1006100029F00E94000081110C9400000895282FF9
:1006200030E0F901EC54FE4F9491F901EC58FD4F84
:100630004491225D3D4FF9012491222309F435C0F4
:10064000992311F191509231F8F4E92FF0E08827C5
:10065000E35DFC4F8F4F0C94630E5E0362033F0318
:1006600056035A03440365036B036F037503790351
:100670007D038303870344038B03910395038091D8
:1006800080008F7780938000E22FF0E0EE0FFF1F55
:10069000E650FE4FA591B4918FB7F894EC9161119B
:1006A00048C040954E234C938FBF089580918000A1
:1006B0008F7DE8CF80918000877FE4CF84B58F77EE
:1006C00084BDE2CF84B58F7DFBCF8091B0008F7762
:1006D0008093B000D9CF8091B0008F7DF9CF809109
:1006E00090008F7780939000CFCF809190008F7D86
:1006F000F9CF80919000877FF5CF8091A0008F7710
:100700008093A000C1CF8091A0008F7DF9CF809110
:10071000A000877FF5CF809120018F778093200103
:10072000B3CF809120018F7DF9CF80912001877F09
:10073000F5CF4E2BB8CF1F93CF93DF93182FEB013C
:100740000E949101209739F460E0812FDF91CF91D1
:100750001F910C940F03CF3FD10511F461E0F5CF49
:10076000E12FF0E0EC54FE4FE491E150E23108F06B
:10077000B3C0F0E08827E054FC4F8F4F0C94630E19
:10078000D203DA03DF03E903F3036C04FD0305047A
:100790000D04170421042B043A0444046C044E0491
:1007A0005804620484B5806884BDC7BDDF91CF91D1
:1007B0001F91089584B5806284BDC8BDF7CF809134
:1007C0008000806880938000D0938900C093880067
:1007D000EDCF80918000806280938000D0938B0069
:1007E000C0938A00E3CF809180008860809380006E
:1007F000D0938D00C0938C00D9CF8091B0008068D9
:100800008093B000C093B300D1CF8091B0008062DC
:100810008093B000C093B400C9CF809190008068ED
:1008200080939000D0939900C0939800BFCF80919F
:100830009000806280939000D0939B00C0939A00B8
:10084000B5CF80919000886080939000D0939D00F8
:10085000C0939C00ABCF8091A00080688093A000E3
:100860008091A0008F7B8093A000D093A900C093BB
:10087000A8009CCF8091A00080628093A000D093BC
:10088000AB00C093AA0092CF8091A00088608093B3
:10089000A000D093AD00C093AC0088CF8091200120
:1008A000806880932001D0932901C09328017ECFD6
:1008B00080912001806280932001D0932B01C0930E
:1008C0002A0174CF80912001886080932001D09309
:1008D0002D01C0932C016ACFC038D1050CF03ECF5A
:1008E00033CF3FB7F8948091210390912203A091D8
:1008F0002303B091240326B5A89B05C02F3F19F010
:100900000196A11DB11D3FBFBA2FA92F982F88278F
:10091000BC01CD01620F711D811D911D42E0660F6A
:10092000771F881F991F4A95D1F708952091D20209
:10093000260F3327331F21323105ECF42091F602C4
:10094000FC0190E080E0243069F082E00895A091FD
:10095000D2022191AC014E545D4FA40FB52FB11DB1
:100960002C930196861798F38091D202680F6093BA
:10097000D20280E0089581E008951092F60281E0AD
:100980008093F8021092F70261E084E10E940F0365
:1009900061E085E10E940F03E9EBF0E080818E7F4A
:1009A000808380818D7F808388E48093B80085E494
:1009B0008093BC0008950895E0912C0380912B034F
:1009C000E81730F4F0E0E457FD4F808190E008959F
:1009D0008FEF9FEF089590912C0380912B032FEFC1
:1009E0003FEF981748F4E92FF0E0E457FD4F2081DE
:1009F00030E09F5F90932C03C901089580912B03F1
:100A000090912C03891B990B0895CF93DF93CB0111
:100A1000EA01642F0E949604CE01DF91CF910895E0
:100A2000CF93DF931F92CDB7DEB7698361E0CE012C
:100A300001960E94960481E090E00F90DF91CF91A3
:100A4000089590E080E00895FC0101900020E9F70E
:100A50003197AF01481B590BBC018DE393E00C9417
:100A6000DB01CF93DF930E942405EC0186E292E044
:100A70000E9424058C0F9D1FDF91CF910895CF9385
:100A8000DF9380910002909101029C012150310975
:100A9000273C310548F48456910990933A0380939A
:100AA000390310923B030AC0813E9105D1F781E0E2
:100AB00080933B0389E292E00E942405C0910002EA
:100AC000D0910102C73DD10541F581E080933C03FF
:100AD00070E060E084E00E949B0370E060E085E0ED
:100AE0000E949B0370E060E086E00E949B0370E040
:100AF00060E087E00E949B03CF3CD10589F481E050
:100B00008093380310923703C93CD10579F481E012
:100B1000809336031092330311C010923C03ECCF44
:100B2000C03DD10579F781E08093370310923603F9
:100B3000CA3CD10579F781E080933303DF91CF91EF
:100B400008958F929F92AF92BF92CF92DF92EF92D1
:100B5000FF920F931F93CF93DF93CDB7DEB7A1978B
:100B60000FB6F894DEBF0FBECDBF6C01990FEE0833
:100B7000FF08F7FE41C06DE28DE393E00E94710231
:100B80008C0122273327A9012C193D094E095F0941
:100B900019A2CE0181967C019AE0892E912CA12C7C
:100BA000B12CCA01B901A50194010E94410E605DFA
:100BB000F70162937F01211531054105510589F740
:100BC00090E080E0309719F0CF010E942405800F5B
:100BD000911FA1960FB6F894DEBF0FBECDBFDF9177
:100BE000CF911F910F91FF90EF90DF90CF90BF902A
:100BF000AF909F908F900895A701960119A28E0142
:100C00000F5D1F4F8AE0C82ED12CE12CF12CCA01B8
:100C1000B901A70196010E94410E605DF80162933F
:100C20008F01211531054105510589F790E080E0DC
:100C3000309779F2CF010E942405CBCF8F929F92FB
:100C4000AF92BF92CF92DF92EF92FF920F931F93DA
:100C5000982E892ED62EC72E5A01790181E392E073
:100C60000E942405892D982D0E94A1058EE392E013
:100C70000E9424058D2D9C2D0E94A1058EE392E0FB
:100C80000E942405C5010E94A1058EE392E00E9406
:100C90002405C7010E94A1058EE392E00E9424056D
:100CA000C8010E94A10581E492E00E943105692DEE
:100CB00088E00E940F03692D89E00E940F036D2DCB
:100CC0008AE00E940F036D2D8BE00E940F03B50197
:100CD00084E00E949B03B50185E00E949B03B7015D
:100CE00086E00E949B03B70187E00E949B03680196
:100CF000110FEE08FF080E9471044B015C010E9475
:100D00007104681979098A099B09683E7340810555
:100D10009105A8F321E0C21AD108E108F10888EE94
:100D2000880E83E0981EA11CB11CC114D104E104FB
:100D3000F10429F71F910F91FF90EF90DF90CF9072
:100D4000BF90AF909F908F90089580912B039091CA
:100D50002C03891B990B029754F08AED93E00E94B3
:100D6000EB04682F8DE393E00E947102EECF8AEDD1
:100D700093E00E94EB0490930102809300020E9492
:100D8000A10586E292E00C942405CF93DF9385EDD4
:100D90008093BC008091AE029091AF02A091B0020E
:100DA000B091B1020796A11DB11D23E0B695A7959C
:100DB000979587952A95D1F72091BC0024FD03C013
:100DC0001092F60236C04091AE025091AF0260918F
:100DD000B0027091B102452B462B472B69F3009767
:100DE000A105B10541F025E32A95F1F7000001972F
:100DF000A109B109E1CF8091AD0291E09093AC02DD
:100E00008823B9F0C091B800D091BA008091BC009D
:100E10008A7B8093BC0060E084E10E940F0360E065
:100E200085E10E940F030E94BD04D093BA00C093D5
:100E3000B800DF91CF9108951F920F920FB60F92D5
:100E400011240BB60F922F933F934F935F936F93A1
:100E50007F938F939F93AF93BF93EF93FF938DE314
:100E600093E00E944F02FF91EF91BF91AF919F914C
:100E70008F917F916F915F914F913F912F910F9043
:100E80000BBE0F900FBE0F901F9018951F920F92E0
:100E90000FB60F9211240BB60F922F938F939F933F
:100EA000EF93FF93E0914D03F0914E038081E09129
:100EB0005303F091540382FD1DC09081809156032D
:100EC0008F5F8F7320915703821741F0E091560393
:100ED000F0E0E35CFC4F958F80935603FF91EF9118
:100EE0009F918F912F910F900BBE0F900FBE0F907F
:100EF0001F9018958081F2CF1F920F920FB60F921C
:100F000011242F933F938F939F93AF93BF9380911F
:100F10001D0390911E03A0911F03B09120033091F7
:100F20001C0323E0230F2D3758F50196A11DB11D99
:100F300020931C0380931D0390931E03A0931F0313
:100F4000B09320038091210390912203A091230369
:100F5000B09124030196A11DB11D809321039093AC
:100F60002203A0932303B0932403BF91AF919F91D9
:100F70008F913F912F910F900FBE0F901F9018955A
:100F800026E8230F0296A11DB11DD2CF1F920F920A
:100F90000FB60F9211240BB60F922F933F934F93DE
:100FA0005F936F937F938F939F93AF93BF93EF93D1
:100FB000FF938091B900887F803609F44DC008F016
:100FC00040C0883209F4A9C028F5803109F49DC0D9
:100FD000C8F4882309F4FBC0883009F496C0FF9157
:100FE000EF91BF91AF919F918F917F916F915F91A1
:100FF0004F913F912F910F900BBE0F900FBE0F900E
:101000001F901895883109F488C0803241F7809389
:10101000F50214C0803409F49DC040F48033B9F364
:101020008833E9F68093F50285ECB0C0803509F489
:1010300085C0883509F496C0883489F60E94C506B3
:10104000CECF883909F48CC038F5883729F050F4B0
:10105000883611F0803719F683E08093F6021092FB
:10106000F40257C0883809F47BC0803919F0803801
:1010700009F0B5CF8091F402803208F071C0E091A0
:10108000F40281E08E0F8093F4028091BB00F0E0C7
:10109000EC52FD4F80833DC0803B39F0E0F4803A54
:1010A00009F479C0883A09F09ACF84E08093F60277
:1010B0001092D3021092D202E0912703F0912803FC
:1010C00019958091D20281110FC081E08093D202E4
:1010D0001092B20209C0803C09F4A6CF883C09F402
:1010E000A3CF883B09F07BCFE091D30281E08E0F44
:1010F0008093D302F0E0EE54FD4F80818093BB00DB
:101100009091D3028091D20229C080911B038093D9
:10111000BB0085EC8093BC0062CF90911A03809154
:101120001903981758F5E0911A0381E08E0F809308
:101130001A03F0E0E750FD4F8081E9CFE0911A03F8
:1011400081E08E0F80931A038091BB00F0E0E7509E
:10115000FD4F808390911A03809119039817C8F26C
:1011600085E8D8CFE0911A0381E08E0F80931A03AF
:101170008091BB00F0E0E750FD4F80838091F80242
:1011800081115CCF81E08093F70284EA8093BC00F8
:101190001092F60224CF85EC8093BC001092F602E8
:1011A0008091F402803230F4E091F402F0E0EC52ED
:1011B000FD4F10826091F40270E0E0912503F09100
:1011C000260384ED92E019951092F40208CF109254
:1011D000F50234CFEDE3F3E01382128288EE93E060
:1011E000A0E0B0E084839583A683B78326E032E055
:1011F0003183208325EC30E03587248724EC30E0F0
:101200003787268720EC30E0318B208B21EC30E0D3
:10121000338B228B22EC30E0358B248B26EC30E0B4
:10122000378B268B118E128E138E148EEAEDF3E01F
:101230001382128284839583A683B78388E192E028
:10124000918380830895789484B5826084BD84B549
:10125000816084BD85B5826085BD85B5816085BDB1
:1012600080916E00816080936E0010928100809169
:1012700081008260809381008091810081608093F1
:101280008100809180008160809380008091B10016
:1012900084608093B1008091B00081608093B00041
:1012A0008091910082608093910080919100816093
:1012B0008093910080919000816080939000809154
:1012C000A10082608093A1008091A1008160809341
:1012D000A1008091A00081608093A00080912101F5
:1012E000826080932101809121018160809321019E
:1012F0008091200181608093200180917A00846038
:1013000080937A0080917A00826080937A00809145
:101310007A00816080937A0080917A00806880935F
:101320007A001092C10010922C0310922B0310929D
:101330002A03109229030E94BD0480EB91E0909350
:1013400028038093270381EB91E0909326038093F9
:10135000250388E08093BA0085EA96E090932E03F7
:1013600080932D03E0914D03F0914E0382E0808342
:10137000E0914903F0914A031082E0914B03F09110
:101380004C038FEC808310925503E0915103F09150
:10139000520386E08083E0914F03F09150038081F7
:1013A00080618083E0914F03F091500380818860D9
:1013B0008083E0914F03F0915003808180688083A7
:1013C000E0914F03F091500380818F7D808383E40F
:1013D00092E00E94310584E00E94910185E00E9424
:1013E000910186E00E94910187E00E94910188E0CE
:1013F0000E94910189E00E9491018AE00E9491017E
:101400008BE00E94910182E3E82EF12CCC24CA9457
:10141000D12C0E943F0580913C03811191C20E9412
:101420003F05C0913903D0913A031C161D060CF0FC
:10143000B0C0BE010D2E000C880B990B0E94480D08
:101440004B015C012DEC3CEC4CE45EE30E94D40DBE
:1014500020E030E048E452E40E94A40C20E030E0B8
:10146000A9010E94A40C0E94100D70933203609396
:1014700031032AE939E949E95FE3C501B4010E9472
:10148000D40D9B01AC0160E070E088E492E40E941E
:10149000A30C20E030E0A9010E94A40C0E94100DD2
:1014A0007093300360932F03809131039091320346
:1014B00097FF97C01092320310923103CD2B41F465
:1014C000F0923203E0923103F0923003E0922F0366
:1014D00080912F039091300397FF8DC010923003BD
:1014E00010922F0360E088E00E940F0360E08AE022
:1014F0000E940F0360E089E00E940F0360E08BE030
:101500000E940F03609131037091320377FF02C094
:1015100061E070E0C0912F03D09130035B018E0138
:10152000D7FF05C0AA24A394B12C01E010E084E009
:101530000E949B03B50185E00E949B03BE0186E0EB
:101540000E949B03B80187E00E949B0380913B03AC
:10155000882309F45AC00CE211E026E430E046E4A6
:1015600050E070E060E090E080E00E941E060E9483
:101570003F0580913B03882309F447C001E010E058
:1015800026E430E046E450E061E070E081E090E085
:10159000ECCF209709F488CFBE010D2E000C880BEC
:1015A000990B0E94480D4B015C012AE939E949E990
:1015B0005FE30E94D40D20E030E048E452E40E9452
:1015C000A40C20E030E0A9010E94A40C0E94100DA0
:1015D00070933203609331032DEC3CEC4CE45EE3FA
:1015E0004CCF8F3F910509F00CF468CFD0923203B5
:1015F000C092310363CF8F3F910509F00CF472CF95
:10160000D0923003C0922F036DCF80910002909151
:1016100001028E3C910509F042C080E592E00E94F3
:10162000310585E692E00E94310500E911E026E4EB
:1016300030E046E450E070E060E090E080E00E943E
:101640001E0687E692E00E94310500EB14E026E4D6
:1016500030E046E450E070E060E081E090E00E941D
:101660001E068091390390913A03823E9F4F9CF46D
:1016700089E692E00E9431050AE010E026E430E0BD
:1016800046E450E070E060E081E090E00E941E06D9
:101690000E943F05E6CF8BE692E00E9431058091E3
:1016A0003803882309F443C080E592E00E943105A5
:1016B00085E692E00E94310500E911E026E430E081
:1016C00046E450E070E060E090E080E00E941E069A
:1016D00087E692E00E94310500EB14E026E430E05A
:1016E00046E450E061E070E090E080E00E941E0679
:1016F0008091390390913A034F979CF089E692E0EC
:101700000E9431050AE010E026E430E046E450E0B3
:1017100061E070E090E080E00E941E060E943F05BC
:10172000E7CF8BE692E00E9431051092380380915A
:101730003703882391F08DE692E00E94310508EE90
:1017400013E021E030E041E050E070E060E090E044
:1017500080E00E941E061092370380913603882392
:1017600009F451C0109235031092340382E792E0DD
:101770000E94310500E911E026E430E046E450E043
:1017800070E060E090E080E00E941E0600EB14E054
:1017900026E430E046E450E070E060E081E090E074
:1017A0000E941E068091390390913A03823E9F4F1A
:1017B00054F50AE010E026E430E046E450E070E042
:1017C00060E081E090E00E941E060E943F0580914B
:1017D000340390913503019690933503809334033D
:1017E000CC9704F300ED17E030E020E050E040E05B
:1017F00070E060E090E080E00E941E0610923503E9
:1018000010923403CFCF80913303882309F450C062
:1018100010923503109234038EE792E00E94310556
:1018200000E911E026E430E046E450E070E060E0DA
:1018300090E080E00E941E0600EB14E026E430E019
:1018400046E450E061E070E090E080E00E941E0617
:101850008091390390913A034F9754F10AE010E0D8
:1018600026E430E046E450E061E070E090E080E0A3
:101870000E941E060E943F0580913403909135031B
:1018800001969093350380933403CC970CF300EDCD
:1018900017E030E020E050E040E070E060E090E0F1
:1018A00080E00E941E061092350310923403D0CFC0
:1018B0008091390390913A038A3B9F4FE4F48091E1
:1018C0003B03811118C002E310E026E430E046E457
:1018D00050E061E070E081E090E00E941E0608E1C7
:1018E00011E026E430E046E450E070E060E081E0A2
:1018F00090E00E941E068091390390913A0387344C
:1019000091050CF488CD80913B03811184CD02E3D5
:1019100010E026E430E046E450E061E070E081E071
:1019200090E00E941E0608E111E026E430E046E463
:1019300050E061E070E090E080E00E941E066BCD18
:101940000E94DE0266CD5058BB27AA270E94BB0C1E
:101950000C949A0D0E948C0D38F00E94930D20F08B
:1019600039F49F3F19F426F40C94890D0EF4E09598
:10197000E7FB0C94830DE92F0E94AB0D58F3BA17C7
:10198000620773078407950720F079F4A6F50C9495
:10199000CD0D0EF4E0950B2EBA2FA02D0B01B90141
:1019A00090010C01CA01A0011124FF27591B99F0D5
:1019B000593F50F4503E68F11A16F040A22F232FE1
:1019C000342F4427585FF3CF469537952795A79531
:1019D000F0405395C9F77EF41F16BA0B620B730BD8
:1019E000840BBAF09150A1F0FF0FBB1F661F771F49
:1019F000881FC2F70EC0BA0F621F731F841F48F4FE
:101A0000879577956795B795F7959E3F08F0B0CF86
:101A10009395880F08F09927EE0F9795879508956D
:101A20000E94170D6894B1110C94CE0D08950E9478
:101A3000B30D88F09F5798F0B92F9927B751B0F0A0
:101A4000E1F0660F771F881F991F1AF0BA95C9F742
:101A500014C0B13091F00E94CD0DB1E008950C9406
:101A6000CD0D672F782F8827B85F39F0B93FCCF3B9
:101A7000869577956795B395D9F73EF490958095BF
:101A8000709561957F4F8F4F9F4F0895E89409C0DF
:101A900097FB3EF490958095709561957F4F8F4FA1
:101AA0009F4F9923A9F0F92F96E9BB279395F695B7
:101AB000879577956795B795F111F8CFFAF4BB0F35
:101AC00011F460FF1BC06F5F7F4F8F4F9F4F16C099
:101AD000882311F096E911C0772321F09EE8872F23
:101AE000762F05C0662371F096E8862F70E060E0DF
:101AF0002AF09A95660F771F881FDAF7880F969558
:101B0000879597F9089597F99F6780E870E060E0FE
:101B100008959FEF80EC089500240A941616170686
:101B200018060906089500240A94121613061406CE
:101B300005060895092E0394000C11F4882352F031
:101B4000BB0F40F4BF2B11F460FF04C06F5F7F4FE9
:101B50008F4F9F4F089557FD9058440F551F59F0D0
:101B60005F3F71F04795880F97FB991F61F09F3F8A
:101B700079F087950895121613061406551FF2CFB3
:101B80004695F1DF08C0161617061806991FF1CF03
:101B900086957105610508940895E894BB2766272A
:101BA0007727CB0197F908950E94E70D0C949A0DC1
:101BB0000E948C0D38F00E94930D20F0952311F0B7
:101BC0000C94830D0C94890D11240C94CE0D0E945D
:101BD000AB0D70F3959FC1F3950F50E0551F629FB9
:101BE000F001729FBB27F00DB11D639FAA27F00D76
:101BF000B11DAA1F649F6627B00DA11D661F829F9D
:101C00002227B00DA11D621F739FB00DA11D621F81
:101C1000839FA00D611D221F749F3327A00D611D9E
:101C2000231F849F600D211D822F762F6A2F112480
:101C30009F5750409AF0F1F088234AF0EE0FFF1FB3
:101C4000BB1F661F771F881F91505040A9F79E3F0A
:101C5000510580F00C94830D0C94CE0D5F3FE4F39E
:101C6000983ED4F3869577956795B795F795E79560
:101C70009F5FC1F7FE2B880F911D9695879597F969
:101C80000895A1E21A2EAA1BBB1BFD010DC0AA1FBD
:101C9000BB1FEE1FFF1FA217B307E407F50720F0D5
:101CA000A21BB30BE40BF50B661F771F881F991F50
:101CB0001A9469F760957095809590959B01AC0199
:101CC000BD01CF010895EE0FFF1F881F8BBF079046
:101CD000F691E02D1994F894FFCFFA00000000006F
:101CE0007102DB010802BE02390217022B0200005A
:101CF0000000100505052105DB04FE04EB04DC04EF
:101D00000D0A006E6F204C696E650077726974650C
:101D10004D6F746F723A20002C20003B0048656CB8
:101D20006C6F20576F726C6421004772C3BC6E6584
:101D3000722050756E6B7420726563687473003125
:101D400000320033003400626F746800636F726E9B
:101D500065724C6566742E00636F726E65725269AF
:061D60006768742E00000C
:10E000000D9489F10D94B2F10D94B2F10D94B2F129
:10E010000D94B2F10D94B2F10D94B2F10D94B2F1F0
:10E020000D94B2F10D94B2F10D94B2F10D94B2F1E0
:10E030000D94B2F10D94B2F10D94B2F10D94B2F1D0
:10E040000D94B2F10D94B2F10D94B2F10D94B2F1C0
:10E050000D94B2F10D94B2F10D94B2F10D94B2F1B0
:10E060000D94B2F10D94B2F10D94B2F10D94B2F1A0
:10E070000D94B2F10D94B2F10D94B2F10D94B2F190
:10E080000D94B2F10D94B2F10D94B2F10D94B2F180
:10E090000D94B2F10D94B2F10D94B2F10D94B2F170
:10E0A0000D94B2F10D94B2F10D94B2F10D94B2F160
:10E0B0000D94B2F10D94B2F10D94B2F10D94B2F150
:10E0C0000D94B2F10D94B2F10D94B2F10D94B2F140
:10E0D0000D94B2F10D94B2F10D94B2F10D94B2F130
:10E0E0000D94B2F141546D656761323536300041AF
:10E0F000726475696E6F206578706C6F72657220DE
:10E1000073746B3530305632206279204D4C530099
:10E11000426F6F746C6F616465723E004875683F52
:10E1200000436F6D70696C6564206F6E203D200048
:10E130004350552054797065202020203D20005FF9
:10E140005F4156525F415243485F5F3D2000415658
:10E1500052204C696243205665723D20004743437C
:10E160002056657273696F6E203D20004350552024
:10E1700049442020202020203D20004C6F7720663D
:10E18000757365202020203D20004869676820665F
:10E190007573652020203D200045787420667573D6
:10E1A00065202020203D20004C6F636B2066757336
:10E1B000652020203D20004D617220203720323024
:10E1C000313300312E362E3800342E332E350056A2
:10E1D00023202020414444522020206F7020636F70
:10E1E00064652020202020696E73747275637469E1
:10E1F0006F6E2061646472202020496E74657272B3
:10E20000757074006E6F20766563746F7200726A49
:10E210006D702020006A6D70200057686174207056
:10E220006F72743A00506F7274206E6F7420737541
:10E2300070706F72746564004D7573742062652030
:10E2400061206C6574746572002000577269747483
:10E25000696E672045450052656164696E672045B7
:10E26000450045452065727220636E743D00504F35
:10E27000525400303D5A65726F2061646472003FF1
:10E280003D43505520737461747300403D454550C3
:10E29000524F4D207465737400423D426C696E6B41
:10E2A000204C454400453D44756D70204545505215
:10E2B0004F4D00463D44756D7020464C415348001B
:10E2C000483D48656C70004C3D4C69737420492F83
:10E2D0004F20506F72747300513D51756974005234
:10E2E0003D44756D702052414D00563D73686F7707
:10E2F00020696E7465727275707420566563746FF0
:10E30000727300593D506F727420626C696E6B00BD
:10E310002A0011241FBECFEFD1E2DEBFCDBF01E046
:10E320000CBF12E0A0E0B2E0EEE1FDEF03E00BBFB6
:10E3300002C007900D92A030B107D9F712E0A0E01B
:10E34000B2E001C01D92AE30B107E1F70F9460F367
:10E350000D948DFE01E20EBF0FEF0DBF11241FBE05
:10E360000D9460F30D9400F020E030E040ED57E0B4
:10E3700005C0FA013197F1F72F5F3F4F2817390792
:10E38000C0F308959C01260F311DC901A0E0B0E043
:10E390002F5F3F4FABBFFC018791882361F08093D3
:10E3A000C6008091C00086FFFCCF8091C0008064D1
:10E3B0008093C000EACF08958DE08093C6008091DD
:10E3C000C00086FFFCCF8091C00080648093C000B5
:10E3D0008AE08093C6008091C00086FFFCCF8091C8
:10E3E000C00080648093C00008950F94C2F10F9420
:10E3F000DCF10895FC019081992359F09093C600B7
:10E400008091C00086FFFCCF8091C0008064809323
:10E41000C0003196992379F70895282F982F929567
:10E420009F70892F805D8A3308F0895F8093C600D2
:10E430008091C00086FFFCCF8091C00080648093F3
:10E44000C000822F8F70982F905D9A3308F0995FEB
:10E450009093C6008091C00086FFFCCF8091C000E1
:10E4600080648093C00008959C01FB01853691056E
:10E470001CF46330710594F0C90164E670E00F94F8
:10E480002EFE605D7F4F6093C6008091C00086FFC6
:10E49000FCCF8091C00080648093C0002B30310598
:10E4A00014F43297B4F0C90164E670E00F942EFEC4
:10E4B0006AE070E00F942EFE605D7F4F6093C600AF
:10E4C0008091C00086FFFCCF8091C0008064809363
:10E4D000C000C9016AE070E00F942EFEC0968093E0
:10E4E000C6008091C00086FFFCCF8091C000806490
:10E4F0008093C00008951F93182F8EE692EE60E07F
:10E500000F94C2F11093C6008091C00086FFFCCF2B
:10E510008091C00080648093C0000F94DCF11F9153
:10E5200008952F923F924F925F926F927F928F92B7
:10E530009F92AF92BF92CF92DF92EF92FF920F9392
:10E540001F93DF93CF93CDB7DEB762970FB6F894E2
:10E55000DEBF0FBECDBF382E622ECA01DB015C01CB
:10E560006D01772420E2222E2E010894411C511CBB
:10E570008BC081E0A81680E0B80681E0C80680E084
:10E58000D80628F0C601AA27BB270F940DF2BB2797
:10E59000AD2D9C2D8B2D0F940DF28A2D0F940DF225
:10E5A0002092C6008091C00086FFFCCF8091C00001
:10E5B00080648093C0009DE29093C6008091C0006B
:10E5C00086FFFCCF8091C00080648093C0002092C1
:10E5D000C6008091C00086FFFCCF8091C00080649F
:10E5E0008093C00019828601750188249924A1E0D6
:10E5F0003A1651F03A1620F0B2E03B1661F409C029
:10E600000BBFF701779007C0C7010F9477FE782EF4
:10E6100002C0F7017080872D0F940DF22092C60082
:10E620008091C00086FFFCCF8091C0008064809301
:10E63000C000872D8052F401EF70F0708F3520F408
:10E64000E40DF51D708204C0E40DF51D8EE280839B
:10E650000894E11CF11C011D111D0894811C911CE2
:10E6600090E18916910409F0C2CF80E190E0A0E02A
:10E67000B0E0A80EB91ECA1EDB1E198AC2010F9493
:10E68000FAF10F94DCF16A94662009F072CF629679
:10E690000FB6F894DEBF0FBECDBFCF91DF911F91B3
:10E6A0000F91FF90EF90DF90CF90BF90AF909F9031
:10E6B0008F907F906F905F904F903F902F90089534
:10E6C0002F923F924F925F926F927F928F929F9282
:10E6D000AF92BF92CF92DF92EF92FF920F931F9370
:10E6E000DF93CF93CDB7DEB7CD53D1400FB6F894BB
:10E6F000DEBF0FBECDBF01E20EBF0FEF0DBF94B75F
:10E70000F894A89514BE80916000886180936000A1
:10E7100010926000789493FF05C0E0910002F091A0
:10E7200001021995279A2F9A8091C00082608093E8
:10E73000C00080E18093C40088E18093C1000000A4
:10E74000EE24FF24870144E0A42EB12CCC24DD2448
:10E7500024C0C5010197F1F70894E11CF11C011DCB
:10E76000111D21E2E2162EE4F20620E0020720E06D
:10E77000120718F031E0C32ED12CC801B70127ECE5
:10E780003BE140E050E00F9441FE611571058105C9
:10E79000910519F485B1805885B98091C00087FD35
:10E7A00003C0C114D104A9F2A6014F5F5F4FC25E3E
:10E7B000DE4F59834883CE51D140C25EDE4F8881FF
:10E7C0009981CE51D140019711F00D9410FEC05D9A
:10E7D000DE4F19821882C053D14060E0C15DDE4F28
:10E7E0001882CF52D14088249924C35DDE4F19820C
:10E7F0001882CD52D140C05EDE4F188219821A8233
:10E800001B82C052D140CE5CDE4F188219821A8220
:10E810001B82C253D140EE24FF2487010BBFF701B6
:10E8200007911691C45CDE4F19830883CC53D14005
:10E830000D940BFEC25EDE4F28813981CE51D1404E
:10E840002130310509F52091C600C25EDE4F1982E4
:10E850001882CE51D14022C02F5F3F4F4F4F5F4FA4
:10E86000213082E138078AE7480780E0580780F0C6
:10E87000C45CDE4FE881F981CC53D140EF5FFF4F9C
:10E8800019F0EE27FF27099420E030E040E050E047
:10E890008091C00087FFE0CF2091C600C35DDE4FAE
:10E8A00048815981CD52D1404F5F5F4FC35DDE4FEC
:10E8B00059834883CD52D140213209F063C64A3092
:10E8C000510508F05FC60894811C911C53E0851621
:10E8D000910409F059C600E010E018C081E280936D
:10E8E000C6008091C00086FFFCCF8091C00080648C
:10E8F0008093C0002F5F3F4F2931310579F70F9486
:10E90000DCF10F5F1F4F0530110519F020E030E0FA
:10E91000E5CF10920A0210920B0210920C02109294
:10E920000D02109206021092070210920802109235
:10E930000902109202021092030210920402109235
:10E9400005028FEE90EE60E00F94F5F180E191EE1C
:10E9500060E00F94C2F18091C00087FFFCCF9091DE
:10E96000C600903608F09F759032B8F09093C600BC
:10E970008091C00086FFFCCF8091C00080648093AE
:10E98000C000A0E2A093C6008091C00086FFFCCF2B
:10E990008091C00080648093C000983409F4D7C18E
:10E9A0009934B8F4923409F459C1933458F490333B
:10E9B00019F1903308F4E3C59F33A1F1903409F0C5
:10E9C000DEC5BDC0953409F470C1963409F0D7C5D1
:10E9D00098C1923509F42BC2933538F49C3409F46C
:10E9E000F5C1913509F0CBC518C2963509F445C279
:10E9F000993509F0C4C567C483E792EE62E00F94CD
:10EA0000F5F110920602109207021092080210927D
:10EA1000090210920A0210920B0210920C0210923C
:10EA20000D0213C18FE792EE62E00F94F5F18FEEC5
:10EA300090EE60E00F94F5F181E291EE60E00F94CA
:10EA4000C2F187EB91EE60E00F94F5F180E391EE77
:10EA500060E00F94C2F184EE90EE60E00F94F5F167
:10EA60008FE391EE60E00F94C2F186E090E061E008
:10EA700070E00F9434F20F94DCF18DE591EE60E0DC
:10EA80000F94C2F189EC91EE60E00F94F5F18EE401
:10EA900091EE60E00F94C2F183EC91EE60E00F9490
:10EAA000F5F18CE691EE60E00F94C2F18EE10F94E7
:10EAB0000DF288E90F940DF281E00F940DF20F949E
:10EAC000DCF18BE791EE60E00F94C2F119E0E0E039
:10EAD000F0E010935700E4918E2F0F940DF20F94F5
:10EAE000DCF18AE891EE60E00F94C2F1E3E0F0E03F
:10EAF00010935700E4918E2F0F940DF20F94DCF1D8
:10EB000089E991EE60E00F94C2F1E2E0F0E0109349
:10EB10005700E4918E2F0F940DF20F94DCF188EAE8
:10EB200091EE60E00F94C2F1E1E0F0E01093570045
:10EB30001491812F0F940DF20F94DCF107CF8BE825
:10EB400092EE62E00F94F5F18BE492EE60E00F94A8
:10EB5000F5F10F94DCF100E010E019C0C8016F2D51
:10EB60000F947FFEFF2031F489E492EE60E00F9471
:10EB7000C2F10BC0F092C6008091C00086FFFCCFAE
:10EB80008091C00080648093C0000F5F1F4FC80158
:10EB900081519F41A0E0B0E0ABBFFC01F790BAE229
:10EBA000FB1621F0E2E000301E07C1F60F94DCF105
:10EBB0000F94DCF187E592EE60E00F94F5F10F948D
:10EBC000DCF1CC24DD2400E010E01EC0C8010F946D
:10EBD00077FEF82E882331F489E492EE60E00F94FA
:10EBE000C2F10BC08093C6008091C00086FFFCCFAD
:10EBF0008091C00080648093C000FE1419F00894D6
:10EC0000C11CD11C0F5F1F4FC80181519F41A0E063
:10EC1000B0E0ABBFFC01E790FAE2EF1621F022E092
:10EC20000030120799F60F94DCF10F94DCF182E6C4
:10EC300092EE60E00F94C2F1C60161E070E00F94C3
:10EC400034F20F94DCF10F94DCF110920202109276
:10EC50000302109204021092050278CE89E992EE26
:10EC600062E00F94F5F1279A2F9A16C02F9880E052
:10EC700090E0E0EDF7E03197F1F7019684369105E9
:10EC8000C1F72F9A80E090E0E0EDF7E03197F1F7DF
:10EC9000019684369105C1F78091C00087FFE6CFC9
:10ECA0008091C00087FFFCCF64C485EA92EE62E0E9
:10ECB0000F94F5F140910202509103026091040219
:10ECC0007091050281E020E10F9491F2809102029F
:10ECD00090910302A0910402B091050280509F4FD1
:10ECE000AF4FBF4F8093020290930302A0930402A0
:10ECF000B093050280509041A040B04008F426CE69
:10ED0000A4CF83EB92EE62E00F94F5F140910602FE
:10ED100050910702609108027091090280E020E1A1
:10ED20000F9491F28091060290910702A09108023F
:10ED3000B091090280509F4FAF4FBF4F80930602A2
:10ED400090930702A0930802B0930902FFCD80ECD4
:10ED500092EE62E00F94F5F183E792EE60E00F949B
:10ED6000F5F18FE792EE60E00F94F5F18BE892EE0B
:10ED700060E00F94F5F189E992EE60E00F94F5F10F
:10ED800085EA92EE60E00F94F5F183EB92EE60E09D
:10ED90000F94F5F180EC92EE60E00F94F5F187ECC2
:10EDA00092EE60E00F94F5F188ED92EE60E00F9442
:10EDB000F5F18FED92EE60E00F94F5F18AEE92EEB0
:10EDC00060E00F94F5F183E093EEBDCD87EC92EE19
:10EDD00062E00F94F5F181E40F947BF282E40F94EA
:10EDE0007BF283E40F947BF284E40F947BF285E45E
:10EDF0000F947BF286E40F947BF287E40F947BF20E
:10EE000088E40F947BF28AE40F947BF28BE40F94F6
:10EE10007BF28CE40F947BF299CD88ED92EE62E068
:10EE20000F94F5F1772473948824992409C48FED05
:10EE300092EE62E00F94F5F140910A0250910B02BC
:10EE400060910C0270910D0282E020E10F9491F22A
:10EE500080910A0290910B02A0910C02B0910D02D8
:10EE600080509F4FAF4FBF4F80930A0290930B0289
:10EE7000A0930C02B0930D0269CD8AEE92EE62E08F
:10EE80000F94F5F184EE90EE60E00F94F5F18FECC5
:10EE900091EE60E00F94F5F1662477244301CC5D98
:10EEA000DE4F19821882C452D140D401C301B695F5
:10EEB000A79597958795CA5DDE4F88839983AA8326
:10EEC000BB83C652D140CC5DDE4FA881B981C4520C
:10EED000D1401196CC5DDE4FB983A883C452D14096
:10EEE000CD0162E070E00F9434F2B0E2B093C6005E
:10EEF0008091C00086FFFCCF8091C0008064809329
:10EF0000C000EDE2E093C6008091C00086FFFCCF18
:10EF10008091C00080648093C000F0E2F093C6004E
:10EF20008091C00086FFFCCF8091C00080648093F8
:10EF3000C000CA5DDE4FE880F9800A811B81C6529D
:10EF4000D140BB27A12F902F8F2D0F940DF2CA5DBA
:10EF5000DE4F8881C652D1400F940DF2B0E2FB2EF5
:10EF6000F092C6008091C00086FFFCCF8091C00067
:10EF700080648093C0000DE30093C6008091C000C0
:10EF800086FFFCCF8091C00080648093C00010E2B7
:10EF90001093C6008091C00086FFFCCF8091C00016
:10EFA00080648093C0008BBEF3012791C65DDE4F65
:10EFB0002883CA52D140A22EBB24CC24DD2408943D
:10EFC000611C711C811C911C8BBEF3018791282E42
:10EFD0003324442455240894611C711C811C911C09
:10EFE0008BBEF3013791C55DDE4F3883CB52D140E4
:10EFF0000894611C711C811C911C8BBEF30147910C
:10F00000C45DDE4F4883CC52D140ADEFEA2EAFEF66
:10F01000FA2EAFEF0A2FAFEF1A2F6E0C7F1C801E57
:10F02000911E142D032DF22CEE24EA0CFB1C0C1D5A
:10F030001D1D0F940DF220E22093C6008091C000A8
:10F0400086FFFCCF8091C00080648093C000C65DC5
:10F05000DE4F8881CA52D1400F940DF230E23093D6
:10F06000C6008091C00086FFFCCF8091C000806404
:10F070008093C000C45DDE4F8881CC52D1400F9494
:10F080000DF240E24093C6008091C00086FFFCCFA5
:10F090008091C00080648093C000C55DDE4F888190
:10F0A000CB52D1400F940DF250E25093C6008091A4
:10F0B000C00086FFFCCF8091C00080648093C000B8
:10F0C0008FEFE8168FEFF80680E0080780E018075A
:10F0D00031F484E092EE60E00F94C2F1DFC0D80119
:10F0E000C7018070907CA070B0708050904CA040A0
:10F0F000B040D1F52FEF3FE340E050E0E222F322B1
:10F1000004231523CA5DDE4FA880B980CA80DB8046
:10F11000C652D140AE0CBF1CC01ED11EAA0CBB1CD7
:10F12000CC1CDD1C8EE092EE60E00F94C2F1BB2798
:10F13000A12F902F8F2D0F940DF28E2D0F940DF285
:10F1400030E23093C6008091C00086FFFCCF8091F2
:10F15000C00080648093C0004EE34093C60080915D
:10F16000C00086FFFCCF87C08EE09EEFA0E0B0E03D
:10F17000E822F9220A231B239CE0E91694E9F90608
:10F1800090E0090790E0190709F088C0C45DDE4FE0
:10F19000A881CC52D140EA2EFF2400E010E0102FCD
:10F1A0000F2DFE2CEE24C55DDE4FB881CB52D14031
:10F1B000EB0EF11C011D111DD601C501817090706F
:10F1C000A070B070DC0199278827E80EF91E0A1F8D
:10F1D0001B1F20EF30E040E050E0A222B322C42207
:10F1E000D52241E1AA0CBB1CCC1CDD1C4A95D1F7F1
:10F1F000EA0CFB1C0C1D1D1D81E090E0A0E0B0E0BE
:10F20000282239224A225B2235E1220C331C441C7D
:10F21000551C3A95D1F7E20CF31C041D151D57013E
:10F220006801AA0CBB1CCC1CDD1C85E192EE60E0E1
:10F230000F94C2F1C801AA27BB270F940DF2BB2778
:10F24000A12F902F8F2D0F940DF28E2D0F940DF274
:10F2500090E29093C6008091C00086FFFCCF809121
:10F26000C00080648093C000AEE3A093C60080918C
:10F27000C00086FFFCCF8091C00080648093C000F6
:10F28000C601AA27BB270F940DF2BB27AD2D9C2DDD
:10F290008B2D0F940DF28A2D0F940DF20F94DCF14B
:10F2A000CC5DDE4FE881F981C452D140F99709F471
:10F2B0004DCBF4E0EF2EF12C012D112D6E0C7F1CA7
:10F2C000801E911EF2CD83E093EE62E00F94F5F183
:10F2D0008AE192EE60E00F94C2F18091C00087FF56
:10F2E000FCCF1091C6001F751093C6008091C0001E
:10F2F00086FFFCCF8091C00080648093C0000F9493
:10F30000DCF1812F81548A3108F036C1163409F4BA
:10F3100095C0173490F4133409F44EC0143430F40B
:10F320001134F1F0123409F01DC130C0143409F465
:10F3300059C0153409F016C16BC01A3409F4C4C0A1
:10F340001B3438F4173409F48FC0183409F00AC19B
:10F35000A1C01B3409F4D2C01C3409F003C1E8C0B9
:10F360008FEF81B90DC082B1809582B980E090E0C5
:10F37000E0EDF7E03197F1F70196883C9105C1F790
:10F380008091C00087FFEFCF12B8EFC08FEF84B934
:10F390000DC085B1809585B980E090E0E0EDF7E0A3
:10F3A0003197F1F70196883C9105C1F78091C00033
:10F3B00087FFEFCF15B8D9C08FEF87B90DC088B1DF
:10F3C000809588B980E090E0E0EDF7E03197F1F7C3
:10F3D0000196883C9105C1F78091C00087FFEFCF6F
:10F3E00018B8C3C08FEF8AB90DC08BB180958BB9A7
:10F3F00080E090E0E0EDF7E03197F1F70196883C8E
:10F400009105C1F78091C00087FFEFCF1BB8ADC059
:10F410008FEF8DB90DC08EB180958EB980E090E0F0
:10F42000E0EDF7E03197F1F70196883C9105C1F7DF
:10F430008091C00087FFEFCF1EB897C08FEF80BBD1
:10F440000DC081B3809581BB80E090E0E0EDF7E0F6
:10F450003197F1F70196883C9105C1F78091C00082
:10F4600087FFEFCF11BA81C08FEF83BB0DC084B38C
:10F47000809584BB80E090E0E0EDF7E03197F1F714
:10F480000196883C9105C1F78091C00087FFEFCFBE
:10F4900014BA6BC08FEF809301010FC080910201FD
:10F4A00080958093020180E090E0E0EDF7E03197F5
:10F4B000F1F70196883C9105C1F78091C00087FF64
:10F4C000EDCF1092020151C08FEF809304010FC065
:10F4D0008091050180958093050180E090E0E0ED4A
:10F4E000F7E03197F1F70196883C9105C1F78091DB
:10F4F000C00087FFEDCF1092050137C08FEF8093DA
:10F5000007010FC08091080180958093080180E079
:10F5100090E0E0EDF7E03197F1F70196883C910536
:10F52000C1F78091C00087FFEDCF109208011DC088
:10F530008FEF80930A010FC080910B01809580931B
:10F540000B0180E090E0E0EDF7E03197F1F70196F4
:10F55000883C9105C1F78091C00087FFEDCF1092E4
:10F560000B0103C085E292EEEEC98091C00087FFD7
:10F57000FCCF8091C600EAC988E392EEE4C98CE131
:10F5800091EEE1C988249924933011F1943028F444
:10F59000913089F09230B8F408C0953061F195301F
:10F5A000F0F0963009F048C043C02B3109F042C951
:10F5B00091E06BE13FC96227C15DDE4F2883CF52E6
:10F5C000D14092E037C9B22FA0E0622793E032C960
:10F5D000822F90E0A82BB92B622794E02BC92E3004
:10F5E00009F039C3622795E0C05DDE4F19821882A9
:10F5F000C053D1401FC9E1E0F0E0EC0FFD1FC05D3A
:10F60000DE4F08811981C053D140E00FF11F2083E4
:10F610000F5F1F4FC05DDE4F19830883C053D14079
:10F6200062270A171B0709F005C9D80196E002C92D
:10F63000261709F010C303C0973009F0FBC87724E0
:10F640009981933109F412C19431C8F4963009F4C8
:10F65000D8C0973050F4923009F406C1933009F4C1
:10F660006DC0913009F059C253C0913109F477C08F
:10F67000923108F0BBC0903109F04FC2F5C098310B
:10F6800009F487C0993150F4953109F4EFC09531F0
:10F6900008F4C6C1963109F040C2C2C19A3109F4DA
:10F6A0006CC09A3108F491C09B3109F45BC09D3164
:10F6B00009F033C29D81903359F48F81882311F46E
:10F6C0009EE11CC0813011F091E018C098E916C08D
:10F6D000892F807591F0903539F4E0E0F0E089E011
:10F6E0008093570094910AC0983539F4E3E0F0E034
:10F6F00089E080935700949101C090E01A821B82A8
:10F700008D818C831D829E831F8227E030E009C299
:10F710001A8288E08B8381E48C8386E58D8382E581
:10F720008E8389E48F8383E5888780E589878FE5E9
:10F730008A8782E38B872BE030E0F3C18A818139AD
:10F7400041F0823941F0803911F48FE005C080E04A
:10F7500003C082E001C08AE01A828B8344C0772410
:10F76000739482C08D81882311F48EE12CC0813086
:10F7700011F081E028C088E926C01A82E1E0F0E0BB
:10F7800089E08093570084918B831C8224E030E0D1
:10F79000C8C18B81803589F48C81883039F4E2E0EE
:10F7A000F0E089E08093570084910DC0E0E0F0E044
:10F7B00089E080935700849106C0E3E0F0E089E09F
:10F7C0008093570084911A82DFCF8D81836C99E0FA
:10F7D000E1E0F0E0082E90935700E89507B600FCB2
:10F7E000FDCF1A821B8223E030E09BC180EC8A832C
:10F7F000CE5CDE4F188219821A821B82C253D1401E
:10F800008EC18A8190E0A0E0B0E0582F44273327D2
:10F8100022278B8190E0A0E0B0E0DC0199278827C7
:10F82000282B392B4A2B5B2B8D8190E0A0E0B0E098
:10F83000282B392B4A2B5B2B8C8190E0A0E0B0E089
:10F84000BA2FA92F982F8827282B392B4A2B5B2BCF
:10F85000220F331F441F551FC05EDE4F288339839C
:10F860004A835B83C052D1401A8259C13A81C95C34
:10F87000DE4F3883C753D140CA5CDE4F1882C6536F
:10F88000D1408B81C82EDD24CA5CDE4F488159816E
:10F89000C653D140C42AD52A933109F082C0CE5C28
:10F8A000DE4F88819981AA81BB81C253D1408050AB
:10F8B000904CA340B04030F583E0CE5CDE4FE88052
:10F8C000F9800A811B81C253D140F70100935B008C
:10F8D00080935700E89507B600FCFDCFCE5CDE4F65
:10F8E000088119812A813B81C253D14000501F4FAA
:10F8F0002F4F3F4FCE5CDE4F088319832A833B8313
:10F90000C253D140C05EDE4F488159816A817B81FC
:10F91000C052D140DE011B9631E08C9111962C91A2
:10F9200011971296C75CDE4F2883C953D140C85C3B
:10F93000DE4F1882C853D14090E0C85CDE4FE881AA
:10F94000F981C853D1408E2B9F2B0C01FA01609393
:10F950005B0030935700E89511244E5F5F4F6F4F67
:10F960007F4F0EEFE02E0FEFF02ECE0CDF1CC114F8
:10F97000D10499F685E0C05EDE4F088119812A81A5
:10F980003B81C052D140F80120935B008093570027
:10F99000E89507B600FCFDCF81E180935700E8951C
:10F9A00035C0C05EDE4F88819981AA81BB81C0527B
:10F9B000D140B695A795979587957C018601ABE0D8
:10F9C000AA2EB12CAC0EBD1E0BC0D5016D915D01F0
:10F9D000C7010F947FFE0894E11CF11C01501040F8
:10F9E0000115110591F7A60160E070E0440F551F65
:10F9F000661F771FC05EDE4FE880F9800A811B8199
:10FA0000C052D1404E0D5F1D601F711F1A82C05E33
:10FA1000DE4F488359836A837B83C052D1407FC0C5
:10FA2000FA80C55CDE4FF882CB53D140C65CDE4F16
:10FA30001882CA53D1408B81C82EDD24C65CDE4FAC
:10FA400008811981CA53D140C02AD12A1A828981DA
:10FA5000BE016D5F7F4F843121F59601C05EDE4FA0
:10FA6000E880F9800A811B81C052D1400BBFF701A9
:10FA700087919691DB018C9311969C936E5F7F4FDB
:10FA8000D801C7010296A11DB11DC05EDE4F88835B
:10FA90009983AA83BB83C052D14022503040F1F6F3
:10FAA00036C0C05EDE4F288139814A815B81C052F9
:10FAB000D1400894C108D108760100E010E0089414
:10FAC000C11CD11C0894E11CF11C011D111DE20E8A
:10FAD000F31E041F151F21BDBB27A52F942F832FB5
:10FAE00082BD2F5F3F4F4F4F5F4FF89A80B5DB01CC
:10FAF0008D93BD012E153F054007510761F7C05E8C
:10FB0000DE4F288339834A835B83C052D1409601FC
:10FB10002D5F3F4FFB01108204C080EC8A8322E0FE
:10FB200030E08BE18093C6008091C00086FFFCCF5F
:10FB30008091C00080648093C000C15DDE4FF88179
:10FB4000CF52D140F093C6008091C00086FFFCCF19
:10FB50008091C00080648093C000432F3093C60022
:10FB60008091C00086FFFCCF8091C00080648093AC
:10FB7000C000922F2093C6008091C00086FFFCCF6A
:10FB80008091C00080648093C0008EE08093C600A6
:10FB90008091C00086FFFCCF8091C000806480937C
:10FBA000C00065E1C15DDE4FE880CF52D1406E25D7
:10FBB00069276427FE01319610C090819093C6009A
:10FBC0008091C00086FFFCCF31968091C000806498
:10FBD0008093C0006927215030402115310569F715
:10FBE0006093C6008091C00086FFFCCF8091C0006A
:10FBF00080648093C00085B1805885B9772081F4F6
:10FC0000C15DDE4F0881CF52D1400F5FC15DDE4F35
:10FC10000883CF52D14090E0A0E0B0E00D941AF4F8
:10FC200027982F9880E090E020ED37E0F901319798
:10FC3000F1F7019684369105C9F700008091C00064
:10FC40008D7F8093C00081E180935700E895EE2777
:10FC5000FF270994FFCF90E00D941AF497FB092E2B
:10FC600007260AD077FD04D02ED006D000201AF443
:10FC7000709561957F4F0895F6F7909581959F4F08
:10FC80000895A1E21A2EAA1BBB1BFD010DC0AA1FDD
:10FC9000BB1FEE1FFF1FA217B307E407F50720F0F5
:10FCA000A21BB30BE40BF50B661F771F881F991F70
:10FCB0001A9469F760957095809590959B01AC01B9
:10FCC000BD01CF010895AA1BBB1B51E107C0AA1FAC
:10FCD000BB1FA617B70710F0A61BB70B881F991FED
:10FCE0005A95A9F780959095BC01CD010895F99991
:10FCF000FECF92BD81BDF89A992780B50895262F31
:10FD0000F999FECF1FBA92BD81BD20BD0FB6F89400
:0EFD1000FA9AF99A0FBE01960895F894FFCF63
:00000001FF
